:020000040800F2
:100000005007002059010008151C0008311700088E
:1000100000000000000000000000000000000000E0
:10002000000000000000000000000000BF1E0008EB
:100030000000000000000000691C00085D1F0008AF
:1000400089010008000000008901000889010008FA
:100050008901000889010008890100088901000858
:1000600000000000890100088901000889010008DA
:1000700089010008890100088901000800000000CA
:10008000890100080000000000000000890100084C
:100090008901000889010008890100088901000818
:1000A000890100088901000889010008E52000088D
:1000B0008901000800F002F800F03EF80CA030C8FA
:1000C000083824182D18A246671EAB4654465D46D4
:1000D000AC4201D100F030F87E460F3E0FCCB64660
:1000E0000126334200D0FB1AA246AB4633431847E1
:1000F0001839000038390000103A02D378C878C1A6
:10010000FAD8520701D330C830C101D504680C6059
:10011000704700000023002400250026103A01D378
:1001200078C1FBD8520700D330C100D50B607047AF
:100130001FB51FBD10B510BD01F0B2F81146FFF795
:10014000F7FF02F05FFC01F0CAF803B4FFF7F2FF1B
:1001500003BC01F0FBF800000F4880F308880F484B
:100160000168090E0E4A914205D10E480E49016000
:100170000E480F4901600F4880470F480047FEE7CF
:10018000FEE7FEE7FEE7FEE7FEE700000B480C494E
:100190000C4A0D4B7047000050070020040000007F
:1001A0001F00000018100240010000000000014084
:1001B00000000000611F0008B50000085001002089
:1001C00050070020500300205003002000220309A4
:1001D0008B422CD3030A8B4211D300239C464EE062
:1001E00003460B433CD4002243088B4231D303091E
:1001F0008B421CD3030A8B4201D394463FE0C309D0
:100200008B4201D3CB01C01A524183098B4201D3E7
:100210008B01C01A524143098B4201D34B01C01AD2
:10022000524103098B4201D30B01C01A5241C3084A
:100230008B4201D3CB00C01A524183088B4201D3B9
:100240008B00C01A524143088B4201D34B00C01AA5
:100250005241411A00D201465241104670475DE0BA
:10026000CA0F00D04942031000D34042534000223D
:100270009C4603098B422DD3030A8B4212D3FC22E6
:10028000890112BA030A8B420CD3890192118B4265
:1002900008D3890192118B4204D389013AD092117B
:1002A00000E08909C3098B4201D3CB01C01A524136
:1002B00083098B4201D38B01C01A524143098B42FF
:1002C00001D34B01C01A524103098B4201D30B01E8
:1002D000C01A5241C3088B4201D3CB00C01A52410D
:1002E00083088B4201D38B00C01A5241D9D24308F4
:1002F0008B4201D34B00C01A5241411A00D2014631
:10030000634652415B10104601D34042002B00D59A
:100310004942704763465B1000D3404201B500205C
:10032000C046C04602BD7047704770470246C80FBE
:10033000C00781434B0030B54B405B009B0D20D084
:100340001923DB06C91801231B05994220DB03246E
:10035000A40704251346AB400BD3002B04D1EB06B6
:1003600013409B00E34204D40124640700231219C4
:100370005941FF231B0599420BD2C9000143500F7D
:1003800009E0CB0204D501430803024305D0054828
:1003900030BDFF21C905084330BD084607210905C6
:1003A000884330BD0000C07FF0B50C46871A9C41E1
:1003B0000D46861A9D4103D2C01BA141D21963414B
:1003C0000D0D1F0DC94EEC1BAE435CD07F057F0D9C
:1003D0000026002F51D02D05AC46A943DD02012394
:1003E000ED0A1B051D4320231B1B24D41746E740A1
:1003F000381871412F46E740CC199D4028183146E6
:1004000061410C0D27D161449A4013D50023401C53
:10041000594152000ED14008400001224B005205C4
:10042000D34207D305204007C14201D5B04900E0BF
:10043000B0493046F0BD6B00002A00D001229A1866
:100440001F23203C1B1B01D5002302E0E540281898
:1004500071410C0DD7D0012424050919C407CD071B
:1004600040084908E40F28436144002CD5D00024FB
:10047000401C61419A40D0D1CDE76A05520DD9D1D7
:10048000C90FC907D5E79C4D4E00002801D00124B3
:1004900000E0002434195F00002A01D0012600E0AA
:1004A0000026BE19954FAC420CD8AE420AD8B442D1
:1004B00006D001256D05EC42BCD010461946F0BDB2
:1004C0009942FCD000203946F0BDF0B51FB40C466F
:1004D0000F46811A9F412546861A9D4106D2012565
:1004E000ED076F40401ABC4152187B41210D1E0D93
:1004F0008D1BAC467D4D8D437ED075056D0D7CD03A
:100500000D05AE46AC431B031B0B794D52429D417A
:10051000202366469B1B14D31746F7403818002645
:100520000090744160462F460741E41900989D40B1
:100530002818664116D4714671189A4025D50123B2
:1005400020E093182A466A415200002B00D0521C2A
:100550001E23203E9B1B002B61DD3541EE17281822
:100560006641E8D5001876415B1C9A4000D3401CD8
:100570004B05F3181524E34010D3002B52D07146DD
:100580007118D30FC01802D3491C05B0F0BD012368
:10059000DB079A42F9D140084000F6E701225205F4
:1005A000B21801D1002853D00123CC0ADB029943B1
:1005B000891E002A08D1020C03D0020C0004103955
:1005C00002E00246002020390023550B05D112021B
:1005D0000823550B01D152010D23550C01D11201F5
:1005E0001B1DD50C01D192009B1C150D01D1520091
:1005F0005B1C2025EE1A01E02CE022E00546F540C8
:1006000015439840CA1AE10769181305C918002A4A
:10061000BBDA032040070818C10FC9070FE0714675
:100620006118B2E7F10740080843711071444A00AD
:100630000CD001235B059A42A7D2C90FC90700203D
:10064000A3E74905490D26D1002001E00028F4D197
:1006500000219AE7284D6600002801D0012100E022
:10066000002171185F00002A01D0012600E0002659
:10067000BE19224FA94210D8AE420ED8B14208D0BE
:1006800001256D05E94206D01946A80241401046F1
:100690007BE79C4201D0214677E70020394674E78A
:1006A00010B50C465C4005D50124E4076340FFF714
:1006B0000CFF10BDFFF778FE10BD30B40C465C4057
:1006C00004D50124E407634030BC6DE630BCFCE691
:1006D00070B50124E40761400D465D4002D4FFF788
:1006E00063FE70BD6340FFF7F0FE70BDFF070000C2
:1006F0000000F0FF0000F07F0000E0FF0000F87F46
:10070000F0B5F94D0C091E092C402E402F468BB038
:10071000A7437DD0B543FCD0002E7AD0002CFCD06E
:100720000D465D40ED0F2543AC1BFF25AD0464195C
:100730000894C502440DC9022143500DDC02044354
:100740000120C00701430443D2020191200C110C87
:1007500000958C46010423468B430A9161460904A7
:10076000E24D8A430991010A7D444919803909788B
:1007700005464D4301266D18F605751B6943C90CE6
:10078000640B891C4C436418B5012C1B250C2E04EA
:10079000B4434C434D43210C691889090591009DD0
:1007A000E90701D00121C90704912C460199670886
:1007B000CD072F434C08059DE10B4D432D0C2946D9
:1007C0006646754302950D4645432E46029D7D1BA8
:1007D000B44100950D465D4301942C0C2F040D4649
:1007E0005543AE462D0C3D43029503947546049C3B
:1007F0002D04641B049406D2029C039D641C0026F5
:1008000075410395029401AC70CC009F7D1B01E003
:100810003EE162E1B4410904009507910194059914
:10082000A4086143090C0C464443650BE7040C46DD
:1008300066467443A646640B3C4303950294744693
:10084000049DE4042C1B049406D2029C039D641CAA
:10085000002675410395029401AC70CC009F7D1B6E
:10086000B44101940C465C430095650FE7000C46CB
:100870005443A646640F3C43039502947446049D7A
:10088000E4002C1B049406D2029C039D641C0026E9
:1008900075410395029401AC70CC009F7D1BB4415F
:1008A000AE09AF06049DC900AD092F43049DA406FF
:1008B000AD060495079D344369180791059DE10B2A
:1008C0004D432D0C29466646754302950D4645431A
:1008D0002E46029D7D1BB44100950D465D4301945B
:1008E0002C0C2F040D465543AE462D0C3D4302956E
:1008F00003947546049C2D04641B049406D2029C48
:10090000039D641C002675410395029401AC70CCD4
:10091000009F7D1BB44101948C050694079C890AB5
:10092000611800950791019C0599A4086143090C81
:100930000D464543680BEF040D46644665436C0B5A
:100940003C43049FED047D1BAC4602D20025641C91
:100950006841009E019D371B85410846584301951B
:100960000C46460FC5005443600F28436546E4001B
:100970002C1B02D20025401C6E41019D3F1AB5413F
:100980002846BD09800628438446A009BF064E02BA
:100990000699A40676180743079D002068410A9926
:1009A000079019430020099B00906046FF191343EC
:1009B0004041E20F64003A43A4460446D71A8C41F2
:1009C000A04203D90120009020463A46C70F941850
:1009D00040416246D20F2243644664000494009C66
:1009E000BE466400D71AA446044602978C41774657
:1009F000002F01D1A04204D96046401C8446029ACF
:100A00002046C40FA64694184041049A0546D20FCA
:100A1000224364466400D31A8D417146002901D1F6
:100A2000A84202D928461A46641C10430122002815
:100A300000D0164361020020079B891904465C41DF
:100A40000223002C02DB491813466441089DCE0A9C
:100A50002D145D194B056705E10A2C050D19089940
:100A60003E43C9076940002B08D0934006D30022BB
:100A7000761C5141002B01D1760876001C4A002DCE
:100A800043DB154241D0AA433FD030460BB0F0BD06
:100A900006180D464D41174C7642AC411AD39518B5
:100AA0001C465C41134A6D42A24113D301225205F8
:100AB0004C00D4420AD15C00D4420BD04B4002D54A
:100AC00092021143E2E749004908DFE75940C90FA4
:100AD000C90718E000200849D8E7054801420DD1B0
:100AE0000342F7D0F2E700000000FF0714310000D6
:100AF0000000F07F0000E0FF0000F87F114859403F
:100B00000143C01241400020C0E70123089A9B0620
:100B10009A4205DC032252078918C90FC907B5E7B5
:100B2000052252078918074A1143D2125140ADE7F6
:100B300070B515461C4602460B4628462146FFF76F
:100B4000DFFD70BDFFFFFF7F1F22030C02D10F22CC
:100B5000000402D0030E03D004E0002001467047D9
:100B60000002083A030F01D10001121F830F01D1C7
:100B70008000921E002801DB4000521E1205511811
:100B80004205C012411810467047C10FC90700D076
:100B90004042012292071143D6E701218907D3E79A
:100BA000F0B58B4C0F09254689B0BD437BD01D099C
:100BB0002646AE43FAD00E465E402740F60F3E432F
:100BC000254071D024012142FBD0FF24AD19A4049B
:100BD0002D1B039501252D05DB02DB0AC9022B43E2
:100BE000C90A29431E010901040F130F05012143FE
:100BF0001701880B820391432D098C46A90B1E43D4
:100C00008A039543B30B9A0396433F09BA0B9403A7
:100C1000A74302962E467E430497B6464E19D7192F
:100C20000C460196544305977E43371B7646BF1BFF
:100C30003601B646BE0B361900967646BC04371907
:100C4000009C01D3641C00946400002F01D0012695
:100C50003443029E049F754366467E4304967600A5
:100C600034196E0034190094029C019E1C196643CD
:100C7000751BAE46069465464519059C05956C4363
:100C8000594375460891691A0191049E01465143E2
:100C9000A41B0491611A009C0791E10605D061092B
:100CA0000122114302E072E06EE06109089D002715
:100CB0002C0A2D066918049D7C412A0A2D06691804
:100CC000019D6241AC0DAD026D185441079A910D22
:100CD000920255196141029A644658435443069B57
:100CE000059A5A43121A131B9A0E9B015B187A41FC
:100CF000010B0005C3185141220A200644195A412C
:100D00009A4200D2491C01204002814203D315239C
:100D10000226F64302E014230326F6432020C51AD8
:100D2000A9401746AF40DA400A4320460399D8400D
:100D30000914731819055118039A3843D207514002
:100D4000AC4009D00122944006D30022401C5141FE
:100D5000002C01D1400840001E4A934212D30122C8
:100D600003989206904207DB0520400709181A48AD
:100D70000143C012414004E0032040070818C10F9E
:100D8000C907002009B0F0BD0020F107FAE70518F7
:100D90000C464C4111486D42A04115D394181A4697
:100DA0005A410E48644290410ED301204A0040054A
:100DB000824209D35A00824206D35940C90F084AD9
:100DC000C90700201143DDE700200649DAE70000EB
:100DD0000000FF07FE070000FFFFFF7F0000E0FFAD
:100DE0000000F07F0000F87F70B505464800440D14
:100DF000124B0020002C0AD0634008D09A4206DA39
:100E00006642B24203DD12054019514170BD002C0B
:100E100008D0002B09D0C90FC907002AF6DB084A01
:100E2000114370BDC90FC90770BD28460A0310439E
:100E300002D00020034970BD284670BDFF070000A6
:100E40000000F07F0000F87F0121C905012341184F
:100E500042001B06D3185B0E0AD0C1100722D2062F
:100E6000891840075242D14201D552008918704773
:100E7000090208D50146002A03D0C10FC907002086
:100E8000704710467047420202D000200249704766
:100E9000072109050143F4E70000F87FF0B5FF25BD
:100EA0002D04C609C209FF2704462E400137CB098D
:100EB0003E4348402A402B400746002A6BD0002B77
:100EC00069D0AA4267D0AB4265D0002800DA32462A
:100ED0000125ED0529432C4309022002090AD21AF3
:100EE0004B0C7F24E31A434C000A7C44E35C7D24D2
:100EF0002404121914145B00A218884201D3521C56
:100F000000E0400049420C465C4324115C43DB0195
:100F10006415E318040A5C43C502200D0C464443E3
:100F20006419250A5D432303EC0C0D466543000359
:100F30000019EB184C42A34201D35B18401CD405A6
:100F40002018002B07D05B00C91804D3401C0029CF
:100F500001D1400840003F2189048A4209D3002A78
:100F600008DC1106090F04D0032149074018C00FFF
:100F7000C007F0BD01224100120689187F225206E7
:100F80009142F6D205214907C84201D59010F0BD23
:100F9000FF20C005F0BD002F00DA32461648AA42F5
:100FA00007D2AB4205D21902090E17D0F80FC007BD
:100FB000F0BDFF2563002D06AB42F9D84900A942D8
:100FC000F6D8AB4201D1A942F2D0A94201D1002109
:100FD00001E061004908D0050843F0BD1102090E87
:100FE000FBD0FF200243D005F0BD0A460146104663
:100FF00054E70000122A00000000C07F10B501462F
:101000009E240002CA15A307002A02D01843002A12
:1010100004DBA21A002A0CDDD04010BD1206120E0D
:1010200001D140004008A21A03D4D0404042002819
:10103000F3DDFF2248001206904201D9002010BDC6
:10104000C817C043584010BD1F22030C02D10F2205
:1010500000041CD0030E01D10002083A030F01D195
:101060000001121F830F01D18000921E002801DBB6
:101070004000521ED20551180212511819229040F8
:1010800004D3491C002801D149084900084670478B
:10109000C10FC90700D04042012292071143D3E794
:1010A00001218907D0E710B500F0D0F8006810BD25
:1010B00010B5044600F0CAF8046010BDF8B5224C23
:1010C0004E00069DA6420AD8A64201D1002806D1AC
:1010D0005E00A64203D8A6420AD1002A08D00D24F9
:1010E000240425422CD02946002000F0B3F8F8BD96
:1010F0000C461C430CD4994202D0EFF30080F8BD9B
:10110000904202D0EFF30080F8BDEFF30080F8BD0D
:1011100009242407E5008B4206D0EFF30080A043AA
:10112000591A06D2284304E0101A05D3EFF30080C1
:10113000A04380F30088F8BDEFF30080A043F1E7FF
:10114000009500F09FF8F8BD0000E0FFF0B53D4BC2
:1011500002460C461C400020002C63D03A4D8B43C5
:1011600066D000296BDB0B0D1D05A94301252D055C
:1011700029430124FD33E34001D392184941FF3351
:1011800081339C468B02940D0121234389074C42F5
:10119000920200271B198C105D1A04D42D1B02D457
:1011A0002B466500491992185B416408F4D15C1A1A
:1011B00008D40125ED07EE175519744102D42A46CB
:1011C0002346491C94185B41012292071D46E61BE9
:1011D0008D4106D4B61A854103D42B4655003446BA
:1011E0007F1924195B415208802AEFD1234300D094
:1011F000022338460A22D04001D3012213438A0534
:1012000010436246890A12058918002B09D0012271
:10121000D34002D30022401C5141002B01D1400891
:101220004000F0BD0B03134307D0C90FC907F0BD41
:101230000803104303D1002901DB1046F0BD002054
:101240002946F0BD0000F07F0000F87F004870479D
:10125000F0000020C80212D54803400F002804D037
:10126000C803C043012188407047EFF300800001AC
:10127000000903210907084380F300887047002014
:101280007047000010B500200249029A00F02FF8C4
:1012900010BD00000000F87F00487047F0000020FB
:1012A0007546FFF7F9FFAE46050069465346C0088C
:1012B000C000854618B020B5FEF768FF60BC002767
:1012C0004908B6460026C0C5C0C5C0C5C0C5C0C512
:1012D000C0C5C0C5C0C5403D49008D46704710B56A
:1012E0000446C046C0462046FEF72FFF10BD10B58D
:1012F0000C461107090F092904D00A290AD0082928
:101300000CD104E011460820FFF7A4FF06E05106C7
:1013100006D501E0510601D50120C007214610BDC8
:10132000D10607D501010909CC084907000E0006BE
:10133000044309E0410F20024907000A0143200E3F
:1013400000061D22D14101430846E7E70149182064
:10135000ABBEFEE7260002007047000070B52E21EC
:10136000F42000F015F90A2001F0A8F80D4A022136
:10137000F62000F0FFF80B4908784978000208438E
:10138000084C183CA18A401A618A4843C5130C20B6
:10139000205E0E21615EC0026918FEF721FF281849
:1013A000A06270BD3C00002070B5394A0221AA201D
:1013B00000F0E0F8364C20786178000208432546BA
:1013C000183D288022460221AC2000F0D3F8207876
:1013D000617800020843688022460221AE2000F0B6
:1013E000C9F82078617800020843A88022460221CB
:1013F000B02000F0BFF8207861780002084328820E
:1014000022460221B22000F0B5F82078617800026F
:101410000843688222460221B42000F0ABF820780D
:10142000617800020843A88222460221B62000F01B
:10143000A1F82078617800020843E8802246022162
:10144000B82000F097F820786178000208432881DE
:1014500022460221BA2000F08DF82078617800023F
:101460000843688122460221BC2000F083F82078DE
:10147000617800020843A88122460221BE2000F0C4
:1014800079F82078617800020843E88170BD000097
:101490003C000020F8B5002400262D4D0020A86354
:1014A000E86301220021022000F079F801F032F80F
:1014B000642001F019F8641CE4B20A2CF6D300246D
:1014C00001F028F8314602F0C9F80646641CE4B27F
:1014D000192CF5D31F493046FFF7E0FC0646E869B2
:1014E000E863EE6100243046FFF7AEFC074600914A
:1014F0003046E96BFFF7D2FCFFF7A6FC164A174B04
:1015000001F024FB0022164BFFF7E2F80022154BF6
:10151000FFF746FBFEF70AFFA8631349FFF7BEFC7F
:101520007F21C90502F038F9FFF78EFC0F4A104BF6
:1015300001F00CFB02460B4638460099FFF7E0F835
:10154000FEF7F4FEE863641CE4B2052CD0D3F8BDCA
:10155000240000200000C841EBE2361AC05BC83FFF
:101560000000F03F1AE95041D048874A85EB51B856
:101570001E05154010B513460A460146EE2000F040
:10158000EBF910BD0149C88270470000240000201B
:1015900010B50A460146EE2000F00EFA10BD10B557
:1015A0000446FFF701FFFFF7D9FE2046FFF7EAFFE9
:1015B00010BDF0B500220325012393400C681C40A8
:1015C0009C422AD10C79012C01D0022C12D18768BF
:1015D00054002E46A640B74387604E79A6408468E3
:1015E0002643866084889C43848084888B799340DA
:1015F0001C438480066853002C469C40A64306602A
:101600000E7907689E403E430660C668A643C660E2
:10161000CC799C40C3681C43C460521C102ACBD3B5
:10162000F0BD10B54B07DB0E9A40C90889000818B9
:10163000016A0F249C40A1430162016A11430162C7
:1016400010BD02460020128A0A4200D001207047D5
:10165000018570478161704730B589B00121480428
:1016600000F004FB0121880300F02AFB02206946F8
:1016700008720320487201258D72CD7268020190B4
:101680000924E40601A92046FFF793FF012209215E
:101690002046FFF7C6FF1B206946087000244C70E7
:1016A0008D70684600F0B8FA0F4D284600F03AFDFC
:1016B0004B204002039004940594069408940C2057
:1016C000079003A9284600F0EBFD0121284600F011
:1016D000C4FD0121284600F019FD012203492846D6
:1016E00000F0C6FD09B030BD00380140050105001D
:1016F00010B5064C0146204600F02EFE8021204603
:1017000000F086FD0028F9D010BD0000003801402F
:1017100070B5002405498000451828194078FFF766
:10172000E7FF641CE4B2032CF7D370BD80000020F7
:10173000FEE710B50924E40640212046FFF788FFA4
:1017400000F0B1FB20212046FFF782FF022000F0CD
:10175000CBFE40212046FFF77DFF022000F0C4FEB3
:1017600040212046FFF774FF10BD7CB501214804DD
:1017700000F07CFA20200090012469460C710320BF
:1017800048718C71CC710925ED062846FFF711FFD1
:101790004021009169460C712846FFF70AFF7CBD85
:1017A00010B50924E40640212046FFF751FF00F060
:1017B0007AFB20212046FFF74DFF022000F094FE27
:1017C00040212046FFF746FF022000F08DFE402119
:1017D0002046FFF73DFF10BDF8B50746002400F096
:1017E00055FB00250926F60640213046FFF730FF5D
:1017F000022000F079FE40213046FFF72BFF600603
:10180000040E20213046FFF71CFF002801D0641C85
:10181000E4B2022000F068FE6D1CEDB2082DE3D3A7
:10182000002F02D0FFF785FF01E0FFF7B9FF204648
:10183000F8BD70B5054600F036FB0926F6064021D6
:101840003046FFF705FF0024E80900281BD02021BF
:101850003046FFF7FFFE6806050E022000F044FE4A
:1018600040213046FFF7F6FE022000F03DFE402109
:101870003046FFF7EDFE022000F036FE641CE4B2B5
:10188000082CE1D370BD20213046FFF7E1FEE2E7EE
:1018900010B500F008FB0924E40620212046FFF7DC
:1018A000D9FE40212046FFF7D5FE042000F01CFEA3
:1018B00020212046FFF7CCFE042000F015FE402139
:1018C0002046FFF7C5FE10BD10B500F0ECFA092464
:1018D000E40640212046FFF7BBFE20212046FFF70B
:1018E000B7FE042000F000FE40212046FFF7B2FEC4
:1018F00020212046FFF7AEFE042000F0F5FD10BDCC
:1019000070B5002400F0C2FA0925ED062021284612
:10191000FFF7A0FE012000F0E7FD40212846FFF779
:1019200099FE012000F0E0FD0AE0641CE4B2322CD4
:1019300003D9FFF7C9FF012070BD012000F0D4FDDD
:1019400020212846FFF77DFE0028EED140212846C1
:10195000FFF77EFE002070BDFFB581B0074616463A
:101960001D460024FFF794FF3846FFF762FFFFF79C
:10197000C7FF0298FFF75DFFFFF7C2FFFFF788FF81
:101980007F1CF8B2FFF755FFFFF7BAFF771E0CE098
:10199000BC4204D00120FFF71FFF285503E00020C0
:1019A000FFF71AFF2855641CE4B2B442F0D3FFF7E6
:1019B0008BFF204605B0F0BD07B502AB012200F059
:1019C00001F80EBDFFB581B00F4615461E46002436
:1019D000FFF75EFF0198FFF72CFFFFF791FF3846F6
:1019E000FFF727FFFFF78CFF06E0305DFFF721FFD1
:1019F000FFF786FF641CE4B2AC42F6D3FFF764FF46
:101A0000012005B0F0BD000010B5054AD062484382
:101A10006421FEF7DBFB02494031086010BD000085
:101A200000040040F8B50F461C4E002820D00128C5
:101A30001DD1B06BFFF708FA04460D463846F16B2E
:101A4000FFF72CFAFFF700FA154A164B01F07EF863
:101A50000022154BFEF73CFE0022144BFFF7A0F8C6
:101A600022462B46FEF729FEFEF760FC7063F8BDA8
:101A7000F0694000000EFAD0F1693846FFF70EFA1F
:101A80003062306AFFF7E0F900F012FE0022084BE6
:101A9000FFF786F8FEF74AFC7063F8BD24000020CB
:101AA000EBE2361AC05BC83F0000F03F1AE9504134
:101AB000006EBEC070B588B0002806D02E21F4207C
:101AC000FFF766FD0A2000F0F9FC4D4A0221F620DE
:101AD000FFF750FD4A4D28786978000208432C46EC
:101AE000183CA18A401A618A4843C6130C20205E24
:101AF0000E21615EC0027118FEF772FB3018A06201
:101B0000A06A08300011E062A07D80013430C1B2CB
:101B1000F420FFF73DFD0F2000F0D0FC2A46032102
:101B2000F620FFF727FD28780822010468780002D4
:101B30000143A8780143A07D121AD1400791A16A00
:101B40007D225201891A04910499494309130822FC
:101B5000A25E4A43D3120222A25E049D6A43D212BD
:101B60009A1806920022A25E0092009A069B9200AA
:101B7000D21882400092009A921C92100592042280
:101B8000A25E049B5A4352130623E35E5943091491
:101B90005118891C89100691218A0123069ADB03BA
:101BA000D2185143C90B0291059A0799891A154A0F
:101BB000C2405143019101981904884206D201980C
:101BC00002994000FEF702FB039005E0029901989C
:101BD000FEF706FB400003900398001240430A49B9
:101BE00048430014094A039951430914401808490D
:101BF0004018039900114018206308B070BD000020
:101C00003C00002050C30000DE0B000043E3FFFF58
:101C1000CF0E00007047000030B5827801240178B3
:101C2000002A16D08B080E4A9B009A181368890761
:101C3000C90EFF258D40AB434578AD072D0E8D4075
:101C40001D4315600078C006C00E8440054804603E
:101C500030BDC806C00E844002488030046030BDEC
:101C600000E400E000E100E070470000054A0029C0
:101C700003D05169014351617047516981435161FA
:101C80007047000000100240054A002903D0D169C6
:101C90000143D1617047D1698143D1617047000030
:101CA00000100240054A002903D011690143116167
:101CB00070471169814311617047000000100240B4
:101CC000054A002903D091690143916170479169E8
:101CD000814391617047000000100240054A0029CD
:101CE00003D0D1680143D1607047D1688143D1608E
:101CF0007047000000100240F8B5044600215C4E19
:101D000070680C2210405B4D002820D0042820D0A1
:101D1000082820D00C2839D025607068F0221040A7
:101D20000009554B1F5C20680246FA4094466260E9
:101D3000726807273F023A40120A9B5C6246DA400B
:101D4000A260336BDB0524D44C4BE36029E02560B3
:101D5000E3E72560E1E771680F20800401407068C7
:101D60000322D20310408F0CBF1C00280AD0F06A57
:101D70000107090F491C2846FEF728FA7843014657
:101D80002160CAE73E4839464143F9E73D482060B3
:101D9000C3E773685B0402D45308E36001E093086F
:101DA000E360336B5F06384B03D4374F123727613C
:101DB00000E02361376BFF0601D4656100E06061DC
:101DC000376BBF070ED0376BBF07BF0F012F0BD08C
:101DD000376BBF07BF0F022F08D0376BFF43BF071A
:101DE00006D006E0A26104E0A06102E0A36100E089
:101DF000A561376BBF03BF0F0FD0376BBF03BF0F9A
:101E0000012F0CD0376BBF03BF0F022F09D0376BE8
:101E1000BF03BF0F032F06D006E0E26104E0E061DC
:101E200002E0E36100E0E561376B3F03BF0F0FD0D5
:101E3000326B1203920F012A0CD0306B0003800F1B
:101E4000022809D0306B0003800F032806D006E07B
:101E5000226204E0206202E0236200E02562306B2F
:101E6000000602D407486062F8BD6162F8BD000058
:101E70000010024000127A000D000020809FD50063
:101E800000093D00006CDC02008000001CB5202031
:101E900000900020694608710120C8710920C00621
:101EA000FFF787FB1CBD1CB5202000900120694670
:101EB0000871C8710920C006FFF77BFB1CBD704785
:101EC0001CB50023019300932248016801221204EB
:101ED0001143016051000524240302680A40009266
:101EE000019A521C0192009A002A02D1019AA24240
:101EF000F3D10168890302D50121009100E000932C
:101F00000099012925D1144911220A6041684160D4
:101F10004168416041687F22D2039143416041683A
:101F2000112212041143416001680122120611437B
:101F3000016001688901FCD5416889088900416018
:101F4000416802221143416041680907890F022953
:101F5000FAD11CBD00100240002002407047000072
:101F600010B5144801680122114301604168124A0A
:101F7000114041600168114A11400160016801226D
:101F800092049143016041683F22120491434160F1
:101F9000C16A09090901C162016BFF2254329143F0
:101FA0000163416B49084900416300218160FFF7EB
:101FB00087FF10BD001002400CB8FF08FFFFF6FEBF
:101FC0008022002903D001881143018070470188D5
:101FD000914301807047002904D0018801221143F8
:101FE000018070470188490849000180704700005E
:101FF00030B5028C134B1A400284058C8288838B87
:10200000114C2340114C23400C782406240C1C4313
:102010000F4B1D400B7B1B071B0C2B438D782D0793
:102020002D0C1D430B4B984205D10B4B13400A8AD4
:102030009205120C1A4382808483896801640584A6
:1020400030BD0000FFEF0000FF8F0000FFFC00002C
:10205000FFDF0000002C0140FFBF0000828B034B1C
:102060001A4009021143818370470000FFF7000006
:1020700010B50288144B984206D00124A407A04250
:1020800002D0124CA04203D17024A2434C882243B8
:102090000F4CA04203D00F4C22400C8922430280F7
:1020A0004A68C2620A880285984208D00A4A904269
:1020B00005D00A4A904202D0094A904201D1897A59
:1020C00001860121818210BD002C014000040040E6
:1020D00000100040FFFC00000040014000440140AF
:1020E0000048014010B5074C0549204600F097F81C
:1020F000002804D0204600F02BF90349087010BDD9
:1021000005010500003801400C000020002904D022
:1021100001680122114301607047016849084900C4
:102120000160704710B53249884209D101218C0302
:102130002046FFF7D3FD00212046FFF7CFFD10BD5D
:102140002C49884209D101214C042046FFF7AAFD01
:1021500000212046FFF7A6FD10BD2749884209D17E
:1021600001218C042046FFF79DFD00212046FFF74A
:1021700099FD10BD2149884209D10121CC04204696
:10218000FFF790FD00212046FFF78CFD10BD1C4994
:10219000884209D101210C052046FFF783FD00216B
:1021A0002046FFF77FFD10BD1649884208D1012166
:1021B0002020FFF793FD00212020FFF78FFD10BDA9
:1021C0001149884208D101214020FFF787FD0021F5
:1021D0004020FFF783FD10BD0C498842FBD101214F
:1021E0008020FFF77BFD00218020FFF777FD10BDE9
:1021F000003801400044004000480040004C0040CE
:10220000005000400014014000180140001C014033
:1022100002460020D2690A4200D00120704730B542
:1022200000240A04130E01252A468A40012B0ED0F1
:10223000022B0FD083681340090C8D40C0692840E1
:10224000002B02D0002800D00124204630BD0368B6
:102250001340F1E743681340EEE70822002903D05A
:102260008168114381607047816891438160704744
:1022700010B50B041C0E01238B40022C02D0032C42
:1022800002D002E0001D00E00830002A03D00168FF
:102290001943016010BD01689943016010BD000041
:1022A00030B58BB004460D462068400840002060E1
:1022B0006068032109038843A968014361602068BD
:1022C0001E490840EA68696811432A6902431143BC
:1022D0002160A06803210902884369690143A16064
:1022E00001A8FFF709FD1648844201D107980AE0CA
:1022F0001448844201D1089805E01348844201D172
:10230000099800E003982168090404D54000296871
:10231000FDF75CFF02E02968FDF758FF2A685208C4
:102320008A4200D8401C2168090404D50107490FDE
:10233000064A10400843A0810BB030BDF3E9FFFF0F
:10234000003801400044004000480040F0FF000019
:10235000808CC005C00D7047C905C90D0185704747
:102360004900CA020243100000D004204A0D01D0E7
:1023700001221043044A490D914201D10221084330
:10238000012800D105207047FF070000F8B504467A
:102390004F1EC8000838211815461E4608684968AF
:1023A0003A4606239A4310D02A463346FEF7F8FBF6
:1023B0003A46D200083AA3181A687F1E5B68FEF7F7
:1023C0006FF906223B469343EED1022F23D0042F10
:1023D00011D0062F2FD12A463346FEF7E1FBE36AE0
:1023E000A26AFEF75DF92A463346FEF7D9FB636A17
:1023F000226AFEF755F92A463346FEF7D1FBE36918
:10240000A269FEF74DF92A463346FEF7C9FB636918
:102410002269FEF745F92A463346FEF7C1FBE36819
:10242000A268FEF73DF92A463346FEF7B9FB63681A
:102430002268FEF735F9F8BD002210B513461046A4
:102440000149FEF75DF910BD0000F03F10B5012213
:10245000FEF7CAFC10BD10B5FEF722F910BD002230
:1024600010B5134610461146FEF74AF910BD00009C
:1024700010B50721024A00200907FEF7B5FC10BD80
:1024800001030000034A10B500201107FEF7ACFC61
:1024900010BD000001FDFFFF06490A6904239A43AD
:1024A0000A610549C00808707D22D2005043488067
:1024B0007047000000E000E01E0000200849498845
:1024C00048430849486100238B610120086108697D
:1024D000C20701D0C003FAD50B618B6170470000C1
:1024E0001E00002000E000E0084909784843084940
:1024F000486100238B61012008610869C20701D08F
:10250000C003FAD50B618B61704700001E000020EC
:1025100000E000E0F8B50024384D0020E86468656C
:10252000374E706830603746143F0120FFF7C2FA1B
:10253000296B34480918A00039503958EA6C8918B9
:10254000E964395838584143686D08186865641C57
:10255000E4B2052CE9D3E86CFEF79AFD2A4C21463B
:10256000FEF79CFCFEF74AFDE864E86CFEF790FD80
:102570007060E86CE96C4843FEF78AFD0746686DB9
:10258000FEF786FD2146FEF789FC394601F010F979
:10259000FEF734FD2865286DFEF77AFD696A01F0C3
:1025A0005DF81A4F394601F059F804463946686A11
:1025B00001F054F82146FEF771FCA8653946686AB7
:1025C00001F04CF8A96D04467F20C00501F0F0F839
:1025D000214601F089F868623168706801F0E8F816
:1025E000A96D01F081F8316801F038F8B060B06889
:1025F000074901F033F8B060B068F8BD240000204E
:10260000E40000206079FEFF0000A0400000EE42E0
:102610000050C347F0B58BB001218804FFF726FBBB
:102620000224099408A804720321417200258572CE
:102630000126C6721B4F09A93846FEF7BAFF0122D0
:1026400011463846FEF7EDFF01210220FFF71CFB83
:1026500015496846018345837D20C0000790684680
:102660000584124D06A92846FFF702FD6021684641
:102670008180C68064200390E101684681820482E3
:1026800001A92846FFF7B4FC08212846FFF7E6FC1D
:1026900001212846FFF794FC01212846FFF79BFC07
:1026A0000BB0F0BD000400487FBB000000040040F8
:1026B000F0B5C54A00248FB091420ADA4B005B089E
:1026C000934206D801254A006D05EA4205D100284B
:1026D00003D0FFF7BBFE0FB0F0BD01252D05A942C9
:1026E00019DA034308D0002910DA0120FEF7E0FCD4
:1026F000FFF7B5FE0FB0F0BD0220FEF7D9FCFFF7E3
:102700009BFE0122D20751400FB0F0BD3524E443B7
:102710003622FEF769FB0A15AC4B1219D4180A03CE
:10272000120BAB49AB4B56182E4031465940114362
:102730000192321512190B920022FDF7BEFF019A89
:102740000446921C1003A44E000B0D467E44032841
:1027500060D220467368326800F01AFF1CD10B98D3
:10276000002815D0FEF711FA04460E469B4A9C4BF2
:10277000FEF716FA0D4607469A4A9B4B204631460D
:10278000FEF70EFA3A462B46FDF78AFF0FB0F0BD72
:10279000716830680FB0F0BD944A954B20462946C9
:1027A000FEF7FEF90022934BFDF792FF06460F4617
:1027B00022462B4610461946FEF7F2F932463B46B2
:1027C000FEF7EEF906460B980F4600281DD0FEF7DF
:1027D000DCF9824A824B05910490FEF7E1F932461A
:1027E0003B46FDF775FF22462B46FDF766FF044684
:1027F0000D467C4A7C4B05990498FEF7D1F9224698
:102800002B46FDF75AFF0FB0F0BD0B46324620466F
:102810002946C4E0012300229B072046FDF740FF24
:1028200002460B4620462946FDF76AFF06460F463C
:102830000B98FEF7AAF932463B46059104901046E4
:102840001946FEF7ADF909910C906B490198099B67
:10285000421800920C9A19461046FEF7A1F902465A
:1028600007910A90654901980B1A65480193032165
:102870007844079BFFF78AFD079B0A9AFEF790F9B9
:102880000E905F480D9104217844079B0A9AFFF748
:102890007DFD099B0C9AFEF783F9019B009A1A4370
:1028A00000920D9B0E9AFDF7FBFE009A01910C9091
:1028B000002A4DDD0022D24320462946FEF794FA35
:1028C00022462B46FEF76CF900910A900B980028DF
:1028D0002BD0424A424B05990498FEF761F90791C3
:1028E0000E90019B0C9A00990A98FDF7D9FE32468A
:1028F0003B46FEF755F9079B0E9AFDF7D1FE009B6C
:102900000A9AFDF7E5FE22462B46FDF7D6FE044661
:102910000D46344A344B05990498FEF741F9224696
:102920002B46FDF7CAFE0FB0F0BD019B0C9A0A982A
:10293000FDF7B6FE32463B46FEF732F9009B0A9A97
:10294000FDF7C6FE22462B46FDF7C2FE0FB0F0BDD6
:102950000B98002827D0214A214B05990498FEF7AF
:102960001FF90791009020462946019B0C9AFDF71C
:10297000A4FE32463B46FEF713F9079B009AFDF78B
:102980009CFE22462B46FDF798FE04460D46154A4E
:10299000154B05990498FEF703F922462B46FDF7DF
:1029A0008CFE0FB0F0BD0B46204629460C9AFDF771
:1029B00084FE32463B46FEF7F3F822462B46FDF7EF
:1029C00087FE0FB0F0BD00000000F07F01FCFFFFAC
:1029D000645F09000000F03FB0120000763C7935DA
:1029E000EF39EA3D0000E0FE422EE63F55555555D1
:1029F0005555D53F0000E03F86EBF9FF51B8060082
:102A0000CC10000055243020FFF746FDFFF702FEF2
:102A10000A213220FEF7F8FFFEF7A7FEFEF73AFD87
:102A2000FF25F5352846FFF749FDFEF715FE0A217B
:102A30002846FEF7E9FF324F324D334E38780328EF
:102A400010D1552C0ED1FF20F530FFF74DFD04229B
:102A50000123AA5E0821032000F05EF80320FEF7A0
:102A600057FE0124387804280FD1012C0DD1FF2006
:102A7000F530FFF739FD0023EA5E0821042000F05D
:102A80004BF80420FEF744FE05243878052810D1C1
:102A9000052C0ED1FF20F530FFF726FD0222002382
:102AA000AA5E0621052000F037F80520FEF730FE6B
:102AB000152438780628C1D1152CBFD10021304605
:102AC000FFF724FBFFF726FDA86001460120FEF773
:102AD000A9FF0F480D490068FEF7E0F9FEF78EFAEE
:102AE00000B228800421695E884200DDA880094880
:102AF00000686880552401213046FFF707FB9DE7F9
:102B00000C00002000000020003801400000C842F6
:102B1000580000205000002070B504016118CCB2AC
:102B2000510009B2012B01D1491C09B20B12054E0B
:102B30008500AA1954709170D37070550249012014
:102B4000087070BD8000002022000020F0B51FB486
:102B500096B084460C460246199D18980390490089
:102B600068006300490840080193002A01D001264B
:102B700000E000269E19FE4BF6185B109E422BD3F8
:102B80006E00039F0296002F00D00127F719F84E20
:102B9000F84BBE199E421FD3039E0346F64F3343A4
:102BA00009D03B469C4201D1002A04D0019B002A57
:102BB00005D0012604E0002039461BB0F0BD0026F8
:102BC0009E19EE4B9E4207D8039F029E002F00D015
:102BD0000127F6199E4207D92B4660462146189ACE
:102BE000FFF739FC1BB0F0BD0023002C29DAE44EBE
:102BF000B04226DAE34EB04201DB022321E0DE4E92
:102C0000B0421EDBE04E070DBE19142E09DD34273D
:102C1000BF1B039EFE400196BE40039FBE420BD0E9
:102C20000FE0039F002F0CD11427BF1B0646FE4068
:102C30000196BE40864204D1019BDE07F60F0223B7
:102C40009B1B0E46164318D1002D16DA002C03D01C
:102C5000022B01D0012B06D00220FEF729FAFFF744
:102C6000EBFB1BB0F0BD0220FEF722FAFFF7E4FBFE
:102C70000122D20751401BB0F0BD039E002E61D14E
:102C8000BF4EB04220D1C148844201D1002A08D0B1
:102C9000B948814209DB002D10DB189829461BB08A
:102CA000F0BD0020B4491BB0F0BD002D06DA0122B2
:102CB0002946D207189851401BB0F0BDB449794459
:102CC000086849681BB0F0BDAB4FB84225D1002D54
:102CD0001FDA002904D0B14212D1002A09D018E02D
:102CE000002A72D1A649E20F0020D20711431BB07F
:102CF000F0BD0020E20F0146D20711431BB0F0BD2A
:102D0000B14206DA234600203946FDF7F9FC1BB034
:102D1000F0BD104621461BB0F0BDB14212DA0126CB
:102D2000B607B54203D1234610461946FEE3994E35
:102D3000B54207D1261E05DB1046314600F004FCE3
:102D40001BB0F0BD67007F081646002A40D100295D
:102D50000AD08B4A914229D1002C0EDD002D1CDBBC
:102D6000002011461BB0F0BD022B16D0002C14D051
:102D7000012B12D1002C14DB0FE0002C28DA002DDF
:102D800009DB012B03D000207D491BB0F0BD0020E2
:102D900081491BB0F0BD012B03D0002001461BB0C0
:102DA000F0BD00200121C9071BB0F0BD724A91425D
:102DB0000ED1002C01DA002B17D0022B06D00020F8
:102DC000C043FDF7E2FE1BB0F0BD90E20120F8E742
:102DD000E217521C94461A4307D000220892664C10
:102DE00062465B1E1A4307D009E00120FEF760F936
:102DF000FFF735FB1BB0F0BD0022644C0892674A18
:102E000090427DDD664B674A98421FDD914202DCAD
:102E1000002D05DB4DE05848814217DB002D48DDD1
:102E20000220FEF745F9FFF723FB05460E46002278
:102E3000534B21460898FDF7B3FE08467100490838
:102E4000C00FC007014328461BB0F0BD914215DA00
:102E5000002D2EDA0220FEF72BF9FFF709FB0546BD
:102E60000E460022464B21460898FDF799FE720057
:102E70005208C80FC0070243114617E03E4B994263
:102E800023DD002D15DD0220FEF712F9FFF7F0FA21
:102E900005460E4600223A4B21460898FDF780FE73
:102EA000084671004908C00FC007014328461BB0FF
:102EB000F0BD0220FEF7FCF8FFF7E4FA49004908EC
:102EC000E20FD20711431BB0F0BD00223046394655
:102ED000FDF7F3FB012205460E46D243FDF784FFC2
:102EE000314A324BFDF7F4FB2A463346FDF758FED4
:102EF0000022284BFDF7ECFB07462A46334600E04C
:102F000064E0039110461946FDF74AFE3A46039BDA
:102F1000FDF746FE0746032209915207244B284637
:102F20003146FDF73DFE07910C90224A204B384672
:102F30000999FDF735FE074601911F4A1F4B2846A8
:102F40003146FDF72DFE3A46019BFDF7B6FB0746DD
:102F50000B460246099107990C98FDF7A1FB002545
:102F60000E462846079B0C9AFDF7A7FB3A4627E03A
:102F7000FFFF1F00FFFF0F000000F03F0000E0FF19
:102F80000000F07F0000404301FCFFFF0000F0BFA5
:102F90003E0D00000000E03F0000F0FF0000E041B7
:102FA0000000F043FFFFEF3F555555555555D53FB0
:102FB0004715F73FFE822B6544DF5DF80BAE543EAC
:102FC000099BFDF785FB02460B4652E101250020D7
:102FD0002D05A94207DA352230463946FDF704FFB0
:102FE00006463420C0430A151218FE4810180390F4
:102FF0000803FD49000B01430F46FC49884201DCF0
:10300000002003E0FA49884202DA0120119005E02D
:10301000002011900398401C7F1B03901198059786
:10302000C200F4480F927844801843680268394619
:1030300030460D930292FDF740FB07910C9030460D
:103040000D9B029A0599FDF72BFB02460B460020CB
:10305000E549FDF755FB09910490079B0C9AFDF794
:103060009FFD129000201090E3480D4678440068C0
:103070000E90012178104907084311990D9B89048E
:1030800040180121C90447183946029A0E98FDF7E5
:1030900014FB3246059BFDF71BFB02460B462946F7
:1030A0001098FDF77DFD064602913B4629460E9A93
:1030B0001098FDF775FD079B0C9AFDF709FB32464A
:1030C000029BFDF7FAFA099B049AFDF769FD059149
:1030D000129A0A902B4610461946FDF761FD0646E6
:1030E0000246C6480F460B4606217844FFF74EF9C4
:1030F00032463B460091049010461946FDF750FDBC
:10310000009B049AFDF74CFD06460F462B461946D8
:10311000129A1098FDF7C4FA059B0A9AFDF740FD34
:1031200032463B46FDF7BCFA109A079104902B46B5
:1031300010461946FDF734FDB14E00223346099181
:103140000290FDF7ADFA079B049AFDF7A9FA00205B
:103150000746024633460091FDF7AFFA099B029AF3
:10316000FDF7ABFA079B049AFDF7B2FA06460D91FC
:103170003A462946009B1098FDF712FD07910C90E6
:103180002B463046129A0D99FDF70AFD05460E466C
:103190003A46009B05990A98FDF702FD33462A46F8
:1031A000FDF77EFA02460B460746099107990C98EF
:1031B000FDF776FA00250E462846079B0C9AFDF788
:1031C0007CFA3A46099BFDF783FA074607220991E4
:1031D00052078C4B31462846FDF7E2FC07910090E0
:1031E000894A884B38460999FDF7DAFC0746019170
:1031F000864A874B31462846FDF7D2FC3A46019B6A
:10320000FDF74EFA834B7B440F9A9B181A685B6854
:10321000FDF746FA029009910398FDF7B6FC059177
:103220000490099B029A07990098FDF739FA7A4BA6
:103230007B440F9A9B181A685B6817460393FDF747
:103240002FFA059B049AFDF72BFA0E462846059B9C
:10325000049AFDF732FA3A46039BFDF72EFA079BD4
:10326000009AFDF72AFA099B029AFDF731FA024605
:103270000B46199900200C900F461898FDF790FC0A
:10328000029104903B460C9A19991898FDF715FA8B
:103290002A463346FDF784FC029B049AFDF700FAA8
:1032A00009910E902A46334639460C98FDF778FC72
:1032B00006460F46099B0E9AFDF7F2F9574A0D464E
:1032C000914220DB5242AA18024310D132463B46BB
:1032D000FDF7F3F904900391514A524B09990E9866
:1032E000FDF7DEF9039B049A00F084F91ED2022058
:1032F000FDF7DEFEFFF7BCF849004908E20FD207F0
:1033000011431BB0F0BD6A00474B52089A420DD3DF
:10331000464AAA18024300D0CBE532463B46FDF7A9
:10332000CCF9099B0E9A00F065F9F5D968000023E5
:1033300040082C490393020D3D4B5218984223DD5F
:1033400001200005521CD04042195000400D401889
:1033500038497944096813468C463749C1408B4344
:1033600012030121120B090551181422101AC14031
:103370000391002D01DA48420390624630463946F7
:10338000FDF79BF906460F4632463B4609990E98D3
:10339000FDF786F900252A46284B28460591FDF7BA
:1033A000FFFB07910C90264A264B28460599FDF70E
:1033B000F7FB0091029032463B4628460599FDF7FF
:1033C0007CF9099B0E9AFDF783F91F4A1F4BFDF705
:1033D000E7FB009B029AFDF763F907460B4602469E
:1033E000099135E001FCFFFF0000F03F8E980300DB
:1033F0007AB60B004E09000090090000BA080000E0
:103400000000084009C7EE3FFD033ADCF5015B14FC
:10341000E02F3EBE8E0700005407000000009040E1
:10342000FE822B654715973C00CC904000346F3FDF
:103430000000E03FAA060000FFFF0F00432EE63F1A
:10344000396CA80C615C20BEEF39FAFE422EE63FD3
:1034500007990C98FDF724F905460E46079B0C9A30
:10346000FDF72BF93A46099BFDF732F909912A46F7
:1034700033460E9010461946FDF792FB074602466A
:103480002F480B46059105217844FEF77FFF3A4609
:10349000059BFDF785FB2A463346FDF719F90746DC
:1034A000019128463146099B0E9AFDF779FB099B4D
:1034B0000E9AFDF7F5F8012304910C9000229B076A
:1034C00038460199FDF7F9F805910E903A462846DD
:1034D0003146019BFDF764FB059B0E9AFDF710F941
:1034E000049B0C9AFDF7E9F82A463346FDF7E5F808
:1034F0000022144BFDF7ECF8064603980D46000534
:1035000041190915002912DC30462946039AFDF7B6
:103510006BFCFEF725FF042801D1FEF7B3FF304610
:103520002946039AFDF760FC064601E004E02918ED
:103530000B46324621460898FDF732FB1BB0F0BD22
:103540004C0500000000F03FF8B506460C46FDF7BC
:10355000FDFD051E0F4600D00120014349000B4828
:103560004908411AC90F0DD0002E01D0012100E0F9
:1035700000210C4361004908401AC00F02D101200C
:10358000FDF796FD28463946F8BD00000000F07FA3
:1035900070B501250C002D051C4310D4EC4206D457
:1035A000AC420AD4994200D070BD904270BDE9424D
:1035B00017D4EB4215D4994270BD894270BDEC42DC
:1035C00006D5AC42F9D58B4200D070BD824270BDA9
:1035D0006D004C00EC4204D25C00EC4201D28B4204
:1035E00070BD034C30B4FDF769FD30BC70BD00BF49
:1035F0001900120470B501251C002D050C4310D4D0
:10360000EC4206D4AC420AD48B4200D070BD824258
:1036100070BDEB4217D4E94215D48B4270BD9B427A
:1036200070BDEC4206D5AC42F9D5994200D070BDD0
:10363000904270BD6D005C00EC4204D24C00EC4244
:1036400001D2994270BD0FB4034C0CBC03BC30B422
:10365000FDF734FD30BC70BD1900160470B50125AE
:103660000400ED074C4020D4441A01D2001B091974
:10367000C60D4B00F2B2FF2A29D01B0E2CD000023F
:103680000C02D31A2C43DC402843051910D2280A17
:1036900002D3401C6D0611D0761EF6058019FF2A54
:1036A00000DA70BDC00DC00570BD694000F086F83D
:1036B00001200543C541521C761CE8E764089C4084
:1036C000C90161408900E7D10124A043E4E71B0E52
:1036D000440200D0034870BD002AFCD1C00FC007CF
:1036E00070BD00BF0000C07F70B5420064414B0058
:1036F0005C41120E39D01B0E38D0FF2A3CD0FF2B74
:103700003AD040024902400A490A060045184E4391
:10371000000A090AD2184843ED017F3A0104731ADE
:103720004019190C4318990F04D001215B0849076F
:103730005B1A521CD80904D3401CF50301D19D0625
:1037400007D0FF2A08D2D50506D0E4072043401948
:1037500070BD0125A843F4E7002A01DCE00770BD35
:103760002402FF202043C00570BD1B0EFF2A03D09A
:10377000FF2B01D0E00770BDFF2645003606B5429D
:1037800006D84D00B54203D8D218FF2A00D0E7E78B
:10379000004870BD0000C07F70B50125ED0768408E
:1037A00004004C4002D5694000F008F8FFF75CFFC8
:1037B00070B501250400ED074C4022D4441A02D212
:1037C0006C40001B0919C60D4B00F2B2FF2A4BD00A
:1037D0001B0E50D000020C02D31A2C43DC40A8432D
:1037E000051B05D5AD0019D36D08761E521E37D0C6
:1037F000F605280A01D2801970BD70416D0603D00C
:1038000070BD6940FFF730FF9C40090261404900EC
:1038100001D0401E70BD0124A04370BD6D081DD0B5
:1038200001202B0C01D12D0410302B0E01D12D02C3
:1038300008302B0F01D12D01001DAB0F01D1AD00C0
:10384000801CEB0F01D16D00401C6D00361A121A5E
:10385000680AF5054019012A02DB70BD002070BD21
:10386000C036300AC00770BD1B0E440201D1FF2BC9
:1038700000D1024870BD002AF0D070BD0000C07FAA
:1038800080807F7E7D7C7B7A79787776767574739D
:10389000727171706F6E6E6D6C6C6B6A6A6968685C
:1038A000676666656464636362616160605F5F5EF2
:1038B0005E5D5D5C5C5B5B5A5A5959585857575668
:1038C00056555555545453535252525151505050CD
:1038D0004F4F4F4E4E4D4D4D4C4C4C4B4B4B4A4A1F
:1038E0004A49494948484847474747464646454563
:1038F000454444444443434343424242424141419C
:103900008182838485868788898B8C8D8E8F919226
:1039100093959697999A9C9D9FA0A2A3A5A7A8AAC4
:10392000ACAEB0B2B3B5B7B9BCBEC0C2C5C7C9CCE6
:10393000CED1D4D7D9DCDFE2E6E9ECF0F3F7FAFE3A
:1039400004FA97999999D93FAF788E1DC571CC3FEC
:103950009FC678D0099AC33F935555555555E53FB5
:10396000599322942449D23FDE03CB966446C73F45
:1039700044523EDF12F1C23F000000000000F03F61
:10398000000000000000F83F000000000000000000
:103990000000004003B8E23F00000000000000000B
:1039A00006D0CF43EBFD4C3E033333333333E33F99
:1039B000FFAB6FDBB66DDB3F4D268F515555D53FC5
:1039C00001411DA96074D13F65DBC9934A86CD3F93
:1039D000EF4E454A287ECA3F3E5555555555C53F81
:1039E00093BDBE166CC166BF2CDE25AF6A56113F73
:1039F000F16BD2C541BDBBBED0A4BE726937663E75
:103A00000000000000000000283A0008000000202C
:103A100080000000F8000008A83A0008800000209C
:103A2000D0060000140100080000000000000000A3
:103A30000000000000000000000102030401020376
:103A40000406070809000000000000000000000054
:103A50000000000000000000000000000000000066
:103A6000000000000000000080E6C54700000000E4
:103A70000000C8420000000000000000000000003C
:103A80000000000000000000000000000000000036
:103A90000000000000000000000000000000000026
:083AA00000000000000000001E
:04000005080000B53A
:00000001FF
