:020000040800F2
:100000001808002059010008891E0008791B000803
:1000100000000000000000000000000000000000E0
:10002000000000000000000000000000E31E0008C7
:1000300000000000000000008B1E0008BD1F00082B
:1000400089010008000000008901000889010008FA
:100050008901000889010008890100088901000858
:1000600000000000890100088901000889010008DA
:1000700089010008890100088901000800000000CA
:10008000890100080000000000000000890100084C
:100090008901000889010008890100088901000818
:1000A0008901000889010008890100083D20000835
:1000B0008901000800F002F800F03EF80CA030C8FA
:1000C000083824182D18A246671EAB4654465D46D4
:1000D000AC4201D100F030F87E460F3E0FCCB64660
:1000E0000126334200D0FB1AA246AB4633431847E1
:1000F000C0300000E0300000103A02D378C878C168
:10010000FAD8520701D330C830C101D504680C6059
:10011000704700000023002400250026103A01D378
:1001200078C1FBD8520700D330C100D50B607047AF
:100130001FB51FBD10B510BD01F084F81146FFF7C3
:10014000F7FF02F043F901F09CF803B4FFF7F2FF68
:1001500003BC01F0CDF800000F4880F308880F4879
:100160000168090E0E4A914205D10E480E49016000
:100170000E480F4901600F4880470F480047FEE7CF
:10018000FEE7FEE7FEE7FEE7FEE700000B480C494E
:100190000C4A0D4B704700001808002004000000B6
:1001A0001F00000018100240010000000000014084
:1001B00000000000C11F0008B50000081802002060
:1001C0001808002018040020180400200022030949
:1001D0008B422CD3030A8B4211D300239C464EE062
:1001E00003460B433CD4002243088B4231D303091E
:1001F0008B421CD3030A8B4201D394463FE0C309D0
:100200008B4201D3CB01C01A524183098B4201D3E7
:100210008B01C01A524143098B4201D34B01C01AD2
:10022000524103098B4201D30B01C01A5241C3084A
:100230008B4201D3CB00C01A524183088B4201D3B9
:100240008B00C01A524143088B4201D34B00C01AA5
:100250005241411A00D201465241104670475DE0BA
:10026000CA0F00D04942031000D34042534000223D
:100270009C4603098B422DD3030A8B4212D3FC22E6
:10028000890112BA030A8B420CD3890192118B4265
:1002900008D3890192118B4204D389013AD092117B
:1002A00000E08909C3098B4201D3CB01C01A524136
:1002B00083098B4201D38B01C01A524143098B42FF
:1002C00001D34B01C01A524103098B4201D30B01E8
:1002D000C01A5241C3088B4201D3CB00C01A52410D
:1002E00083088B4201D38B00C01A5241D9D24308F4
:1002F0008B4201D34B00C01A5241411A00D2014631
:10030000634652415B10104601D34042002B00D59A
:100310004942704763465B1000D3404201B500205C
:10032000C046C04602BD704770477047F0B50C46E6
:10033000871A9C410D46861A9D4103D2C01BA141DC
:10034000D21963410D0D1F0DC94EEC1BAE435CD09D
:100350007F057F0D0026002F51D02D05AC46A94307
:10036000DD020123ED0A1B051D4320231B1B24D4A2
:100370001746E740381871412F46E740CC199D4099
:100380002818314661410C0D27D161449A4013D59C
:100390000023401C594152000ED140084000012268
:1003A0004B005205D34207D305204007C14201D577
:1003B000B04900E0B0493046F0BD6B00002A00D0E3
:1003C00001229A181F23203C1B1B01D5002302E0A9
:1003D000E540281871410C0DD7D0012424050919D6
:1003E000C407CD0740084908E40F28436144002CA6
:1003F000D5D00024401C61419A40D0D1CDE76A0598
:10040000520DD9D1C90FC907D5E79C4D4E00002820
:1004100001D0012400E0002434195F00002A01D03B
:10042000012600E00026BE19954FAC420CD8AE4222
:100430000AD8B44206D001256D05EC42BCD0104666
:100440001946F0BD9942FCD000203946F0BDF0B508
:100450001FB40C460F46811A9F412546861A9D41BE
:1004600006D20125ED076F40401ABC4152187B416E
:10047000210D1E0D8D1BAC467D4D8D437ED0750527
:100480006D0D7CD00D05AE46AC431B031B0B794DA7
:1004900052429D41202366469B1B14D31746F740CA
:1004A000381800260090744160462F460741E41931
:1004B00000989D402818664116D4714671189A40DC
:1004C00025D5012320E093182A466A415200002BCB
:1004D00000D0521C1E23203E9B1B002B61DD3541AA
:1004E000EE1728186641E8D5001876415B1C9A4043
:1004F00000D3401C4B05F3181524E34010D3002B08
:1005000052D071467118D30FC01802D3491C05B0E0
:10051000F0BD0123DB079A42F9D140084000F6E71D
:1005200001225205B21801D1002853D00123CC0A70
:10053000DB029943891E002A08D1020C03D0020C69
:100540000004103902E00246002020390023550B38
:1005500005D112020823550B01D152010D23550C70
:1005600001D112011B1DD50C01D192009B1C150D50
:1005700001D152005B1C2025EE1A01E02CE022E0A4
:100580000546F54015439840CA1AE1076918130556
:10059000C918002ABBDA032040070818C10FC90791
:1005A0000FE071466118B2E7F10740080843711087
:1005B00071444A000CD001235B059A42A7D2C90FAF
:1005C000C9070020A3E74905490D26D1002001E015
:1005D0000028F4D100219AE7284D6600002801D0B8
:1005E000012100E0002171185F00002A01D00126DE
:1005F00000E00026BE19224FA94210D8AE420ED804
:10060000B14208D001256D05E94206D01946A8027D
:10061000414010467BE79C4201D0214677E700200D
:10062000394674E710B50C465C4005D50124E40753
:100630006340FFF70CFF10BDFFF778FE10BD30B42C
:100640000C465C4004D50124E407634030BC6DE6F1
:1006500030BCFCE670B50124E40761400D465D4006
:1006600002D4FFF763FE70BD6340FFF7F0FE70BD7C
:10067000FF0700000000F0FF0000F07F0000E0FF37
:100680000000F87FF0B5F94D0C091E092C402E40F2
:100690002F468BB0A7437DD0B543FCD0002E7AD037
:1006A000002CFCD00D465D40ED0F2543AC1BFF2513
:1006B000AD0464190894C502440DC9022143500DCC
:1006C000DC0204430120C00701430443D20201912C
:1006D000200C110C00958C46010423468B430A9193
:1006E00061460904E24D8A430991010A7D44491992
:1006F0008039097805464D4301266D18F605751BAE
:100700006943C90C640B891C4C436418B5012C1B4C
:10071000250C2E04B4434C434D43210C6918890920
:100720000591009DE90701D00121C90704912C46DC
:1007300001996708CD072F434C08059DE10B4D43F8
:100740002D0C29466646754302950D4645432E46B7
:10075000029D7D1BB44100950D465D4301942C0C18
:100760002F040D465543AE462D0C3D430295039490
:100770007546049C2D04641B049406D2029C039DC0
:10078000641C002675410395029401AC70CC009F57
:100790007D1B01E03EE162E1B4410904009507914F
:1007A00001940599A4086143090C0C464443650B68
:1007B000E7040C4666467443A646640B3C43039527
:1007C00002947446049DE4042C1B049406D2029CFB
:1007D000039D641C002675410395029401AC70CC06
:1007E000009F7D1BB44101940C465C430095650F4E
:1007F000E7000C465443A646640F3C43039502941D
:100800007446049DE4002C1B049406D2029C039DB4
:10081000641C002675410395029401AC70CC009FC6
:100820007D1BB441AE09AF06049DC900AD092F433D
:10083000049DA406AD060495079D344369180791ED
:10084000059DE10B4D432D0C2946664675430295E7
:100850000D4645432E46029D7D1BB44100950D4635
:100860005D4301942C0C2F040D465543AE462D0CD0
:100870003D43029503947546049C2D04641B049427
:1008800006D2029C039D641C0026754103950294C8
:1008900001AC70CC009F7D1BB44101948C05069483
:1008A000079C890A611800950791019C0599A40885
:1008B0006143090C0D464543680BEF040D46644641
:1008C00065436C0B3C43049FED047D1BAC4602D298
:1008D0000025641C6841009E019D371B8541084628
:1008E000584301950C46460FC5005443600F2843FA
:1008F0006546E4002C1B02D20025401C6E41019D80
:100900003F1AB5412846BD09800628438446A00900
:10091000BF064E020699A40676180743079D0020DD
:1009200068410A99079019430020099B009060468E
:10093000FF1913434041E20F64003A43A4460446C2
:10094000D71A8C41A04203D90120009020463A4694
:10095000C70F941840416246D20F22436446640098
:100960000494009CBE466400D71AA446044602972D
:100970008C417746002F01D1A04204D96046401C2B
:100980008446029A2046C40FA64694184041049A11
:100990000546D20F224364466400D31A8D41714646
:1009A000002901D1A84202D928461A46641C1043E6
:1009B0000122002800D0164361020020079B8919FC
:1009C00004465C410223002C02DB491813466441B3
:1009D000089DCE0A2D145D194B056705E10A2C050B
:1009E0000D1908993E43C9076940002B08D0934070
:1009F00006D30022761C5141002B01D176087600E7
:100A00001C4A002D43DB154241D0AA433FD030465B
:100A10000BB0F0BD06180D464D41174C7642AC4167
:100A20001AD395181C465C41134A6D42A24113D358
:100A3000012252054C00D4420AD15C00D4420BD0B2
:100A40004B4002D592021143E2E749004908DFE733
:100A50005940C90FC90718E000200849D8E70548E0
:100A600001420DD10342F7D0F2E700000000FF077A
:100A70006C2900000000F07F0000E0FF0000F87F1C
:100A8000114859400143C01241400020C0E70123F2
:100A9000089A9B069A4205DC032252078918C90F5F
:100AA000C907B5E7052252078918074A1143D21230
:100AB0005140ADE770B515461C4602460B46284628
:100AC0002146FFF7DFFD70BDFFFFFF7F30B5034616
:100AD000CA02400D1043164D164C0A1502D0204391
:100AE000002A06DBAA1A002A12DDD040FF2A0BDCFE
:100AF00030BD5205520D01D140004008AA1A07D45A
:100B0000D0404042FF2A01DD002030BD0028FCDD3E
:100B10004A00002B01D0012000E000201018012223
:100B20005205D042F0D8C817C043604030BD000025
:100B30001E040000000000801F22030C02D10F22BF
:100B4000000402D0030E03D004E0002001467047E9
:100B50000002083A030F01D10001121F830F01D1D7
:100B60008000921E002801DB4000521E1205511821
:100B70004205C012411810467047C10FC90700D086
:100B80004042012292071143D6E701218907D3E7AA
:100B9000F0B58B4C0F09254689B0BD437BD01D09AC
:100BA0002646AE43FAD00E465E402740F60F3E433F
:100BB000254071D024012142FBD0FF24AD19A404AB
:100BC0002D1B039501252D05DB02DB0AC9022B43F2
:100BD000C90A29431E010901040F130F050121430E
:100BE0001701880B820391432D098C46A90B1E43E4
:100BF0008A039543B30B9A0396433F09BA0B9403B8
:100C0000A74302962E467E430497B6464E19D7193F
:100C10000C460196544305977E43371B7646BF1B0F
:100C20003601B646BE0B361900967646BC04371917
:100C3000009C01D3641C00946400002F01D00126A5
:100C40003443029E049F754366467E4304967600B5
:100C500034196E0034190094029C019E1C196643DD
:100C6000751BAE46069465464519059C05956C4373
:100C7000594375460891691A0191049E01465143F2
:100C8000A41B0491611A009C0791E10605D061093B
:100C90000122114302E072E06EE06109089D002725
:100CA0002C0A2D066918049D7C412A0A2D06691814
:100CB000019D6241AC0DAD026D185441079A910D32
:100CC000920255196141029A644658435443069B67
:100CD000059A5A43121A131B9A0E9B015B187A410C
:100CE000010B0005C3185141220A200644195A413C
:100CF0009A4200D2491C01204002814203D31523AD
:100D00000226F64302E014230326F6432020C51AE8
:100D1000A9401746AF40DA400A4320460399D8401D
:100D20000914731819055118039A3843D207514012
:100D3000AC4009D00122944006D30022401C51410E
:100D4000002C01D1400840001E4A934212D30122D8
:100D500003989206904207DB0520400709181A48BD
:100D60000143C012414004E0032040070818C10FAE
:100D7000C907002009B0F0BD0020F107FAE7051807
:100D80000C464C4111486D42A04115D394181A46A7
:100D90005A410E48644290410ED301204A0040055A
:100DA000824209D35A00824206D35940C90F084AE9
:100DB000C90700201143DDE700200649DAE70000FB
:100DC0000000FF07FE070000FFFFFF7F0000E0FFBD
:100DD0000000F07F0000F87F0121C90501234118C0
:100DE00042001B06D3185B0E0AD0C1100722D206A0
:100DF000891840075242D14201D5520089187047E4
:100E0000090208D50146002A03D0C10FC9070020F6
:100E1000704710467047420202D0002002497047D6
:100E2000072109050143F4E70000F87FF0B5FF252D
:100E30002D04C609C209FF2704462E400137CB09FD
:100E40003E4348402A402B400746002A6BD0002BE7
:100E500069D0AA4267D0AB4265D0002800DA32469A
:100E60000125ED0529432C4309022002090AD21A63
:100E70004B0C7F24E31A434C000A7C44E35C7D2442
:100E80002404121914145B00A218884201D3521CC6
:100E900000E0400049420C465C4324115C43DB0106
:100EA0006415E318040A5C43C502200D0C46444354
:100EB0006419250A5D432303EC0C0D4665430003CA
:100EC0000019EB184C42A34201D35B18401CD40517
:100ED0002018002B07D05B00C91804D3401C002940
:100EE00001D1400840003F2189048A4209D3002AE9
:100EF00008DC1106090F04D0032149074018C00F70
:100F0000C007F0BD01224100120689187F22520657
:100F10009142F6D205214907C84201D59010F0BD93
:100F2000FF20C005F0BD002F00DA32461648AA4265
:100F300007D2AB4205D21902090E17D0F80FC0072D
:100F4000F0BDFF2563002D06AB42F9D84900A94248
:100F5000F6D8AB4201D1A942F2D0A94201D1002179
:100F600001E061004908D0050843F0BD1102090EF7
:100F7000FBD0FF200243D005F0BD0A4601461046D3
:100F800054E700005E2200000000C07F1F22030C17
:100F900002D10F2200041CD0030E01D10002083A36
:100FA000030F01D10001121F830F01D18000921E97
:100FB000002801DB4000521ED205511802125118C0
:100FC0001922904004D3491C002801D14908490046
:100FD00008467047C10FC90700D04042012292075E
:100FE0001143D3E701218907D0E710B500F000F9DC
:100FF000006810BD10B5044600F0FAF8046010BD9A
:10100000F8B5224C4E00069DA6420AD8A64201D150
:10101000002806D15E00A64203D8A6420AD1002AC3
:1010200008D00D24240425422CD02946002000F0AD
:10103000E3F8F8BD0C461C430CD4994202D0EFF300
:101040000080F8BD904202D0EFF30080F8BDEFF3CE
:101050000080F8BD09242407E5008B4206D0EFF399
:101060000080A043591A06D2284304E0101A05D381
:10107000EFF30080A04380F30088F8BDEFF3008019
:10108000A043F1E7009500F0CFF8F8BD0000E0FFC5
:1010900070B505464800440D124B0020002C0AD0C4
:1010A000634008D09A4206DA6642B24203DD120576
:1010B0004019514170BD002C08D0002B09D0C90F38
:1010C000C907002AF6DB084A114370BDC90FC907DA
:1010D00070BD28460A03104302D00020034970BDAA
:1010E000284670BDFF0700000000F07F0000F87F79
:1010F000F0B53D4B02460C461C400020002C63D04E
:101100003A4D8B4366D000296BDB0B0D1D05A943BF
:1011100001252D0529430124FD33E34001D3921815
:101120004941FF3381339C468B02940D01212343B7
:1011300089074C42920200271B198C105D1A04D4B7
:101140002D1B02D42B466500491992185B41640897
:10115000F4D15C1A08D40125ED07EE175519744136
:1011600002D42A462346491C94185B410122920767
:101170001D46E61B8D4106D4B61A854103D42B4685
:10118000550034467F1924195B415208802AEFD15B
:10119000234300D0022338460A22D04001D3012243
:1011A00013438A0510436246890A12058918002BE9
:1011B00009D00122D34002D30022401C5141002B10
:1011C00001D140084000F0BD0B03134307D0C90F05
:1011D000C907F0BD0803104303D1002901DB104605
:1011E000F0BD00202946F0BD0000F07F0000F87F30
:1011F00000487047B4010020C80212D54803400FD0
:10120000002804D0C803C043012188407047EFF391
:1012100000800001000903210907084380F30088CA
:10122000704700207047000010B500200249029A64
:1012300000F02FF810BD00000000F87F0048704754
:10124000B40100207546FFF7F9FFAE460500694678
:101250005346C008C000854618B020B5FEF796FF7B
:1012600060BC00274908B6460026C0C5C0C5C0C539
:10127000C0C5C0C5C0C5C0C5C0C5403D49008D463C
:10128000704710B50446C046C0462046FEF75DFFD5
:1012900010BD10B50C461107090F092904D00A2901
:1012A0000AD008290CD104E011460820FFF7A4FF5A
:1012B00006E0510606D501E0510601D50120C00720
:1012C000214610BDD10607D501010909CC084907FF
:1012D000000E0006044309E0410F20024907000AFE
:1012E0000143200E00061D22D14101430846E7E7D5
:1012F00001491820ABBEFEE726000200704710B57A
:1013000010210920C00600F004FC012800D110BD06
:101310000020FCE708B5024604480260684600F079
:1013200059FA03490098086008BD00003800002001
:101330003400002010B524480078012806D0022887
:101340000CD003281DD0042837D126E02E21F4200C
:1013500000F078FB02201C49087032E0FFF7CFFF55
:1013600000280DD0002000F0F9F80021174800F007
:101370007BFA1648006800F0EBFA03201249087067
:101380001FE01348007880013430C1B2F42000F02F
:1013900059FB04200C49087013E0FFF7B0FF002848
:1013A0000AD000210B4800F015F90A48006800F047
:1013B00079FA01200449087003E00120024908700D
:1013C00000BF00BF10BD00003C0000204000002016
:1013D000280000204800002030B58BB005460C46A0
:1013E000002C0DD0204600F0B9F84F48007880015D
:1013F0003430C1B2F42000F025FB1E2000F090FF35
:101400004A4A0321F62000F0CDFA4848007800044B
:1014100046494978090208434449897808434249C2
:1014200009780822511A08410A90414800687D2134
:101430004901401A05900598404300133D49002298
:101440008A5E5043C01209903B490020085E05990E
:101450004843C012089008990998401807903748E7
:101460000021415E019101988000079940182E49A2
:101470000978884001900198801C801006903049BE
:101480000020085E059948434013099005984043A1
:1014900000132C4900228A5E5043001408900899DA
:1014A00009984018801C8010079027480088012266
:1014B000D203079989184843C00B039006990A98EC
:1014C000401A19490A7821491141484302900121E3
:1014D000C9070298884206D2029948000399FEF78C
:1014E00075FE049005E003990298FEF779FE40002E
:1014F0000490049800120499091248430990144971
:10150000099848430014099012490498484300146C
:1015100008900899099840180F494018001104993B
:10152000401828600BB030BD2800002024000020A7
:1015300020000020100000200A00002008000020E9
:101540000C0000200E0000201800002050C30000F6
:10155000DE0B000043E3FFFFCF0E0000FEB50646A2
:10156000002E06D02E21F42000F06CFA0A2000F0A4
:10157000D7FE124A0221F62000F014FA0F48007834
:1015800007020E4949780F430D480088381A0D4963
:1015900009884843C4130C480022825E01920B481C
:1015A0000022825E0092009AA118019AD002FEF7F2
:1015B00017FE0546601906490860FEBD240000209C
:1015C0001C0000201A00002014000020160000203B
:1015D00020000020F3B58DB004460CA80E99FFF74B
:1015E000FBFE0C9800F088F91A4800680C901A4825
:1015F0000068FFF7C2FA0991089018480068FFF7E1
:10160000E9FC01900C98FFF7E5FC00900199FFF7C9
:101610000DFC0746FFF7E0FB0546114A114B00F0B1
:101620000DFF0022104B03910290FFF713F80022E8
:101630000E4B05910490FFF7ABFA07910690099BBA
:10164000089AFEF7EFFF0B910A90FFF73FFA206030
:101650000FB0F0BD440000202C000020340000201A
:10166000EBE2361AC05BC83F0000F03F1AE9504178
:1016700010B54C4A0221AA2000F094F9494800789C
:10168000000248494978084300B247490880454A62
:101690000221AC2000F086F942480078000241495E
:1016A0004978084300B2414908803E4A0221AE20F1
:1016B00000F078F93B48007800023A49497808433D
:1016C00000B23B490880374A0221B02000F06AF995
:1016D0003448007800023349497808433549088086
:1016E000304A0221B22000F05DF92E480078000255
:1016F0002C4949780843304908802A4A0221B420FD
:1017000000F050F92748007800022649497808433C
:101710002A490880234A0221B62000F043F92148D3
:10172000007800021F494978084300B22449088024
:101730001C4A0221B82000F035F91A48007800024E
:1017400018494978084300B21E490880154A022109
:10175000BA2000F027F913480078000211494978AF
:10176000084300B2184908800E4A0221BC2000F04C
:1017700019F90C48007800020A494978084300B278
:1017800012490880074A0221BE2000F00BF90548E3
:101790000078000203494978084300B20C490880E8
:1017A00010BD000024000020080000200A000020D6
:1017B0000C000020180000201A0000201C0000204F
:1017C0000E00002010000020120000201400002055
:1017D000160000200149096801607047440000209C
:1017E000F3B58DB004460CA80E99FFF7F5FD194826
:1017F0000068FFF7C2F90991089017480068FFF7E1
:10180000E9FB16490090FFF711FB7F21C905019004
:1018100001F0B0FB0746FFF7DFFA0546104A114B0F
:1018200000F00CFE059104900C98FFF7A6F90391C7
:101830000290059B049AFEF725FF07910690099BED
:10184000089AFEF7EFFE0B910A90FFF73FF9206030
:101850000FB0F0BD3000002038000020D048874A8B
:1018600085EB51B81E05154070B504460D46284657
:10187000FFF774FE0248006808300011206070BD58
:101880002000002010B500200449086004490860C9
:1018900001220021032000F0DEF810BD2C00002002
:1018A0003000002070B505460026012408E0A000A5
:1018B0000F490958601E80000D4A1150601CC4B2C7
:1018C000142CF4DB0A48C5640026002405E0A000BF
:1018D000074908588619601CC4B2142CF7DB142180
:1018E0003046FEF77DFC024908650249086070BD7C
:1018F000B00000204800002070B5054600260124F5
:1019000008E0A10010484158601E82000E48815036
:10191000601CC4B20A2CF4DB0B482C380565002689
:10192000002405E0A100084840588619601CC4B294
:101930000A2CF7DB0A213046FEF752FC02492C390B
:1019400048650249086070BD840000204400002002
:1019500070B505460026012408E0A0000F4909588B
:10196000601E80000D4A1150601CC4B20A2CF4DBCA
:101970000A4845620026002405E0A00007490858EF
:101980008619601CC4B20A2CF7DB0A213046FEF728
:1019900027FC024988620249086070BD5800002097
:1019A0004000002070B504460D46164633462A46D0
:1019B0002146EE2000F00BFA70BD000038B5044659
:1019C0000448046001216846FFF70AFF02490098B5
:1019D000086038BD380000203400002038B50446C7
:1019E0000448046001216846FFF7F4FD02490098AD
:1019F000086038BD3400002038000020014908800C
:101A000070470000280000200A4800680A49096859
:101A1000884203DA084800680649086006480068FA
:101A20000449486005480068886005480068C86047
:101A30007047000004010020480000204000002002
:101A40004400002070B504460D462A462146EE208B
:101A500000F0EEF970BD70B506460C461546FFF76E
:101A600007FE0120FFF77AFD3046FFF7C7FF002D84
:101A700003DD2046FFF7A2FF02E02046FFF7AEFF9E
:101A800070BDF0B50A4600210023002400BF3DE0F0
:101A900001258D402B4615681D402C469C4234D1B3
:101AA0001579012D02D01579022D16D185684F00C8
:101AB0000326BE40B543856055794E00B540866823
:101AC00035438560858801268E40B54385808588AD
:101AD00096798E40B6B23543858005684F0003265F
:101AE000BE40B543056015794E00B54006683543E4
:101AF0000560C5684F000326BE40B543C560D57973
:101B00004E00B540C6683543C560491C1029BFD397
:101B1000F0BD02460020138A0B40002B01D00120AB
:101B200000E0002070470185704781617047000028
:101B300010B504462146054800F01BFB00BF80217C
:101B4000024800F0BFFA0028F9D010BD003801406B
:101B500070B50546002400BF08E0A900054A8918B1
:101B6000491C085DFFF7E4FF601CC4B2032CF4DBE2
:101B700070BD00001401002000BFFEE710B5082171
:101B80000920C006FFF7CFFF00F09EF910210920C1
:101B9000C006FFF7C8FF022000F0E2FB0821092081
:101BA000C006FFF7C2FF022000F0DAFB082109207F
:101BB000C006FFF7B8FF10BD1CB50121480400F0B6
:101BC00065F91020009001216846017103214171DF
:101BD00001218171C17169460920C006FFF751FFDB
:101BE0000820009001216846017169460920C0065D
:101BF000FFF747FF1CBD10B508210920C006FFF7FD
:101C000092FF00F061F910210920C006FFF78DFF57
:101C1000022000F0A5FB08210920C006FFF785FF80
:101C2000022000F09DFB08210920C006FFF77BFF82
:101C300010BD70B50546002400F038F900261CE000
:101C400008210920C006FFF76EFF022000F088FB84
:101C500008210920C006FFF768FF6006040E102166
:101C60000920C006FFF755FF002801D0601CC4B250
:101C7000022000F075FB701CC6B2082EE0DB002DC0
:101C800002D0FFF77BFF01E0FFF7B5FF204670BDF4
:101C900070B5044600F018F908210920C006FFF7C6
:101CA00042FF002526E080202040C611002E05D1ED
:101CB00010210920C006FFF736FF04E0102109209B
:101CC000C006FFF732FF6006040E022000F048FB5A
:101CD00008210920C006FFF728FF022000F040FB82
:101CE00008210920C006FFF71EFF022000F038FB84
:101CF000681CC5B2082DD6DB70BD10B500F0E4F845
:101D000010210920C006FFF710FF08210920C00696
:101D1000FFF70BFF042000F023FB10210920C00671
:101D2000FFF701FF042000F01BFB08210920C0067B
:101D3000FFF7F9FE10BD10B500F0C6F80821092024
:101D4000C006FFF7F0FE10210920C006FFF7EBFEEA
:101D5000042000F005FB08210920C006FFF7E5FE7E
:101D600010210920C006FFF7E0FE042000F0F8FA79
:101D700010BD10B5002400F099F810210920C0060C
:101D8000FFF7D3FE012000F0EBFA08210920C0067E
:101D9000FFF7CBFE012000F0E3FA0AE0601CC4B2BA
:101DA000322C03DDFFF7C7FF012010BD012000F03A
:101DB000D7FA10210920C006FFF7ABFE0028EDD1AD
:101DC00008210920C006FFF7AEFE0020EDE7FFB5B1
:101DD00081B0074615461E460024FFF78EFF3846A1
:101DE000FFF756FFFFF7C5FF0298FFF751FFFFF718
:101DF000C0FFFFF782FF791CC8B2FFF749FFFFF76A
:101E0000B8FF00BF0DE0681EA04204D00120FFF71C
:101E100010FF305503E00020FFF70BFF3055601C2A
:101E2000C4B2AC42EFDBFFF786FF204605B0F0BD41
:101E300037B504460D4602AB01222946204600F084
:101E400001F83EBDFFB581B00D4616461F46002481
:101E5000FFF753FF0198FFF71BFFFFF78AFF2846A4
:101E6000FFF716FFFFF785FF00BF06E0385DFFF7BD
:101E70000FFFFFF77EFF601CC4B2B442F6DBFFF732
:101E80005AFF012005B0F0BD70477047002905D00A
:101E9000054A52690243044B5A6104E0024A5269FE
:101EA0008243014B5A617047001002401CB510205C
:101EB00000900021684601710121C1716946092025
:101EC000C006FFF7DEFD1CBD1CB5102000900121EF
:101ED00068460171C17169460920C006FFF7D1FD4E
:101EE0001CBD70470CB5002001900090314800687F
:101EF0000121090408432F49086000BF2D480068EC
:101F000001214904084000900198401C019000986C
:101F1000002804D10521090301988842EED1254803
:101F20000068012149040840002802D001200090E7
:101F300001E0002000900098012839D111201E49AD
:101F400008601C4840681B49486008464068486073
:101F5000084640687F21C9038843164948600846FF
:101F60004068112109040843124948600846006886
:101F70000121090608430F49086000BF0D480068A9
:101F80000121490608400028F8D00A484068800826
:101F90008000084948600846406802210843054916
:101FA000486000BF034840680C2108400828F9D168
:101FB0000CBD0000001002400020024070470000ED
:101FC00010B51B48006801210843194908600846FC
:101FD0004068184908401649486008460068164994
:101FE00008401349086008460068012189048843B5
:101FF0000F490860084640683F21090488430C499E
:1020000048600846C06A00090001C8620846006BC3
:10201000FF2154318843064908630846406B400855
:102020004000486300208860FFF75CFF10BD00009F
:10203000001002400CB8FF08FFFFF6FE10B51B4968
:102040001B4800F049F800282FD0194800F08CF800
:1020500018490870084600780F2822DC16480078D6
:1020600001281ED10846007880001449085C1149F7
:102070000978884215D100220C490D4800F053F828
:102080007D20C00000F06CF90A480078FFF760FD81
:1020900000200949087001220449054800F043F86E
:1020A00003E0044800780649087010BD05010500EA
:1020B00000380140020000204C00002014010020E4
:1020C0000300002002460020D3690B40002B01D002
:1020D000012000E00020704770B502460B46002446
:1020E0000021002500201E04350ED9B201268E40A5
:1020F0003146012D02D11668314006E0022D02D191
:102100005668314001E0966831401C0C0126A6401B
:102110003446D6693440002903D0002C01D0012078
:1021200000E0002070BDF8B50346002400260096AC
:102130000025002018460E04340ECEB2009601276A
:10214000009EB7403D46022C01D1001D02E0032C49
:1021500000D10830002A03D006682E43066002E052
:102160000668AE430660F8BD0146888CC005C00D08
:102170007047CA05D20D0285704700004900CA02A7
:102180000243100000D004204A0D01D00122104368
:10219000044A490D914201D102210843012800D18E
:1021A00005207047FF070000F8B504464F1EC80021
:1021B0000838211815461E46086849683A4606231D
:1021C0009A4310D02A463346FEF7E2FC3A46D20044
:1021D000083AA3181A687F1E5B68FEF723FA0622E6
:1021E0003B469343EED1022F23D0042F11D0062F6C
:1021F0002FD12A463346FEF7CBFCE36AA26AFEF7EC
:1022000011FA2A463346FEF7C3FC636A226AFEF7D8
:1022100009FA2A463346FEF7BBFCE369A269FEF7DA
:1022200001FA2A463346FEF7B3FC63692269FEF7DA
:10223000F9F92A463346FEF7ABFCE368A268FEF7DD
:10224000F1F92A463346FEF7A3FC63682268FEF7DD
:10225000E9F9F8BD002210B5134610460149FEF712
:1022600011FA10BD0000F03F10B5FEF7DBF910BD0C
:10227000002210B5134610461146FEF703FA10BDB2
:1022800010B50721024A00200907FEF701FF10BD23
:1022900001030000034A10B500201107FEF7F8FE05
:1022A00010BD000001FDFFFF1CB501214804FFF730
:1022B000EDFD062000900121684601710321417166
:1022C00000218171C17169460920C006FFF7D9FB61
:1022D00002210920C006FFF728FC04210920C006BE
:1022E000FFF721FC1CBD00000A4909690422914343
:1022F000084A1161C217520F12185205120E064BEE
:102300001A70194609787D22D2005143034A118080
:102310007047000000E000E00400002006000020FC
:1023200001460D4A12884A430C4B5A6100229A61B9
:1023300001221A6100BF094A1069C207D20F002AA0
:1023400004D0012212040240002AF4D00022034BE0
:102350001A619A61704700000600002000E000E06A
:1023600001460D4A12784A430C4B5A6100229A6189
:1023700001221A6100BF094A1069C207D20F002A60
:1023800004D0012212040240002AF4D00022034BA0
:102390001A619A61704700000400002000E000E02C
:1023A0001CB501214804FFF771FD01204002009097
:1023B0000121684601710321417100218171C171C0
:1023C00069460920C006FFF75CFB1CBD0024FFF72F
:1023D0006BFFFFF7E5FF3020FFF786FFFFF7ECFB11
:1023E000FFF750FAFF20F530FFF79AFF24E0C824EA
:1023F00005E0FEF79FFF3220FFF792FF641E002CDE
:10240000F7D10020FEF786FF15E0012149020920DF
:10241000C006FFF78AFB0520FFF782FF0121490272
:102420000920C006FFF77FFBFEF784FF6420FFF75B
:1024300077FFFFF7E9FAE8E7D9E70000F0B51FB446
:1024400096B084460C460246199D189803904900A0
:1024500068006300490840080193002A01D0012662
:1024600000E000269E19FE4BF6185B109E422BD30F
:102470006E00039F0296002F00D00127F719F84E37
:10248000F84BBE199E421FD3039E0346F64F3343BB
:1024900009D03B469C4201D1002A04D0019B002A6E
:1024A00005D0012604E0002039461BB0F0BD00260F
:1024B0009E19EE4B9E4207D8039F029E002F00D02C
:1024C0000127F6199E4207D92B4660462146189AE5
:1024D000FFF7CAFE1BB0F0BD0023002C29DAE44E42
:1024E000B04226DAE34EB04201DB022321E0DE4EA9
:1024F000B0421EDBE04E070DBE19142E09DD342755
:10250000BF1B039EFE400196BE40039FBE420BD000
:102510000FE0039F002F0CD11427BF1B0646FE407F
:102520000196BE40864204D1019BDE07F60F0223CE
:102530009B1B0E46164318D1002D16DA002C03D033
:10254000022B01D0012B06D00220FEF753FDFFF72E
:1025500081FE1BB0F0BD0220FEF74CFDFFF77AFEB6
:102560000122D20751401BB0F0BD039E002E61D165
:10257000BF4EB04220D1C148844201D1002A08D0C8
:10258000B948814209DB002D10DB189829461BB0A1
:10259000F0BD0020B4491BB0F0BD002D06DA0122C9
:1025A0002946D207189851401BB0F0BDB449794470
:1025B000086849681BB0F0BDAB4FB84225D1002D6B
:1025C0001FDA002904D0B14212D1002A09D018E044
:1025D000002A72D1A649E20F0020D20711431BB096
:1025E000F0BD0020E20F0146D20711431BB0F0BD41
:1025F000B14206DA234600203946FEF743F81BB005
:10260000F0BD104621461BB0F0BDB14212DA0126E2
:10261000B607B54203D1234610461946FEE3994E4C
:10262000B54207D1261E05DB1046314600F004FCFA
:102630001BB0F0BD67007F081646002A40D1002974
:102640000AD08B4A914229D1002C0EDD002D1CDBD3
:10265000002011461BB0F0BD022B16D0002C14D068
:10266000012B12D1002C14DB0FE0002C28DA002DF6
:1026700009DB012B03D000207D491BB0F0BD0020F9
:1026800081491BB0F0BD012B03D0002001461BB0D7
:10269000F0BD00200121C9071BB0F0BD724A914274
:1026A0000ED1002C01DA002B17D0022B06D000200F
:1026B000C043FEF762FA1BB0F0BD90E20120F8E7DC
:1026C000E217521C94461A4307D000220892664C27
:1026D00062465B1E1A4307D009E00120FEF78AFC20
:1026E000FFF7C6FD1BB0F0BD0022644C0892674A9C
:1026F00090427DDD664B674A98421FDD914202DCC5
:10270000002D05DB4DE05848814217DB002D48DDE8
:102710000220FEF76FFCFFF7B3FD05460E460022D0
:10272000534B21460898FEF733FA084671004908D2
:10273000C00FC007014328461BB0F0BD914215DA17
:10274000002D2EDA0220FEF755FCFFF799FD054615
:102750000E460022464B21460898FEF719FA7200F1
:102760005208C80FC0070243114617E03E4B99427A
:1027700023DD002D15DD0220FEF73CFCFFF780FD78
:1027800005460E4600223A4B21460898FEF700FA0D
:10279000084671004908C00FC007014328461BB016
:1027A000F0BD0220FEF726FCFFF774FD4900490842
:1027B000E20FD20711431BB0F0BD0022304639466C
:1027C000FDF73DFF012205460E46D243FEF760FCB1
:1027D000314A324BFDF73EFF2A463346FEF7D8F921
:1027E0000022284BFDF736FF07462A46334600E015
:1027F00064E0039110461946FEF7CAF93A46039B76
:10280000FEF7C6F90746032209915207244B2846D2
:102810003146FEF7BDF907910C90224A204B38460D
:102820000999FEF7B5F9074601911F4A1F4B284643
:102830003146FEF7ADF93A46019BFDF700FF07462A
:102840000B460246099107990C98FDF7EBFE00250F
:102850000E462846079B0C9AFDF7F1FE3A4627E004
:10286000FFFF1F00FFFF0F000000F03F0000E0FF30
:102870000000F07F0000404301FCFFFF0000F0BFBC
:10288000F60B00000000E03F0000F0FF0000E04118
:102890000000F043FFFFEF3F555555555555D53FC7
:1028A0004715F73FFE822B6544DF5DF80BAE543EC3
:1028B000099BFDF7CFFE02460B4652E101250020A1
:1028C0002D05A94207DA352230463946FEF7E0FBEE
:1028D00006463420C0430A151218FE48101803900B
:1028E0000803FD49000B01430F46FC49884201DC07
:1028F000002003E0FA49884202DA0120119005E045
:10290000002011900398401C7F1B0390119805979D
:10291000C200F4480F927844801843680268394630
:1029200030460D930292FDF78AFE07910C903046D7
:102930000D9B029A0599FDF775FE02460B46002095
:10294000E549FDF79FFE09910490079B0C9AFEF75D
:102950001FF9129000201090E3480D46784400685B
:102960000E90012178104907084311990D9B8904A5
:1029700040180121C90447183946029A0E98FDF7FC
:102980005EFE3246059BFDF765FE02460B46294674
:102990001098FEF7FDF8064602913B4629460E9A2E
:1029A0001098FEF7F5F8079B0C9AFDF753FE324698
:1029B000029BFDF744FE099B049AFEF7E9F8059196
:1029C000129A0A902B4610461946FEF7E1F8064681
:1029D0000246C6480F460B4606217844FFF7E4FB43
:1029E00032463B460091049010461946FEF7D0F857
:1029F000009B049AFEF7CCF806460F462B46194674
:102A0000129A1098FDF70EFE059B0A9AFEF7C0F881
:102A100032463B46FDF706FE109A079104902B467E
:102A200010461946FEF7B4F8B14E0022334609911C
:102A30000290FDF7F7FD079B049AFDF7F3FD0020D8
:102A40000746024633460091FDF7F9FD099B029ABD
:102A5000FDF7F5FD079B049AFDF7FCFD06460D9179
:102A60003A462946009B1098FEF792F807910C9081
:102A70002B463046129A0D99FEF78AF805460E4607
:102A80003A46009B05990A98FEF782F833462A4693
:102A9000FDF7C8FD02460B460746099107990C98B9
:102AA000FDF7C0FD00250E462846079B0C9AFDF752
:102AB000C6FD3A46099BFDF7CDFD07460722099161
:102AC00052078C4B31462846FEF762F8079100907A
:102AD000894A884B38460999FEF75AF8074601910A
:102AE000864A874B31462846FEF752F83A46019B04
:102AF000FDF798FD834B7B440F9A9B181A685B681F
:102B0000FDF790FD029009910398FEF736F80591C4
:102B10000490099B029A07990098FDF783FD7A4B70
:102B20007B440F9A9B181A685B6817460393FDF75E
:102B300079FD059B049AFDF775FD0E462846059B19
:102B4000049AFDF77CFD3A46039BFDF778FD079B51
:102B5000009AFDF774FD099B029AFDF77BFD024682
:102B60000B46199900200C900F461898FEF710F8A4
:102B7000029104903B460C9A19991898FDF75FFD55
:102B80002A463346FEF704F8029B049AFDF74AFDF5
:102B900009910E902A46334639460C98FDF7F8FF06
:102BA00006460F46099B0E9AFDF73CFD574A0D4617
:102BB000914220DB5242AA18024310D132463B46D2
:102BC000FDF73DFD04900391514A524B09990E982F
:102BD000FDF728FD039B049A00F052F91ED2022053
:102BE000FEF708FAFFF74CFB49004908E20FD2074D
:102BF00011431BB0F0BD6A00474B52089A420DD3F7
:102C0000464AAA18024300D0CBE532463B46FDF7C0
:102C100016FD099B0E9A00F033F9F5D968000023E0
:102C200040082C490393020D3D4B5218984223DD76
:102C300001200005521CD04042195000400D4018A0
:102C400038497944096813468C463749C1408B435B
:102C500012030121120B090551181422101AC14048
:102C60000391002D01DA484203906246304639460E
:102C7000FDF7E5FC06460F4632463B4609990E989D
:102C8000FDF7D0FC00252A46284B28460591FDF784
:102C90007FFF07910C90264A264B28460599FDF7A1
:102CA00077FF0091029032463B4628460599FDF792
:102CB000C6FC099B0E9AFDF7CDFC1F4A1F4BFDF782
:102CC00067FF009B029AFDF7ADFC07460B460246E4
:102CD000099135E001FCFFFF0000F03F8E980300F2
:102CE0007AB60B00060800004808000072070000D2
:102CF0000000084009C7EE3FFD033ADCF5015B1414
:102D0000E02F3EBE460600000C060000000090408A
:102D1000FE822B654715973C00CC904000346F3FF6
:102D20000000E03F62050000FFFF0F00432EE63F7A
:102D3000396CA80C615C20BEEF39FAFE422EE63FEA
:102D400007990C98FDF76EFC05460E46079B0C9AFA
:102D5000FDF775FC3A46099BFDF77CFC09912A4674
:102D600033460E9010461946FDF712FF07460246FD
:102D70002F480B46059105217844FFF715FA3A468E
:102D8000059BFDF705FF2A463346FDF763FC074622
:102D9000019128463146099B0E9AFDF7F9FE099BE1
:102DA0000E9AFDF73FFC012304910C9000229B0733
:102DB00038460199FDF743FC05910E903A462846A6
:102DC0003146019BFDF7E4FE059B0E9AFDF75AFC88
:102DD000049B0C9AFDF733FC2A463346FDF72FFC83
:102DE0000022144BFDF736FC064603980D460005FD
:102DF00041190915002912DC30462946039AFEF7CD
:102E000047F9FFF7BBF9042801D1FFF743FA304631
:102E10002946039AFEF73CF9064601E004E029182A
:102E20000B46324621460898FDF7B2FE1BB0F0BDB6
:102E3000040400000000F03FF8B506460C46FEF71B
:102E400057F9051E0F4600D00120014349000B48E9
:102E50004908411AC90F0DD0002E01D0012100E010
:102E600000210C4361004908401AC00F02D1012023
:102E7000FEF7C0F828463946F8BD00000000F07F94
:102E800070B501251C002D050C4310D4EC4206D46E
:102E9000AC420AD48B4200D070BD824270BDEB427E
:102EA00017D4E94215D48B4270BD9B4270BDEC42F1
:102EB00006D5AC42F9D5994200D070BD904270BDA4
:102EC0006D005C00EC4204D24C00EC4201D299420D
:102ED00070BD0FB4034C0CBC03BC30B4FEF790F8CB
:102EE00030BC70BD1900160470B501250400ED0753
:102EF0004C4020D4441A01D2001B0919C60D4B00C6
:102F0000F2B2FF2A29D01B0E2CD000020C02D31AD9
:102F10002C43DC402843051910D2280A02D3401C58
:102F20006D0611D0761EF6058019FF2A00DA70BDF5
:102F3000C00DC00570BD694000F02EF801200543AA
:102F4000C541521C761CE8E764089C40C9016140F9
:102F50008900E7D10124A043E4E71B0E440200D01E
:102F6000034870BD002AFCD1C00FC00770BD00BF70
:102F70000000C07F70B50125ED07684004004C409B
:102F800002D5694000F008F8FFF7B4FF70B50125DD
:102F90000400ED074C4022D4441A02D26C40001BBE
:102FA0000919C60D4B00F2B2FF2A4BD01B0E50D0B0
:102FB00000020C02D31A2C43DC40A843051B05D5A4
:102FC000AD0019D36D08761E521E37D0F605280ABB
:102FD00001D2801970BD70416D0603D070BD69408B
:102FE000FFF788FF9C4009026140490001D0401E64
:102FF00070BD0124A04370BD6D081DD001202B0CB5
:1030000001D12D0410302B0E01D12D0208302B0FD1
:1030100001D12D01001DAB0F01D1AD00801CEB0FC4
:1030200001D16D00401C6D00361A121A680AF505B0
:103030004019012A02DB70BD002070BDC036300A85
:10304000C00770BD1B0E440201D1FF2B00D1024806
:1030500070BD002AF0D070BD0000C07F80807F7EF0
:103060007D7C7B7A797877767675747372717170FE
:103070006F6E6E6D6C6C6B6A6A69686867666665B0
:103080006464636362616160605F5F5E5E5D5D5C3E
:103090005C5B5B5A5A5959585857575656555555AF
:1030A0005454535352525251515050504F4F4F4E0F
:1030B0004E4D4D4D4C4C4C4B4B4B4A4A4A4949495D
:1030C000484848474747474646464545454444449F
:1030D00044434343434242424241414181828384CB
:1030E00085868788898B8C8D8E8F91929395969704
:1030F000999A9C9D9FA0A2A3A5A7A8AAACAEB0B286
:10310000B3B5B7B9BCBEC0C2C5C7C9CCCED1D4D780
:10311000D9DCDFE2E6E9ECF0F3F7FAFE00000000AC
:10312000000000000000F03F000000000000F83F39
:1031300000000000000000000000004003B8E23F73
:10314000000000000000000006D0CF43EBFD4C3E25
:10315000033333333333E33FFFAB6FDBB66DDB3F1A
:103160004D268F515555D53F01411DA96074D13F62
:1031700065DBC9934A86CD3FEF4E454A287ECA3F5C
:103180003E5555555555C53F93BDBE166CC166BFDE
:103190002CDE25AF6A56113FF16BD2C541BDBBBED7
:1031A000D0A4BE726937663E000000000000000037
:1031B000D03100080000002058000000F80000088E
:1031C0002832000858000020C00700001401000841
:1031D00000000000000000000000000000000000EF
:1031E00000000000000000000000000000000000DF
:1031F00000000000000000000000000000000000CF
:1032000000000000000000000000000000000000BE
:1032100000000000000000000000000000000000AE
:083220000000000000000000A6
:04000005080000B53A
:00000001FF
