:020000040800F2
:100000002808002059010008651F0008551C000839
:1000100000000000000000000000000000000000E0
:10002000000000000000000000000000DB220008CB
:100030000000000000000000D91F0008B5230008E0
:1000400089010008000000008901000889010008FA
:100050008901000889010008890100088901000858
:1000600000000000890100088901000889010008DA
:1000700089010008890100088901000800000000CA
:10008000890100080000000000000000890100084C
:100090008901000889010008890100088901000818
:1000A0008901000889010008890100083524000839
:1000B0008901000800F002F800F03EF80CA030C8FA
:1000C000083824182D18A246671EAB4654465D46D4
:1000D000AC4201D100F030F87E460F3E0FCCB64660
:1000E0000126334200D0FB1AA246AB4633431847E1
:1000F00088360000A8360000103A02D378C878C1CC
:10010000FAD8520701D330C830C101D504680C6059
:10011000704700000023002400250026103A01D378
:1001200078C1FBD8520700D330C100D50B607047AF
:100130001FB51FBD10B510BD01F084F81146FFF7C3
:10014000F7FF02F0E9FB01F09CF803B4FFF7F2FFC0
:1001500003BC01F0CDF800000F4880F308880F4879
:100160000168090E0E4A914205D10E480E49016000
:100170000E480F4901600F4880470F480047FEE7CF
:10018000FEE7FEE7FEE7FEE7FEE700000B480C494E
:100190000C4A0D4B704700002808002004000000A6
:1001A0001F00000018100240010000000000014084
:1001B00000000000B9230008B50000082802002054
:1001C0002808002028040020280400200022030919
:1001D0008B422CD3030A8B4211D300239C464EE062
:1001E00003460B433CD4002243088B4231D303091E
:1001F0008B421CD3030A8B4201D394463FE0C309D0
:100200008B4201D3CB01C01A524183098B4201D3E7
:100210008B01C01A524143098B4201D34B01C01AD2
:10022000524103098B4201D30B01C01A5241C3084A
:100230008B4201D3CB00C01A524183088B4201D3B9
:100240008B00C01A524143088B4201D34B00C01AA5
:100250005241411A00D201465241104670475DE0BA
:10026000CA0F00D04942031000D34042534000223D
:100270009C4603098B422DD3030A8B4212D3FC22E6
:10028000890112BA030A8B420CD3890192118B4265
:1002900008D3890192118B4204D389013AD092117B
:1002A00000E08909C3098B4201D3CB01C01A524136
:1002B00083098B4201D38B01C01A524143098B42FF
:1002C00001D34B01C01A524103098B4201D30B01E8
:1002D000C01A5241C3088B4201D3CB00C01A52410D
:1002E00083088B4201D38B00C01A5241D9D24308F4
:1002F0008B4201D34B00C01A5241411A00D2014631
:10030000634652415B10104601D34042002B00D59A
:100310004942704763465B1000D3404201B500205C
:10032000C046C04602BD704770477047F0B50C46E6
:10033000871A9C410D46861A9D4103D2C01BA141DC
:10034000D21963410D0D1F0DC94EEC1BAE435CD09D
:100350007F057F0D0026002F51D02D05AC46A94307
:10036000DD020123ED0A1B051D4320231B1B24D4A2
:100370001746E740381871412F46E740CC199D4099
:100380002818314661410C0D27D161449A4013D59C
:100390000023401C594152000ED140084000012268
:1003A0004B005205D34207D305204007C14201D577
:1003B000B04900E0B0493046F0BD6B00002A00D0E3
:1003C00001229A181F23203C1B1B01D5002302E0A9
:1003D000E540281871410C0DD7D0012424050919D6
:1003E000C407CD0740084908E40F28436144002CA6
:1003F000D5D00024401C61419A40D0D1CDE76A0598
:10040000520DD9D1C90FC907D5E79C4D4E00002820
:1004100001D0012400E0002434195F00002A01D03B
:10042000012600E00026BE19954FAC420CD8AE4222
:100430000AD8B44206D001256D05EC42BCD0104666
:100440001946F0BD9942FCD000203946F0BDF0B508
:100450001FB40C460F46811A9F412546861A9D41BE
:1004600006D20125ED076F40401ABC4152187B416E
:10047000210D1E0D8D1BAC467D4D8D437ED0750527
:100480006D0D7CD00D05AE46AC431B031B0B794DA7
:1004900052429D41202366469B1B14D31746F740CA
:1004A000381800260090744160462F460741E41931
:1004B00000989D402818664116D4714671189A40DC
:1004C00025D5012320E093182A466A415200002BCB
:1004D00000D0521C1E23203E9B1B002B61DD3541AA
:1004E000EE1728186641E8D5001876415B1C9A4043
:1004F00000D3401C4B05F3181524E34010D3002B08
:1005000052D071467118D30FC01802D3491C05B0E0
:10051000F0BD0123DB079A42F9D140084000F6E71D
:1005200001225205B21801D1002853D00123CC0A70
:10053000DB029943891E002A08D1020C03D0020C69
:100540000004103902E00246002020390023550B38
:1005500005D112020823550B01D152010D23550C70
:1005600001D112011B1DD50C01D192009B1C150D50
:1005700001D152005B1C2025EE1A01E02CE022E0A4
:100580000546F54015439840CA1AE1076918130556
:10059000C918002ABBDA032040070818C10FC90791
:1005A0000FE071466118B2E7F10740080843711087
:1005B00071444A000CD001235B059A42A7D2C90FAF
:1005C000C9070020A3E74905490D26D1002001E015
:1005D0000028F4D100219AE7284D6600002801D0B8
:1005E000012100E0002171185F00002A01D00126DE
:1005F00000E00026BE19224FA94210D8AE420ED804
:10060000B14208D001256D05E94206D01946A8027D
:10061000414010467BE79C4201D0214677E700200D
:10062000394674E710B50C465C4005D50124E40753
:100630006340FFF70CFF10BDFFF778FE10BD30B42C
:100640000C465C4004D50124E407634030BC6DE6F1
:1006500030BCFCE670B50124E40761400D465D4006
:1006600002D4FFF763FE70BD6340FFF7F0FE70BD7C
:10067000FF0700000000F0FF0000F07F0000E0FF37
:100680000000F87FF0B5F94D0C091E092C402E40F2
:100690002F468BB0A7437DD0B543FCD0002E7AD037
:1006A000002CFCD00D465D40ED0F2543AC1BFF2513
:1006B000AD0464190894C502440DC9022143500DCC
:1006C000DC0204430120C00701430443D20201912C
:1006D000200C110C00958C46010423468B430A9193
:1006E00061460904E24D8A430991010A7D44491992
:1006F0008039097805464D4301266D18F605751BAE
:100700006943C90C640B891C4C436418B5012C1B4C
:10071000250C2E04B4434C434D43210C6918890920
:100720000591009DE90701D00121C90704912C46DC
:1007300001996708CD072F434C08059DE10B4D43F8
:100740002D0C29466646754302950D4645432E46B7
:10075000029D7D1BB44100950D465D4301942C0C18
:100760002F040D465543AE462D0C3D430295039490
:100770007546049C2D04641B049406D2029C039DC0
:10078000641C002675410395029401AC70CC009F57
:100790007D1B01E03EE162E1B4410904009507914F
:1007A00001940599A4086143090C0C464443650B68
:1007B000E7040C4666467443A646640B3C43039527
:1007C00002947446049DE4042C1B049406D2029CFB
:1007D000039D641C002675410395029401AC70CC06
:1007E000009F7D1BB44101940C465C430095650F4E
:1007F000E7000C465443A646640F3C43039502941D
:100800007446049DE4002C1B049406D2029C039DB4
:10081000641C002675410395029401AC70CC009FC6
:100820007D1BB441AE09AF06049DC900AD092F433D
:10083000049DA406AD060495079D344369180791ED
:10084000059DE10B4D432D0C2946664675430295E7
:100850000D4645432E46029D7D1BB44100950D4635
:100860005D4301942C0C2F040D465543AE462D0CD0
:100870003D43029503947546049C2D04641B049427
:1008800006D2029C039D641C0026754103950294C8
:1008900001AC70CC009F7D1BB44101948C05069483
:1008A000079C890A611800950791019C0599A40885
:1008B0006143090C0D464543680BEF040D46644641
:1008C00065436C0B3C43049FED047D1BAC4602D298
:1008D0000025641C6841009E019D371B8541084628
:1008E000584301950C46460FC5005443600F2843FA
:1008F0006546E4002C1B02D20025401C6E41019D80
:100900003F1AB5412846BD09800628438446A00900
:10091000BF064E020699A40676180743079D0020DD
:1009200068410A99079019430020099B009060468E
:10093000FF1913434041E20F64003A43A4460446C2
:10094000D71A8C41A04203D90120009020463A4694
:10095000C70F941840416246D20F22436446640098
:100960000494009CBE466400D71AA446044602972D
:100970008C417746002F01D1A04204D96046401C2B
:100980008446029A2046C40FA64694184041049A11
:100990000546D20F224364466400D31A8D41714646
:1009A000002901D1A84202D928461A46641C1043E6
:1009B0000122002800D0164361020020079B8919FC
:1009C00004465C410223002C02DB491813466441B3
:1009D000089DCE0A2D145D194B056705E10A2C050B
:1009E0000D1908993E43C9076940002B08D0934070
:1009F00006D30022761C5141002B01D176087600E7
:100A00001C4A002D43DB154241D0AA433FD030465B
:100A10000BB0F0BD06180D464D41174C7642AC4167
:100A20001AD395181C465C41134A6D42A24113D358
:100A3000012252054C00D4420AD15C00D4420BD0B2
:100A40004B4002D592021143E2E749004908DFE733
:100A50005940C90FC90718E000200849D8E70548E0
:100A600001420DD10342F7D0F2E700000000FF077A
:100A7000342F00000000F07F0000E0FF0000F87F4E
:100A8000114859400143C01241400020C0E70123F2
:100A9000089A9B069A4205DC032252078918C90F5F
:100AA000C907B5E7052252078918074A1143D21230
:100AB0005140ADE770B515461C4602460B46284628
:100AC0002146FFF7DFFD70BDFFFFFF7F30B5034616
:100AD000CA02400D1043164D164C0A1502D0204391
:100AE000002A06DBAA1A002A12DDD040FF2A0BDCFE
:100AF00030BD5205520D01D140004008AA1A07D45A
:100B0000D0404042FF2A01DD002030BD0028FCDD3E
:100B10004A00002B01D0012000E000201018012223
:100B20005205D042F0D8C817C043604030BD000025
:100B30001E040000000000801F22030C02D10F22BF
:100B4000000402D0030E03D004E0002001467047E9
:100B50000002083A030F01D10001121F830F01D1D7
:100B60008000921E002801DB4000521E1205511821
:100B70004205C012411810467047C10FC90700D086
:100B80004042012292071143D6E701218907D3E7AA
:100B9000F0B58B4C0F09254689B0BD437BD01D09AC
:100BA0002646AE43FAD00E465E402740F60F3E433F
:100BB000254071D024012142FBD0FF24AD19A404AB
:100BC0002D1B039501252D05DB02DB0AC9022B43F2
:100BD000C90A29431E010901040F130F050121430E
:100BE0001701880B820391432D098C46A90B1E43E4
:100BF0008A039543B30B9A0396433F09BA0B9403B8
:100C0000A74302962E467E430497B6464E19D7193F
:100C10000C460196544305977E43371B7646BF1B0F
:100C20003601B646BE0B361900967646BC04371917
:100C3000009C01D3641C00946400002F01D00126A5
:100C40003443029E049F754366467E4304967600B5
:100C500034196E0034190094029C019E1C196643DD
:100C6000751BAE46069465464519059C05956C4373
:100C7000594375460891691A0191049E01465143F2
:100C8000A41B0491611A009C0791E10605D061093B
:100C90000122114302E072E06EE06109089D002725
:100CA0002C0A2D066918049D7C412A0A2D06691814
:100CB000019D6241AC0DAD026D185441079A910D32
:100CC000920255196141029A644658435443069B67
:100CD000059A5A43121A131B9A0E9B015B187A410C
:100CE000010B0005C3185141220A200644195A413C
:100CF0009A4200D2491C01204002814203D31523AD
:100D00000226F64302E014230326F6432020C51AE8
:100D1000A9401746AF40DA400A4320460399D8401D
:100D20000914731819055118039A3843D207514012
:100D3000AC4009D00122944006D30022401C51410E
:100D4000002C01D1400840001E4A934212D30122D8
:100D500003989206904207DB0520400709181A48BD
:100D60000143C012414004E0032040070818C10FAE
:100D7000C907002009B0F0BD0020F107FAE7051807
:100D80000C464C4111486D42A04115D394181A46A7
:100D90005A410E48644290410ED301204A0040055A
:100DA000824209D35A00824206D35940C90F084AE9
:100DB000C90700201143DDE700200649DAE70000FB
:100DC0000000FF07FE070000FFFFFF7F0000E0FFBD
:100DD0000000F07F0000F87F0121C90501234118C0
:100DE00042001B06D3185B0E0AD0C1100722D206A0
:100DF000891840075242D14201D5520089187047E4
:100E0000090208D50146002A03D0C10FC9070020F6
:100E1000704710467047420202D0002002497047D6
:100E2000072109050143F4E70000F87FF0B5FF252D
:100E30002D04C609C209FF2704462E400137CB09FD
:100E40003E4348402A402B400746002A6BD0002BE7
:100E500069D0AA4267D0AB4265D0002800DA32469A
:100E60000125ED0529432C4309022002090AD21A63
:100E70004B0C7F24E31A434C000A7C44E35C7D2442
:100E80002404121914145B00A218884201D3521CC6
:100E900000E0400049420C465C4324115C43DB0106
:100EA0006415E318040A5C43C502200D0C46444354
:100EB0006419250A5D432303EC0C0D4665430003CA
:100EC0000019EB184C42A34201D35B18401CD40517
:100ED0002018002B07D05B00C91804D3401C002940
:100EE00001D1400840003F2189048A4209D3002AE9
:100EF00008DC1106090F04D0032149074018C00F70
:100F0000C007F0BD01224100120689187F22520657
:100F10009142F6D205214907C84201D59010F0BD93
:100F2000FF20C005F0BD002F00DA32461648AA4265
:100F300007D2AB4205D21902090E17D0F80FC0072D
:100F4000F0BDFF2563002D06AB42F9D84900A94248
:100F5000F6D8AB4201D1A942F2D0A94201D1002179
:100F600001E061004908D0050843F0BD1102090EF7
:100F7000FBD0FF200243D005F0BD0A4601461046D3
:100F800054E70000262800000000C07F1F22030C49
:100F900002D10F2200041CD0030E01D10002083A36
:100FA000030F01D10001121F830F01D18000921E97
:100FB000002801DB4000521ED205511802125118C0
:100FC0001922904004D3491C002801D14908490046
:100FD00008467047C10FC90700D04042012292075E
:100FE0001143D3E701218907D0E710B500F000F9DC
:100FF000006810BD10B5044600F0FAF8046010BD9A
:10100000F8B5224C4E00069DA6420AD8A64201D150
:10101000002806D15E00A64203D8A6420AD1002AC3
:1010200008D00D24240425422CD02946002000F0AD
:10103000E3F8F8BD0C461C430CD4994202D0EFF300
:101040000080F8BD904202D0EFF30080F8BDEFF3CE
:101050000080F8BD09242407E5008B4206D0EFF399
:101060000080A043591A06D2284304E0101A05D381
:10107000EFF30080A04380F30088F8BDEFF3008019
:10108000A043F1E7009500F0CFF8F8BD0000E0FFC5
:1010900070B505464800440D124B0020002C0AD0C4
:1010A000634008D09A4206DA6642B24203DD120576
:1010B0004019514170BD002C08D0002B09D0C90F38
:1010C000C907002AF6DB084A114370BDC90FC907DA
:1010D00070BD28460A03104302D00020034970BDAA
:1010E000284670BDFF0700000000F07F0000F87F79
:1010F000F0B53D4B02460C461C400020002C63D04E
:101100003A4D8B4366D000296BDB0B0D1D05A943BF
:1011100001252D0529430124FD33E34001D3921815
:101120004941FF3381339C468B02940D01212343B7
:1011300089074C42920200271B198C105D1A04D4B7
:101140002D1B02D42B466500491992185B41640897
:10115000F4D15C1A08D40125ED07EE175519744136
:1011600002D42A462346491C94185B410122920767
:101170001D46E61B8D4106D4B61A854103D42B4685
:10118000550034467F1924195B415208802AEFD15B
:10119000234300D0022338460A22D04001D3012243
:1011A00013438A0510436246890A12058918002BE9
:1011B00009D00122D34002D30022401C5141002B10
:1011C00001D140084000F0BD0B03134307D0C90F05
:1011D000C907F0BD0803104303D1002901DB104605
:1011E000F0BD00202946F0BD0000F07F0000F87F30
:1011F00000487047C8010020C80212D54803400FBC
:10120000002804D0C803C043012188407047EFF391
:1012100000800001000903210907084380F30088CA
:10122000704700207047000010B500200249029A64
:1012300000F02FF810BD00000000F87F0048704754
:10124000C80100207546FFF7F9FFAE460500694664
:101250005346C008C000854618B020B5FEF796FF7B
:1012600060BC00274908B6460026C0C5C0C5C0C539
:10127000C0C5C0C5C0C5C0C5C0C5403D49008D463C
:10128000704710B50446C046C0462046FEF75DFFD5
:1012900010BD10B50C461107090F092904D00A2901
:1012A0000AD008290CD104E011460820FFF7A4FF5A
:1012B00006E0510606D501E0510601D50120C00720
:1012C000214610BDD10607D501010909CC084907FF
:1012D000000E0006044309E0410F20024907000AFE
:1012E0000143200E00061D22D14101430846E7E7D5
:1012F00001491820ABBEFEE726000200704710B57A
:1013000010210920C00600F026FC012800D110BDE4
:101310000020FCE708B5024604480260684600F079
:1013200059FA03490098086008BD00004C000020ED
:101330004800002010B524480078012806D0022873
:101340000CD003281DD0042837D126E02E21F4200C
:1013500000F078FB02201C49087032E0FFF7CFFF55
:1013600000280DD0002000F0F9F80021174800F007
:101370007BFA1648006800F0EBFA03201249087067
:101380001FE01348007880013430C1B2F42000F02F
:1013900059FB04200C49087013E0FFF7B0FF002848
:1013A0000AD000210B4800F015F90A48006800F047
:1013B00079FA01200449087003E00120024908700D
:1013C00000BF00BF10BD00005000002054000020EE
:1013D0003C0000205C00002030B58BB005460C4678
:1013E000002C0DD0204600F0B9F84F48007880015D
:1013F0003430C1B2F42000F025FB1E2001F04CFA7D
:101400004A4A0321F62000F0EBFA4848007800042D
:1014100046494978090208434449897808434249C2
:1014200009780822511A08410A90414800687D2134
:101430004901401A05900598404300133D49002298
:101440008A5E5043C01209903B490020085E05990E
:101450004843C012089008990998401807903748E7
:101460000021415E019101988000079940182E49A2
:101470000978884001900198801C801006903049BE
:101480000020085E059948434013099005984043A1
:1014900000132C4900228A5E5043001408900899DA
:1014A00009984018801C8010079027480088012266
:1014B000D203079989184843C00B039006990A98EC
:1014C000401A19490A7821491141484302900121E3
:1014D000C9070298884206D2029948000399FEF78C
:1014E00075FE049005E003990298FEF779FE40002E
:1014F0000490049800120499091248430990144971
:10150000099848430014099012490498484300146C
:1015100008900899099840180F494018001104993B
:10152000401828600BB030BD3C000020380000207F
:1015300034000020240000201E0000201C00002099
:1015400020000020220000202C00002050C30000BA
:10155000DE0B000043E3FFFFCF0E0000FEB50646A2
:10156000002E06D02E21F42000F06CFA0A2001F0A3
:1015700093F9124A0221F62000F032FA0F4800785F
:1015800007020E4949780F430D480088381A0D4963
:1015900009884843C4130C480022825E01920B481C
:1015A0000022825E0092009AA118019AD002FEF7F2
:1015B00017FE0546601906490860FEBD3800002088
:1015C000300000202E000020280000202A000020EB
:1015D00034000020F3B58DB004460CA80E99FFF737
:1015E000FBFE0C9800F088F91A4800680C901A4825
:1015F0000068FFF7C2FA0991089018480068FFF7E1
:10160000E9FC01900C98FFF7E5FC00900199FFF7C9
:101610000DFC0746FFF7E0FB0546114A114B01F0B0
:10162000F1F90022104B03910290FFF713F800220A
:101630000E4B05910490FFF7ABFA07910690099BBA
:10164000089AFEF7EFFF0B910A90FFF73FFA206030
:101650000FB0F0BD580000204000002048000020DE
:10166000EBE2361AC05BC83F0000F03F1AE9504178
:1016700010B54C4A0221AA2000F0B2F9494800787E
:10168000000248494978084300B247490880454A62
:101690000221AC2000F0A4F9424800780002414940
:1016A0004978084300B2414908803E4A0221AE20F1
:1016B00000F096F93B48007800023A49497808431F
:1016C00000B23B490880374A0221B02000F088F977
:1016D0003448007800023349497808433549088086
:1016E000304A0221B22000F07BF92E480078000237
:1016F0002C4949780843304908802A4A0221B420FD
:1017000000F06EF92748007800022649497808431E
:101710002A490880234A0221B62000F061F92148B5
:10172000007800021F494978084300B22449088024
:101730001C4A0221B82000F053F91A480078000230
:1017400018494978084300B21E490880154A022109
:10175000BA2000F045F91348007800021149497891
:10176000084300B2184908800E4A0221BC2000F04C
:1017700037F90C48007800020A494978084300B25A
:1017800012490880074A0221BE2000F029F90548C5
:101790000078000203494978084300B20C490880E8
:1017A00010BD0000380000201C0000201E0000209A
:1017B000200000202C0000202E00002030000020FF
:1017C0002200002024000020260000202800002005
:1017D0002A00002001490968016070475800002074
:1017E000F3B58DB004460CA80E99FFF7F5FD194826
:1017F0000068FFF7C2F90991089017480068FFF7E1
:10180000E9FB16490090FFF711FB7F21C905019004
:1018100001F094FE0746FFF7DFFA0546104A114B28
:1018200001F0F0F8059104900C98FFF7A6F90391E8
:101830000290059B049AFEF725FF07910690099BED
:10184000089AFEF7EFFE0B910A90FFF73FF9206030
:101850000FB0F0BD440000204C000020D048874A63
:1018600085EB51B81E05154070B504460D46284657
:10187000FFF774FE0248006808300011206070BD58
:101880003400002010B500200449086004490860B5
:1018900001220021032000F0DEF810BD40000020EE
:1018A0004400002070B505460026012408E0A00091
:1018B0000F490958601E80000D4A1150601CC4B2C7
:1018C000142CF4DB0A48C5640026002405E0A000BF
:1018D000074908588619601CC4B2142CF7DB142180
:1018E0003046FEF77DFC024908650249086070BD7C
:1018F000C40000205C00002070B5054600260124CD
:1019000008E0A10010484158601E82000E48815036
:10191000601CC4B20A2CF4DB0B482C380565002689
:10192000002405E0A100084840588619601CC4B294
:101930000A2CF7DB0A213046FEF752FC02492C390B
:1019400048650249086070BD9800002058000020DA
:1019500070B505460026012408E0A0000F4909588B
:10196000601E80000D4A1150601CC4B20A2CF4DBCA
:101970000A4845620026002405E0A00007490858EF
:101980008619601CC4B20A2CF7DB0A213046FEF728
:1019900027FC024988620249086070BD6C00002083
:1019A000540000200A4800680A490968884203DA9E
:1019B000084800680649086006480068044948600D
:1019C00005480068886005480068C86070470000E6
:1019D000180100205C000020540000205800002066
:1019E00070B504460D46164633462A462146EE207B
:1019F00000F05BFA70BD000038B50446044804608E
:101A000001216846FFF7ECFE02490098086038BDE6
:101A10004C0000204800002038B50446044804600B
:101A200001216846FFF7D6FD02490098086038BDDD
:101A3000480000204C000020014908807047000049
:101A40003C00002070B504460D462A462146EE2093
:101A500000F05CFA70BD70B506460C461546FFF7FF
:101A600007FE0120FFF77AFD3046FFF7E5FF002D66
:101A700003DD2046FFF7C0FF02E02046FFF7CCFF62
:101A800070BDF0B50A4600210023002400BF3DE0F0
:101A900001258D402B4615681D402C469C4234D1B3
:101AA0001579012D02D01579022D16D185684F00C8
:101AB0000326BE40B543856055794E00B540866823
:101AC00035438560858801268E40B54385808588AD
:101AD00096798E40B6B23543858005684F0003265F
:101AE000BE40B543056015794E00B54006683543E4
:101AF0000560C5684F000326BE40B543C560D57973
:101B00004E00B540C6683543C560491C1029BFD397
:101B1000F0BDF0B5002300244D07EE0E1546B5408C
:101B20002B46CD10AE0005462035AD594E07F70EB9
:101B30000F26BE40B543CE10B60007462037BD5134
:101B4000CD10AE003D46AD591D432C46CD10AD0025
:101B50003E467451F0BD02460020138A0B40002B14
:101B600001D0012000E000207047018570478161AD
:101B70007047000000B589B00121480400F02EFA3A
:101B80000121880300F04AFA02216846017203210C
:101B9000417201218172C1724802019001A909209C
:101BA000C006FFF76EFF01220921C806FFF7B1FF4B
:101BB0001B2168460170002141700121817000F0F5
:101BC000D3F9104800F05AFC4B204002039000204B
:101BD00004900590069008900C20079003A90948EE
:101BE00000F022FD0121074800F0F1FC0121054829
:101BF00000F038FC01220449024800F0F4FC09B06E
:101C000000BD0000003801400501050010B5044684
:101C10002146054800F089FD00BF8021024800F000
:101C2000A5FC0028F9D010BD0038014070B505466C
:101C3000002400BF08E0A900054A8918491C085D76
:101C4000FFF7E4FF601CC4B2032CF4DB70BD00009E
:101C50002801002000BFFEE710B508210920C006BA
:101C6000FFF783FF00F02CFB10210920C006FFF7CF
:101C70007CFF022000F030FE08210920C006FFF79B
:101C800076FF022000F028FE08210920C006FFF799
:101C90006CFF10BD1CB50121480400F09FF9102015
:101CA0000090012168460171032141710121817178
:101CB000C17169460920C006FFF7E3FE08200090C5
:101CC00001216846017169460920C006FFF7D9FE67
:101CD0001CBD10B508210920C006FFF746FF00F023
:101CE000EFFA10210920C006FFF741FF022000F0A3
:101CF000F3FD08210920C006FFF739FF022000F09C
:101D0000EBFD08210920C006FFF72FFF10BD70B5BD
:101D10000546002400F0C6FA00261CE00821092030
:101D2000C006FFF722FF022000F0D6FD082109209F
:101D3000C006FFF71CFF6006040E10210920C00634
:101D4000FFF709FF002801D0601CC4B2022000F098
:101D5000C3FD701CC6B2082EE0DB002D02D0FFF7D9
:101D60007BFF01E0FFF7B5FF204670BD70B504466C
:101D700000F0A6FA08210920C006FFF7F6FE0025AC
:101D800026E080202040C611002E05D11021092018
:101D9000C006FFF7EAFE04E010210920C006FFF7A5
:101DA000E6FE6006040E022000F096FD08210920E0
:101DB000C006FFF7DCFE022000F08EFD082109209E
:101DC000C006FFF7D2FE022000F086FD681CC5B2F7
:101DD000082DD6DB70BD10B500F072FA1021092075
:101DE000C006FFF7C4FE08210920C006FFF7BFFEAA
:101DF000042000F071FD10210920C006FFF7B5FE98
:101E0000042000F069FD08210920C006FFF7ADFE9F
:101E100010BD10B500F054FA08210920C006FFF7E4
:101E2000A4FE10210920C006FFF79FFE042000F049
:101E300053FD08210920C006FFF799FE1021092053
:101E4000C006FFF794FE042000F046FD10BD10B55B
:101E5000002400F027FA10210920C006FFF787FEB2
:101E6000012000F039FD08210920C006FFF77FFEA0
:101E7000012000F031FD0AE0601CC4B2322C03DD09
:101E8000FFF7C7FF012010BD012000F025FD102144
:101E90000920C006FFF75FFE0028EDD108210920C8
:101EA000C006FFF762FE0020EDE7FFB581B00746F0
:101EB00015461E460024FFF78EFF3846FFF756FFF3
:101EC000FFF7C5FF0298FFF751FFFFF7C0FFFFF7CD
:101ED00082FF791CC8B2FFF749FFFFF7B8FF00BFC8
:101EE0000DE0681EA04204D00120FFF710FF30551E
:101EF00003E00020FFF70BFF3055601CC4B2AC427A
:101F0000EFDBFFF786FF204605B0F0BD37B504468E
:101F10000D4602AB01222946204600F001F83EBDE5
:101F2000FFB581B00D4616461F460024FFF753FF4C
:101F30000198FFF71BFFFFF78AFF2846FFF716FF00
:101F4000FFF785FF00BF06E0385DFFF70FFFFFF7E3
:101F50007EFF601CC4B2B442F6DBFFF75AFF0120DB
:101F600005B0F0BD7047000000218278002A27D01C
:101F7000184A03231B02D21803789B109B00D158E8
:101F800002789207D30EFF229A400B4693431946DC
:101F900042789207120E03789B07DB0E9A4011439A
:101FA0000C4A03231B02D21803789B109B00D150CC
:101FB0000278D306DB0E01229A40064B1A6007E036
:101FC0000278D306DB0E01229A40024B80331A605E
:101FD0007047000000E100E070470000002905D0D4
:101FE000054A52690243044B5A6104E0024A5269AD
:101FF0008243014B5A61704700100240002905D00E
:10200000054A12690243044B1A6104E0024A12694C
:102010008243014B1A61704700100240002905D02D
:10202000054A92690243044B9A6104E0024A9269AC
:102030008243014B9A61704700100240002905D08D
:10204000054AD2680243044BDA6004E0024AD268CF
:102050008243014BDA60704700100240FEB504462F
:10206000002500260020029001900090002786485D
:1020700040680C2108400546002D06D0042D07D0ED
:10208000082D08D00C2D2CD128E0804820602BE0B2
:102090007E48206028E07C4840680F218904084081
:1020A0000646794840680321C90308400290B00CF5
:1020B000861C0298002803D17548374647430BE039
:1020C0007148C06A0007000F401C01906F480199D9
:1020D000FEF77CF870430746276005E06D482060F6
:1020E00002E06A48206000BF00BF67484068F021F6
:1020F000084005462D096848405D00902068009919
:10210000C8406060604840680721090208400546F1
:102110002D0A6148405D009061680098C140A1604F
:102120005948006BFF2101310840884202D05B48CA
:10213000E0600DE05448406801218903084088426E
:1021400003D0A0684008E06002E0A0688008E0607A
:102150004D48006B40210840402802D05048206183
:1021600002E00120C00320614748006B10210840B5
:10217000102802D04548606101E020686061424853
:10218000006B8007800F002802D1A068A06119E0D1
:102190003D48006B8007800F012802D12068A061B4
:1021A00010E03948006B8007800F022802D18003BD
:1021B000A06107E03448006B8007800F032801D13D
:1021C0003248A0613048006B032109040840002810
:1021D00002D1A068E06120E02B48006B03210904D4
:1021E000084001210904884202D12068E06114E01E
:1021F0002548006B03210904084001214904884255
:1022000002D18010E06108E01F48006B032109043F
:102210000840884201D11D48E0611B48006B032142
:1022200089040840002802D1A068206220E01648F6
:10223000006B03218904084001218904884202D1EE
:102240002068206214E01048006B032189040840D4
:102250000121C904884202D10011206208E00A4825
:10226000006B032189040840884201D1074820629D
:102270000548006B80210840802802D00548606234
:1022800000E06762FEBD00000010024000127A000C
:1022900000093D00006CDC0204000020809FD50096
:1022A000128000001CB510200090002168460171CA
:1022B0000121C17169460920C006FFF7E2FB1CBD80
:1022C0001CB510200090012168460171C17169465A
:1022D0000920C006FFF7D5FB1CBD70470CB50020D8
:1022E00001900090314800680121090408432F49FA
:1022F000086000BF2D480068012149040840009093
:102300000198401C01900098002804D10521090380
:1023100001988842EED1254800680121490408400F
:10232000002802D00120009001E0002000900098D9
:10233000012839D111201E4908601C4840681B49FA
:102340004860084640684860084640687F21C903E5
:10235000884316494860084640681121090408432B
:1023600012494860084600680121090608430F49E0
:10237000086000BF0D480068012149060840002898
:10238000F8D00A484068800880000849486008463C
:102390004068022108430549486000BF034840687F
:1023A0000C2108400828F9D10CBD000000100240A3
:1023B000002002407047000010B51B480068012152
:1023C00008431949086008464068184908401649FA
:1023D00048600846006816490840134908600846E6
:1023E00000680121890488430F4908600846406855
:1023F0003F21090488430C4948600846C06A000927
:102400000001C8620846006BFF2154318843064929
:1024100008630846406B400840004863002088601D
:10242000FFF75CFF10BD0000001002400CB8FF0871
:10243000FFFFF6FE10B50749074800F0A1F8002895
:1024400007D0054800F06CF90449087001200449E0
:10245000087010BD05010500003801400200002091
:1024600001000020002904D0026801231A43026001
:1024700003E00268520852000260704710B504463B
:102480003248844209D101218803FFF7D7FD00219A
:1024900001208003FFF7D2FD56E02D48844209D188
:1024A00001214804FFF7AAFD002101204004FFF7A5
:1024B000A5FD49E02748844209D101218804FFF79E
:1024C0009DFD002101208004FFF798FD3CE022489B
:1024D000844209D10121C804FFF790FD00210120A9
:1024E000C004FFF78BFD2FE01C48844209D1012175
:1024F0000805FFF783FD002101200005FFF77EFDA1
:1025000022E01748844208D101212020FFF796FDE0
:1025100000212020FFF792FD16E01248844208D1E6
:1025200001214020FFF78AFD00214020FFF786FDB2
:102530000AE00D48844207D101218020FFF77EFD8B
:1025400000218020FFF77AFD10BD00000038014017
:102550000044004000480040004C00400050004053
:102560000014014000180140001C014002460020F8
:10257000D3690B40002B01D0012000E00020704700
:1025800070B502460B4600240021002500201E04E1
:10259000350ED9B201268E403146012D02D1166882
:1025A000314006E0022D02D15668314001E09668C4
:1025B00031401C0C0126A6403446D669344000291F
:1025C00003D0002C01D0012000E0002070BD0029C4
:1025D00004D0826808231A43826003E082680823DB
:1025E0009A4382607047F8B503460024002600969F
:1025F0000025002018460E04340ECEB200960127A6
:10260000009EB7403D46022C01D1001D02E0032C84
:1026100000D10830002A03D006682E43066002E08D
:102620000668AE430660F8BDF0B58BB004460D46B3
:10263000002700200A900026206840084000206003
:10264000666803210903304688430646A8680643A6
:10265000666026682D480640E9686868084329696D
:10266000084306432660A6680321090230468843D2
:10267000064668690643A6606846FFF7EFFC2448F3
:10268000844202D106980A900DE02248844202D189
:1026900007980A9007E02048844202D108980A90DF
:1026A00001E002980A9020680121C903084000282F
:1026B0000CD029680A9A5000FDF788FD0746296862
:1026C0000A9A5000FDF782FD0E4609E029680A9833
:1026D000FDF77CFD074629680A98FDF777FD0E4651
:1026E00028684008B04200D87F1C20680121C90337
:1026F0000840002806D03807460F384607490840EA
:1027000030430746A7810BB0F0BD0000F3E9FFFF9F
:10271000003801400044004000480040F0FF000045
:102720000146888CC005C00D7047CA05D20D0285D0
:10273000704700004900CA020243100000D0042084
:102740004A0D01D001221043044A490D914201D1A2
:1027500002210843012800D105207047FF0700002F
:10276000F8B504464F1EC8000838211815461E4605
:10277000086849683A4606239A4310D02A463346E9
:10278000FEF706FA3A46D200083AA3181A687F1EE6
:102790005B68FDF747FF06223B469343EED1022FCD
:1027A00023D0042F11D0062F2FD12A463346FEF70F
:1027B000EFF9E36AA26AFDF735FF2A463346FEF7D2
:1027C000E7F9636A226AFDF72DFF2A463346FEF7D2
:1027D000DFF9E369A269FDF725FF2A463346FEF7D4
:1027E000D7F963692269FDF71DFF2A463346FEF7D4
:1027F000CFF9E368A268FDF715FF2A463346FEF7D6
:10280000C7F963682268FDF70DFFF8BD002210B517
:10281000134610460149FDF735FF10BD0000F03F9B
:1028200010B5FDF7FFFE10BD002210B5134610468F
:102830001146FDF727FF10BD10B50721024A002001
:102840000907FEF725FC10BD01030000034A10B57F
:1028500000201107FEF71CFC10BD000001FDFFFF6A
:102860000A49096904229143084A1161C217520FAB
:1028700012185205120E064B1A70194609787D225D
:10288000D2005143034A11807047000000E000E08D
:10289000140000201600002001460D4A12884A4309
:1028A0000C4B5A6100229A6101221A6100BF094A49
:1028B0001069C207D20F002A04D00122120402407C
:1028C000002AF4D00022034B1A619A61704700007D
:1028D0001600002000E000E001460D4A12784A434D
:1028E0000C4B5A6100229A6101221A6100BF094A09
:1028F0001069C207D20F002A04D00122120402403C
:10290000002AF4D00022034B1A619A61704700003C
:102910001400002000E000E000243020FFF7A0FFBA
:10292000FFF7B8F9FEF7AEFFFF20F530FFF7B4FF71
:10293000FFF720F93BE0C82405E0FEF7FBFC32205E
:10294000FFF7AAFF641E002CF7D10020FEF7E2FC7F
:102950002CE00520FFF7A0FFFFF724F8144880685B
:1029600002B200230621032000F026F8104948682F
:102970006421FDF735FC05B200232A460821042016
:1029800000F01AF80B480078032806D17D20C0001B
:10299000FFF7A2FF0320FFF749F906480078042853
:1029A00004D1FEF7C7FC0420FFF740F9D1E7C2E7E6
:1029B0001801002002000020FFB50C4601460E075A
:1029C000310E0E19F1B2560032B2039E012E01D122
:1029D000561C32B2D3B21604350E8600074FF619D4
:1029E00071708600F619B3708600F619F5708600CE
:1029F000B8550126024F3E70FFBD0000280100209F
:102A000060000020F0B51FB496B084460C46024624
:102A1000199D189803904900680063004908400810
:102A20000193002A01D0012600E000269E19FE4BEA
:102A3000F6185B109E422BD36E00039F0296002F68
:102A400000D00127F719F84EF84BBE199E421FD34C
:102A5000039E0346F64F334309D03B469C4201D1C7
:102A6000002A04D0019B002A05D0012604E00020A2
:102A700039461BB0F0BD00269E19EE4B9E4207D88A
:102A8000039F029E002F00D00127F6199E4207D90E
:102A90002B4660462146189AFFF7C2FE1BB0F0BDD8
:102AA0000023002C29DAE44EB04226DAE34EB0428D
:102AB00001DB022321E0DE4EB0421EDBE04E070DBB
:102AC000BE19142E09DD3427BF1B039EFE4001965C
:102AD000BE40039FBE420BD00FE0039F002F0CD1DE
:102AE0001427BF1B0646FE400196BE40864204D115
:102AF000019BDE07F60F02239B1B0E46164318D1DF
:102B0000002D16DA002C03D0022B01D0012B06D0A9
:102B10000220FEF76FFAFFF779FE1BB0F0BD02202E
:102B2000FEF768FAFFF772FE0122D20751401BB090
:102B3000F0BD039E002E61D1BF4EB04220D1C148EE
:102B4000844201D1002A08D0B948814209DB002D16
:102B500010DB189829461BB0F0BD0020B4491BB00B
:102B6000F0BD002D06DA01222946D20718985140FF
:102B70001BB0F0BDB4497944086849681BB0F0BD8A
:102B8000AB4FB84225D1002D1FDA002904D0B14245
:102B900012D1002A09D018E0002A72D1A649E20F0A
:102BA0000020D20711431BB0F0BD0020E20F014608
:102BB000D20711431BB0F0BDB14206DA2346002014
:102BC0003946FDF75FFD1BB0F0BD104621461BB036
:102BD000F0BDB14212DA0126B607B54203D1234651
:102BE00010461946FEE3994EB54207D1261E05DB75
:102BF0001046314600F004FC1BB0F0BD67007F08B2
:102C00001646002A40D100290AD08B4A914229D188
:102C1000002C0EDD002D1CDB002011461BB0F0BD8A
:102C2000022B16D0002C14D0012B12D1002C14DB57
:102C30000FE0002C28DA002D09DB012B03D0002047
:102C40007D491BB0F0BD002081491BB0F0BD012BB8
:102C500003D0002001461BB0F0BD00200121C907B0
:102C60001BB0F0BD724A91420ED1002C01DA002B4C
:102C700017D0022B06D00020C043FDF77EFF1BB00B
:102C8000F0BD90E20120F8E7E217521C94461A4387
:102C900007D000220892664C62465B1E1A4307D09A
:102CA00009E00120FEF7A6F9FFF7BEFD1BB0F0BD5D
:102CB0000022644C0892674A90427DDD664B674A69
:102CC00098421FDD914202DC002D05DB4DE05848A3
:102CD000814217DB002D48DD0220FEF78BF9FFF75C
:102CE000ABFD05460E460022534B21460898FDF7E2
:102CF0004FFF084671004908C00FC007014328462E
:102D00001BB0F0BD914215DA002D2EDA0220FEF73D
:102D100071F9FFF791FD05460E460022464B21460C
:102D20000898FDF735FF72005208C80FC00702432C
:102D3000114617E03E4B994223DD002D15DD0220A0
:102D4000FEF758F9FFF778FD05460E4600223A4B8C
:102D500021460898FDF71CFF084671004908C00F7E
:102D6000C007014328461BB0F0BD0220FEF742F920
:102D7000FFF76CFD49004908E20FD20711431BB071
:102D8000F0BD002230463946FDF759FC01220546C8
:102D90000E46D243FEF77CF9314A324BFDF75AFC1E
:102DA0002A463346FDF7F4FE0022284BFDF752FC7D
:102DB00007462A46334600E064E003911046194670
:102DC000FDF7E6FE3A46039BFDF7E2FE07460322C7
:102DD00009915207244B28463146FDF7D9FE079149
:102DE0000C90224A204B38460999FDF7D1FE074640
:102DF00001911F4A1F4B28463146FDF7C9FE3A464E
:102E0000019BFDF71CFC07460B46024609910799FA
:102E10000C98FDF707FC00250E462846079B0C9AE8
:102E2000FDF70DFC3A4627E0FFFF1F00FFFF0F00F4
:102E30000000F03F0000E0FF0000F07F0000404392
:102E400001FCFFFF0000F0BFF60B00000000E03FB8
:102E50000000F0FF0000E0410000F043FFFFEF3F03
:102E6000555555555555D53F4715F73FFE822B65AE
:102E700044DF5DF80BAE543E099BFDF7EBFB0246C9
:102E80000B4652E1012500202D05A94207DA352223
:102E900030463946FEF7FCF806463420C0430A1592
:102EA0001218FE48101803900803FD49000B014357
:102EB0000F46FC49884201DC002003E0FA498842C1
:102EC00002DA0120119005E0002011900398401CC7
:102ED0007F1B039011980597C200F4480F92784425
:102EE000801843680268394630460D930292FDF718
:102EF000A6FB07910C9030460D9B029A0599FDF7B1
:102F000091FB02460B460020E549FDF7BBFB09910A
:102F10000490079B0C9AFDF73BFE12900020109046
:102F2000E3480D46784400680E9001217810490767
:102F3000084311990D9B890440180121C9044718C1
:102F40003946029A0E98FDF77AFB3246059BFDF74B
:102F500081FB02460B4629461098FDF719FE0646EE
:102F600002913B4629460E9A1098FDF711FE079BE9
:102F70000C9AFDF76FFB3246029BFDF760FB099B45
:102F8000049AFDF705FE0591129A0A902B46104609
:102F90001946FDF7FDFD06460246C6480F460B469C
:102FA00006217844FFF7DCFB32463B460091049053
:102FB00010461946FDF7ECFD009B049AFDF7E8FD6D
:102FC00006460F462B461946129A1098FDF72AFB23
:102FD000059B0A9AFDF7DCFD32463B46FDF722FBD6
:102FE000109A079104902B4610461946FDF7D0FD24
:102FF000B14E0022334609910290FDF713FB079B67
:10300000049AFDF70FFB0020074602463346009165
:10301000FDF715FB099B029AFDF711FB079B049A2C
:10302000FDF718FB06460D913A462946009B10987D
:10303000FDF7AEFD07910C902B463046129A0D9984
:10304000FDF7A6FD05460E463A46009B05990A98EF
:10305000FDF79EFD33462A46FDF7E4FA02460B468D
:103060000746099107990C98FDF7DCFA00250E46F2
:103070002846079B0C9AFDF7E2FA3A46099BFDF7B2
:10308000E9FA07460722099152078C4B3146284638
:10309000FDF77EFD07910090894A884B38460999D3
:1030A000FDF776FD07460191864A874B3146284653
:1030B000FDF76EFD3A46019BFDF7B4FA834B7B4466
:1030C0000F9A9B181A685B68FDF7ACFA0290099199
:1030D0000398FDF752FD05910490099B029A079908
:1030E0000098FDF79FFA7A4B7B440F9A9B181A6859
:1030F0005B6817460393FDF795FA059B049AFDF765
:1031000091FA0E462846059B049AFDF798FA3A462E
:10311000039BFDF794FA079B009AFDF790FA099B31
:10312000029AFDF797FA02460B46199900200C9077
:103130000F461898FDF72CFD029104903B460C9A1F
:1031400019991898FDF77BFA2A463346FDF720FDBA
:10315000029B049AFDF766FA09910E902A463346BF
:1031600039460C98FDF714FD06460F46099B0E9A4A
:10317000FDF758FA574A0D46914220DB5242AA18F1
:10318000024310D132463B46FDF759FA04900391B1
:10319000514A524B09990E98FDF744FA039B049A41
:1031A00000F052F91ED20220FDF724FFFFF744FB86
:1031B00049004908E20FD20711431BB0F0BD6A0075
:1031C000474B52089A420DD3464AAA18024300D0F0
:1031D000CBE532463B46FDF732FA099B0E9A00F0EA
:1031E00033F9F5D96800002340082C490393020DF8
:1031F0003D4B5218984223DD01200005521CD0405F
:1032000042195000400D4018384979440968134666
:103210008C463749C1408B4312030121120B09052B
:1032200051181422101AC1400391002D01DA4842AE
:103230000390624630463946FDF701FA06460F46CE
:1032400032463B4609990E98FDF7ECF900252A46CF
:10325000284B28460591FDF79BFC07910C90264AC8
:10326000264B28460599FDF793FC009102903246C3
:103270003B4628460599FDF7E2F9099B0E9AFDF7B2
:10328000E9F91F4A1F4BFDF783FC009B029AFDF7EB
:10329000C9F907460B460246099135E001FCFFFFDC
:1032A0000000F03F8E9803007AB60B00060800007D
:1032B00048080000720700000000084009C7EE3F00
:1032C000FD033ADCF5015B14E02F3EBE460600002C
:1032D0000C06000000009040FE822B654715973CCD
:1032E00000CC904000346F3F0000E03F62050000DA
:1032F000FFFF0F00432EE63F396CA80C615C20BE37
:10330000EF39FAFE422EE63F07990C98FDF78AF94D
:1033100005460E46079B0C9AFDF791F93A46099B24
:10332000FDF798F909912A4633460E901046194642
:10333000FDF72EFC074602462F480B460591052156
:103340007844FFF70DFA3A46059BFDF721FC2A4623
:103350003346FDF77FF90746019128463146099B20
:103360000E9AFDF715FC099B0E9AFDF75BF90123F8
:1033700004910C9000229B0738460199FDF75FF9F4
:1033800005910E903A4628463146019BFDF700FC18
:10339000059B0E9AFDF776F9049B0C9AFDF74FF901
:1033A0002A463346FDF74BF90022144BFDF752F93C
:1033B000064603980D46000541190915002912DC3F
:1033C00030462946039AFDF763FEFFF7B3F9042858
:1033D00001D1FFF73BFA30462946039AFDF758FE24
:1033E000064601E004E029180B46324621460898BB
:1033F000FDF7CEFB1BB0F0BD040400000000F03F61
:10340000F8B506460C46FDF773FE051E0F4600D0C4
:103410000120014349000B484908411AC90F0DD04A
:10342000002E01D0012100E000210C436100490879
:10343000401AC00F02D10120FDF7DCFD28463946B5
:10344000F8BD00000000F07F70B501251C002D05BF
:103450000C4310D4EC4206D4AC420AD48B4200D0C8
:1034600070BD824270BDEB4217D4E94215D48B4245
:1034700070BD9B4270BDEC4206D5AC42F9D5994275
:1034800000D070BD904270BD6D005C00EC4204D273
:103490004C00EC4201D2994270BD0FB4034C0CBCFD
:1034A00003BC30B4FDF7ACFD30BC70BD1900160490
:1034B00070B501250400ED074C4020D4441A01D218
:1034C000001B0919C60D4B00F2B2FF2A29D01B0EB2
:1034D0002CD000020C02D31A2C43DC4028430519DF
:1034E00010D2280A02D3401C6D0611D0761EF605B4
:1034F0008019FF2A00DA70BDC00DC00570BD69409B
:1035000000F02EF801200543C541521C761CE8E767
:1035100064089C40C90161408900E7D10124A043AF
:10352000E4E71B0E440200D0034870BD002AFCD122
:10353000C00FC00770BD00BF0000C07F70B501257F
:10354000ED07684004004C4002D5694000F008F8DF
:10355000FFF7B4FF70B501250400ED074C4022D4FD
:10356000441A02D26C40001B0919C60D4B00F2B27E
:10357000FF2A4BD01B0E50D000020C02D31A2C4352
:10358000DC40A843051B05D5AD0019D36D08761E98
:10359000521E37D0F605280A01D2801970BD70413D
:1035A0006D0603D070BD6940FFF788FF9C4009029B
:1035B0006140490001D0401E70BD0124A04370BD90
:1035C0006D081DD001202B0C01D12D0410302B0EC5
:1035D00001D12D0208302B0F01D12D01001DAB0FA1
:1035E00001D1AD00801CEB0F01D16D00401C6D00BE
:1035F000361A121A680AF5054019012A02DB70BD55
:10360000002070BDC036300AC00770BD1B0E4402DA
:1036100001D1FF2B00D1024870BD002AF0D070BD4F
:103620000000C07F80807F7E7D7C7B7A7978777692
:1036300076757473727171706F6E6E6D6C6C6B6A8F
:103640006A6968686766666564646363626161602D
:10365000605F5F5E5E5D5D5C5C5B5B5A5A595958AA
:103660005857575656555555545453535252525114
:10367000515050504F4F4F4E4E4D4D4D4C4C4C4B6A
:103680004B4B4A4A4A4949494848484747474746B1
:1036900046464545454444444443434343424242ED
:1036A000424141418182838485868788898B8C8DC4
:1036B0008E8F919293959697999A9C9D9FA0A2A385
:1036C000A5A7A8AAACAEB0B2B3B5B7B9BCBEC0C2CC
:1036D000C5C7C9CCCED1D4D7D9DCDFE2E6E9ECF05E
:1036E000F3F7FAFE00000000000000000000F03FC9
:1036F000000000000000F83F000000000000000093
:103700000000004003B8E23F00000000000000009D
:1037100006D0CF43EBFD4C3E033333333333E33F2B
:10372000FFAB6FDBB66DDB3F4D268F515555D53F57
:1037300001411DA96074D13F65DBC9934A86CD3F25
:10374000EF4E454A287ECA3F3E5555555555C53F13
:1037500093BDBE166CC166BF2CDE25AF6A56113F05
:10376000F16BD2C541BDBBBED0A4BE726937663E07
:103770000000000000000000983700080000002052
:103780006C000000F8000008043800086C000020FD
:10379000BC07000014010008000000000000000049
:1037A00001020304010203040607080900000000E7
:1037B00010270000000000000000000000000000D2
:1037C00000000000000000000000000000000000F9
:1037D00000000000000000000000000000000000E9
:1037E00000000000000000000000000000000000D9
:1037F00000000000000000000000000000000000C9
:0438000000000000C4
:04000005080000B53A
:00000001FF
