:020000040800F2
:100000009008002059010008B51E0008E9180008F2
:1000100000000000000000000000000000000000E0
:100020000000000000000000000000002B2200087B
:100030000000000000000000291F0008B522000891
:1000400089010008000000008901000889010008FA
:100050008901000889010008890100088901000858
:1000600000000000890100088901000889010008DA
:1000700089010008890100088901000800000000CA
:10008000890100080000000000000000890100084C
:100090008901000889010008890100088901000818
:1000A000890100088901000889010008352300083A
:1000B0008901000800F002F800F03EF80CA030C8FA
:1000C000083824182D18A246671EAB4654465D46D4
:1000D000AC4201D100F030F87E460F3E0FCCB64660
:1000E0000126334200D0FB1AA246AB4633431847E1
:1000F000903C0000B03C0000103A02D378C878C1B0
:10010000FAD8520701D330C830C101D504680C6059
:10011000704700000023002400250026103A01D378
:1001200078C1FBD8520700D330C100D50B607047AF
:100130001FB51FBD10B510BD01F0ECF81146FFF75B
:10014000F7FF02F0D1FD01F004F903B4FFF7F2FF6D
:1001500003BC01F035F900000F4880F308880F4810
:100160000168090E0E4A914205D10E480E49016000
:100170000E480F4901600F4880470F480047FEE7CF
:10018000FEE7FEE7FEE7FEE7FEE700000B480C494E
:100190000C4A0D4B7047000090080020040000003E
:1001A0001F00000018100240010000000000014084
:1001B00000000000B9220008B500000890020020ED
:1001C00090080020900400209004002000220309E1
:1001D0008B422CD3030A8B4211D300239C464EE062
:1001E00003460B433CD4002243088B4231D303091E
:1001F0008B421CD3030A8B4201D394463FE0C309D0
:100200008B4201D3CB01C01A524183098B4201D3E7
:100210008B01C01A524143098B4201D34B01C01AD2
:10022000524103098B4201D30B01C01A5241C3084A
:100230008B4201D3CB00C01A524183088B4201D3B9
:100240008B00C01A524143088B4201D34B00C01AA5
:100250005241411A00D201465241104670475DE0BA
:10026000CA0F00D04942031000D34042534000223D
:100270009C4603098B422DD3030A8B4212D3FC22E6
:10028000890112BA030A8B420CD3890192118B4265
:1002900008D3890192118B4204D389013AD092117B
:1002A00000E08909C3098B4201D3CB01C01A524136
:1002B00083098B4201D38B01C01A524143098B42FF
:1002C00001D34B01C01A524103098B4201D30B01E8
:1002D000C01A5241C3088B4201D3CB00C01A52410D
:1002E00083088B4201D38B00C01A5241D9D24308F4
:1002F0008B4201D34B00C01A5241411A00D2014631
:10030000634652415B10104601D34042002B00D59A
:100310004942704763465B1000D3404201B500205C
:10032000C046C04602BD7047704770470246C80FBE
:10033000C00781434B0030B54B405B009B0D20D084
:100340001923DB06C91801231B05994220DB03246E
:10035000A40704251346AB400BD3002B04D1EB06B6
:1003600013409B00E34204D40124640700231219C4
:100370005941FF231B0599420BD2C9000143500F7D
:1003800009E0CB0204D501430803024305D0054828
:1003900030BDFF21C905084330BD084607210905C6
:1003A000884330BD0000C07FF0B50C46871A9C41E1
:1003B0000D46861A9D4103D2C01BA141D21963414B
:1003C0000D0D1F0DC94EEC1BAE435CD07F057F0D9C
:1003D0000026002F51D02D05AC46A943DD02012394
:1003E000ED0A1B051D4320231B1B24D41746E740A1
:1003F000381871412F46E740CC199D4028183146E6
:1004000061410C0D27D161449A4013D50023401C53
:10041000594152000ED14008400001224B005205C4
:10042000D34207D305204007C14201D5B04900E0BF
:10043000B0493046F0BD6B00002A00D001229A1866
:100440001F23203C1B1B01D5002302E0E540281898
:1004500071410C0DD7D0012424050919C407CD071B
:1004600040084908E40F28436144002CD5D00024FB
:10047000401C61419A40D0D1CDE76A05520DD9D1D7
:10048000C90FC907D5E79C4D4E00002801D00124B3
:1004900000E0002434195F00002A01D0012600E0AA
:1004A0000026BE19954FAC420CD8AE420AD8B442D1
:1004B00006D001256D05EC42BCD010461946F0BDB2
:1004C0009942FCD000203946F0BDF0B51FB40C466F
:1004D0000F46811A9F412546861A9D4106D2012565
:1004E000ED076F40401ABC4152187B41210D1E0D93
:1004F0008D1BAC467D4D8D437ED075056D0D7CD03A
:100500000D05AE46AC431B031B0B794D52429D417A
:10051000202366469B1B14D31746F7403818002645
:100520000090744160462F460741E41900989D40B1
:100530002818664116D4714671189A4025D50123B2
:1005400020E093182A466A415200002B00D0521C2A
:100550001E23203E9B1B002B61DD3541EE17281822
:100560006641E8D5001876415B1C9A4000D3401CD8
:100570004B05F3181524E34010D3002B52D07146DD
:100580007118D30FC01802D3491C05B0F0BD012368
:10059000DB079A42F9D140084000F6E701225205F4
:1005A000B21801D1002853D00123CC0ADB029943B1
:1005B000891E002A08D1020C03D0020C0004103955
:1005C00002E00246002020390023550B05D112021B
:1005D0000823550B01D152010D23550C01D11201F5
:1005E0001B1DD50C01D192009B1C150D01D1520091
:1005F0005B1C2025EE1A01E02CE022E00546F540C8
:1006000015439840CA1AE10769181305C918002A4A
:10061000BBDA032040070818C10FC9070FE0714675
:100620006118B2E7F10740080843711071444A00AD
:100630000CD001235B059A42A7D2C90FC90700203D
:10064000A3E74905490D26D1002001E00028F4D197
:1006500000219AE7284D6600002801D0012100E022
:10066000002171185F00002A01D0012600E0002659
:10067000BE19224FA94210D8AE420ED8B14208D0BE
:1006800001256D05E94206D01946A80241401046F1
:100690007BE79C4201D0214677E70020394674E78A
:1006A00010B50C465C4005D50124E4076340FFF714
:1006B0000CFF10BDFFF778FE10BD30B40C465C4057
:1006C00004D50124E407634030BC6DE630BCFCE691
:1006D00070B50124E40761400D465D4002D4FFF788
:1006E00063FE70BD6340FFF7F0FE70BDFF070000C2
:1006F0000000F0FF0000F07F0000E0FF0000F87F46
:10070000F0B5F94D0C091E092C402E402F468BB038
:10071000A7437DD0B543FCD0002E7AD0002CFCD06E
:100720000D465D40ED0F2543AC1BFF25AD0464195C
:100730000894C502440DC9022143500DDC02044354
:100740000120C00701430443D2020191200C110C87
:1007500000958C46010423468B430A9161460904A7
:10076000E24D8A430991010A7D444919803909788B
:1007700005464D4301266D18F605751B6943C90CE6
:10078000640B891C4C436418B5012C1B250C2E04EA
:10079000B4434C434D43210C691889090591009DD0
:1007A000E90701D00121C90704912C460199670886
:1007B000CD072F434C08059DE10B4D432D0C2946D9
:1007C0006646754302950D4645432E46029D7D1BA8
:1007D000B44100950D465D4301942C0C2F040D4649
:1007E0005543AE462D0C3D43029503947546049C3B
:1007F0002D04641B049406D2029C039D641C0026F5
:1008000075410395029401AC70CC009F7D1B01E003
:100810003EE162E1B4410904009507910194059914
:10082000A4086143090C0C464443650BE7040C46DD
:1008300066467443A646640B3C4303950294744693
:10084000049DE4042C1B049406D2029C039D641CAA
:10085000002675410395029401AC70CC009F7D1B6E
:10086000B44101940C465C430095650FE7000C46CB
:100870005443A646640F3C43039502947446049D7A
:10088000E4002C1B049406D2029C039D641C0026E9
:1008900075410395029401AC70CC009F7D1BB4415F
:1008A000AE09AF06049DC900AD092F43049DA406FF
:1008B000AD060495079D344369180791059DE10B2A
:1008C0004D432D0C29466646754302950D4645431A
:1008D0002E46029D7D1BB44100950D465D4301945B
:1008E0002C0C2F040D465543AE462D0C3D4302956E
:1008F00003947546049C2D04641B049406D2029C48
:10090000039D641C002675410395029401AC70CCD4
:10091000009F7D1BB44101948C050694079C890AB5
:10092000611800950791019C0599A4086143090C81
:100930000D464543680BEF040D46644665436C0B5A
:100940003C43049FED047D1BAC4602D20025641C91
:100950006841009E019D371B85410846584301951B
:100960000C46460FC5005443600F28436546E4001B
:100970002C1B02D20025401C6E41019D3F1AB5413F
:100980002846BD09800628438446A009BF064E02BA
:100990000699A40676180743079D002068410A9926
:1009A000079019430020099B00906046FF191343EC
:1009B0004041E20F64003A43A4460446D71A8C41F2
:1009C000A04203D90120009020463A46C70F941850
:1009D00040416246D20F2243644664000494009C66
:1009E000BE466400D71AA446044602978C41774657
:1009F000002F01D1A04204D96046401C8446029ACF
:100A00002046C40FA64694184041049A0546D20FCA
:100A1000224364466400D31A8D417146002901D1F6
:100A2000A84202D928461A46641C10430122002815
:100A300000D0164361020020079B891904465C41DF
:100A40000223002C02DB491813466441089DCE0A9C
:100A50002D145D194B056705E10A2C050D19089940
:100A60003E43C9076940002B08D0934006D30022BB
:100A7000761C5141002B01D1760876001C4A002DCE
:100A800043DB154241D0AA433FD030460BB0F0BD06
:100A900006180D464D41174C7642AC411AD39518B5
:100AA0001C465C41134A6D42A24113D301225205F8
:100AB0004C00D4420AD15C00D4420BD04B4002D54A
:100AC00092021143E2E749004908DFE75940C90FA4
:100AD000C90718E000200849D8E7054801420DD1B0
:100AE0000342F7D0F2E700000000FF078C3400005B
:100AF0000000F07F0000E0FF0000F87F114859403F
:100B00000143C01241400020C0E70123089A9B0620
:100B10009A4205DC032252078918C90FC907B5E7B5
:100B2000052252078918074A1143D2125140ADE7F6
:100B300070B515461C4602460B4628462146FFF76F
:100B4000DFFD70BDFFFFFF7F1F22030C02D10F22CC
:100B5000000402D0030E03D004E0002001467047D9
:100B60000002083A030F01D10001121F830F01D1C7
:100B70008000921E002801DB4000521E1205511811
:100B80004205C012411810467047C10FC90700D076
:100B90004042012292071143D6E701218907D3E79A
:100BA000F0B58B4C0F09254689B0BD437BD01D099C
:100BB0002646AE43FAD00E465E402740F60F3E432F
:100BC000254071D024012142FBD0FF24AD19A4049B
:100BD0002D1B039501252D05DB02DB0AC9022B43E2
:100BE000C90A29431E010901040F130F05012143FE
:100BF0001701880B820391432D098C46A90B1E43D4
:100C00008A039543B30B9A0396433F09BA0B9403A7
:100C1000A74302962E467E430497B6464E19D7192F
:100C20000C460196544305977E43371B7646BF1BFF
:100C30003601B646BE0B361900967646BC04371907
:100C4000009C01D3641C00946400002F01D0012695
:100C50003443029E049F754366467E4304967600A5
:100C600034196E0034190094029C019E1C196643CD
:100C7000751BAE46069465464519059C05956C4363
:100C8000594375460891691A0191049E01465143E2
:100C9000A41B0491611A009C0791E10605D061092B
:100CA0000122114302E072E06EE06109089D002715
:100CB0002C0A2D066918049D7C412A0A2D06691804
:100CC000019D6241AC0DAD026D185441079A910D22
:100CD000920255196141029A644658435443069B57
:100CE000059A5A43121A131B9A0E9B015B187A41FC
:100CF000010B0005C3185141220A200644195A412C
:100D00009A4200D2491C01204002814203D315239C
:100D10000226F64302E014230326F6432020C51AD8
:100D2000A9401746AF40DA400A4320460399D8400D
:100D30000914731819055118039A3843D207514002
:100D4000AC4009D00122944006D30022401C5141FE
:100D5000002C01D1400840001E4A934212D30122C8
:100D600003989206904207DB0520400709181A48AD
:100D70000143C012414004E0032040070818C10F9E
:100D8000C907002009B0F0BD0020F107FAE70518F7
:100D90000C464C4111486D42A04115D394181A4697
:100DA0005A410E48644290410ED301204A0040054A
:100DB000824209D35A00824206D35940C90F084AD9
:100DC000C90700201143DDE700200649DAE70000EB
:100DD0000000FF07FE070000FFFFFF7F0000E0FFAD
:100DE0000000F07F0000F87F0121C90501234118B0
:100DF00042001B06D3185B0E0AD0C1100722D20690
:100E0000891840075242D14201D5520089187047D3
:100E1000090208D50146002A03D0C10FC9070020E6
:100E2000704710467047420202D0002002497047C6
:100E3000072109050143F4E70000F87FF0B5FF251D
:100E40002D04C609C209FF2704462E400137CB09ED
:100E50003E4348402A402B400746002A6BD0002BD7
:100E600069D0AA4267D0AB4265D0002800DA32468A
:100E70000125ED0529432C4309022002090AD21A53
:100E80004B0C7F24E31A434C000A7C44E35C7D2432
:100E90002404121914145B00A218884201D3521CB6
:100EA00000E0400049420C465C4324115C43DB01F6
:100EB0006415E318040A5C43C502200D0C46444344
:100EC0006419250A5D432303EC0C0D4665430003BA
:100ED0000019EB184C42A34201D35B18401CD40507
:100EE0002018002B07D05B00C91804D3401C002930
:100EF00001D1400840003F2189048A4209D3002AD9
:100F000008DC1106090F04D0032149074018C00F5F
:100F1000C007F0BD01224100120689187F22520647
:100F20009142F6D205214907C84201D59010F0BD83
:100F3000FF20C005F0BD002F00DA32461648AA4255
:100F400007D2AB4205D21902090E17D0F80FC0071D
:100F5000F0BDFF2563002D06AB42F9D84900A94238
:100F6000F6D8AB4201D1A942F2D0A94201D1002169
:100F700001E061004908D0050843F0BD1102090EE7
:100F8000FBD0FF200243D005F0BD0A4601461046C3
:100F900054E70000EA2D00000000C07F10B50146B4
:100FA0009E240002CA15A307002A02D01843002A73
:100FB00004DBA21A002A0CDDD04010BD1206120E6E
:100FC00001D140004008A21A03D4D040404200287A
:100FD000F3DDFF2248001206904201D9002010BD27
:100FE000C817C043584010BD1F22030C02D10F2266
:100FF00000041CD0030E01D10002083A030F01D1F6
:101000000001121F830F01D18000921E002801DB16
:101010004000521ED2055118021251181922904058
:1010200004D3491C002801D14908490008467047EB
:10103000C10FC90700D04042012292071143D3E7F4
:1010400001218907D0E710B500F032F9006810BD22
:1010500010B5044600F02CF9046010BDF8B5224C20
:101060004E00069DA6420AD8A64201D1002806D10C
:101070005E00A64203D8A6420AD1002A08D00D2459
:10108000240425422CD02946002000F015F9F8BD93
:101090000C461C430CD4994202D0EFF30080F8BDFB
:1010A000904202D0EFF30080F8BDEFF30080F8BD6E
:1010B00009242407E5008B4206D0EFF30080A0430B
:1010C000591A06D2284304E0101A05D3EFF3008022
:1010D000A04380F30088F8BDEFF30080A043F1E760
:1010E000009500F001F9F8BD0000E0FF70B505467D
:1010F0004800440D124B0020002C0AD0634008D059
:101100009A4206DA6642B24203DD120540195141A5
:1011100070BD002C08D0002B09D0C90FC907002AC8
:10112000F6DB084A114370BDC90FC90770BD2846D8
:101130000A03104302D00020034970BD284670BD49
:10114000FF0700000000F07F0000F87FF0B53D4B86
:1011500002460C461C400020002C63D03A4D8B43C5
:1011600066D000296BDB0B0D1D05A94301252D055C
:1011700029430124FD33E34001D392184941FF3351
:1011800081339C468B02940D0121234389074C42F5
:10119000920200271B198C105D1A04D42D1B02D457
:1011A0002B466500491992185B416408F4D15C1A1A
:1011B00008D40125ED07EE175519744102D42A46CB
:1011C0002346491C94185B41012292071D46E61BE9
:1011D0008D4106D4B61A854103D42B4655003446BA
:1011E0007F1924195B415208802AEFD1234300D094
:1011F000022338460A22D04001D3012213438A0534
:1012000010436246890A12058918002B09D0012271
:10121000D34002D30022401C5141002B01D1400891
:101220004000F0BD0B03134307D0C90FC907F0BD41
:101230000803104303D1002901DB1046F0BD002054
:101240002946F0BD0000F07F0000F87F10B5FF23B5
:101250001B0644009C421DD84C009C421AD80346F1
:10126000124A0B4307D4401A02D3EFF3008010BD9B
:10127000EFF3008010BD081A06D2EFF300800121C1
:101280009043C907084302E0EFF30080904380F3E6
:10129000008810BD0D231B041A4204D01146002003
:1012A00000F00AF810BD00F029F810BD0000009011
:1012B0000048704730020020C80212D54803400F92
:1012C000002804D0C803C043012188407047EFF3D1
:1012D00000800001000903210907084380F300880A
:1012E000704700207047000010B500200249029AA4
:1012F00000F037F810BD00000000F87F10B502487C
:1013000000F02FF810BD00000000C07F00487047BB
:10131000300200207546FFF7F9FFAE46050069462A
:101320005346C008C000854618B020B5FEF72EFF12
:1013300060BC00274908B6460026C0C5C0C5C0C568
:10134000C0C5C0C5C0C5C0C5C0C5403D49008D466B
:10135000704710B50446C046C0462046FEF7F5FE6D
:1013600010BD10B50C461107090F092904D00A2930
:101370000AD008290CD104E011460820FFF79CFF91
:1013800006E0510606D501E0510601D50120C0074F
:10139000214610BDD10607D501010909CC0849072E
:1013A000000E0006044309E0410F20024907000A2D
:1013B0000143200E00061D22D14101430846E7E704
:1013C00001491820ABBEFEE726000200704700006E
:1013D000F8B52E21F42000F089F90A2001F0DEF999
:1013E000114A0221F62000F06FF90F480078000240
:1013F0000D494978084305460C480088281A0C49CD
:1014000009884843C4130B480027C75F0A480021D6
:10141000415E0091009AA118F802FEF7E1FE06462F
:10142000A01906490860F8BD5000002048000020BF
:101430004600002040000020420000204C00002018
:1014400010B54C4A0221AA2000F03EF94948007824
:10145000000248494978084300B247490880454A94
:101460000221AC2000F030F94248007800024149E6
:101470004978084300B2414908803E4A0221AE2023
:1014800000F022F93B48007800023A4949780843C5
:1014900000B23B490880374A0221B02000F014F91D
:1014A00034480078000233494978084335490880B8
:1014B000304A0221B22000F007F92E4800780002DD
:1014C0002C4949780843304908802A4A0221B4202F
:1014D00000F0FAF8274800780002264949780843C6
:1014E0002A490880234A0221B62000F0EDF821485D
:1014F000007800021F494978084300B22449088057
:101500001C4A0221B82000F0DFF81A4800780002D7
:1015100018494978084300B21E490880154A02213B
:10152000BA2000F0D1F81348007800021149497838
:10153000084300B2184908800E4A0221BC2000F07E
:10154000C3F80C48007800020A494978084300B201
:1015500012490880074A0221BE2000F0B5F805486C
:101560000078000203494978084300B20C4908801A
:1015700010BD000050000020340000203600002084
:1015800038000020440000204600002048000020D1
:101590003A0000203C0000203E00002040000020D7
:1015A00042000020F0B589B00024002700203B490C
:1015B00008603B49086001220021022000F09FF8EA
:1015C00000BF06E001F02AF9642001F007F9601C71
:1015D000C4B20A2CF6DB002408E001F01FF905462E
:1015E000394602F0CDF90746601CC4B2192CF4DB71
:1015F0002C493846FFF722FC07462B48006828494B
:10160000086029480760002443E0254801683846FF
:10161000FFF714FC0190FFF7E7FB0546234A244B34
:1016200001F026FC0022234B03910290FFF750F8B3
:101630000022214B05910490FFF7B2FA0791069022
:10164000FEF774FE154908601C4914480068FFF74E
:10165000F5FB7F21C905009002F05AFA0190FFF7CF
:10166000C3FB0546164A174B01F002FC0591049096
:101670003846FFF7B9FB03910290059B049AFFF7E8
:101680003FF807910690FEF751FE05490860601C7F
:10169000C4B2052CB9DB09B0F0BD00006C0000201D
:1016A000700000200000C84160000020EBE2361A04
:1016B000C05BC83F0000F03F1AE95041D048874A5C
:1016C00085EB51B81E05154070B504460D4616460B
:1016D00033462A462146EE2000F031FA70BD000064
:1016E00001490880704700005400002070B504468E
:1016F0000D462A462146EE2000F052FA70BD70B524
:1017000004460D461646FFF79BFEFFF761FE204696
:10171000FFF7E6FF70BDF0B50A4600210023002464
:1017200000BF3DE001258D402B4615681D402C462D
:101730009C4234D11579012D02D01579022D16D194
:1017400085684F000326BE40B543856055794E003D
:10175000B540866835438560858801268E40B5434F
:101760008580858896798E40B6B235438580056838
:101770004F000326BE40B543056015794E00B540C5
:10178000066835430560C5684F000326BE40B54373
:10179000C560D5794E00B540C6683543C560491C63
:1017A0001029BFD3F0BDF0B5002300244D07EE0E85
:1017B0001546B5402B46CD10AE0005462035AD5937
:1017C0004E07F70E0F26BE40B543CE10B6000746B3
:1017D0002037BD51CD10AE003D46AD591D432C46BE
:1017E000CD10AD003E467451F0BD02460020138A74
:1017F0000B40002B01D0012000E000207047018544
:10180000704781617047000000B589B0012148042C
:1018100000F08CFB0121880300F0A8FB0221684640
:1018200001720321417201218172C172480201904B
:1018300001A90920C006FFF76EFF01220921C80691
:10184000FFF7B1FF1B2168460170002141700121A3
:10185000817000F031FB104800F08CFD4B204002FD
:101860000390002004900590069008900C200790AB
:1018700003A9094800F054FE0121074800F023FEA7
:101880000121054800F06AFD01220449024800F0E8
:1018900026FE09B000BD000000380140050105002A
:1018A00010B504462146054800F0BBFE00BF80216C
:1018B000024800F0D7FD0028F9D010BD00380140E3
:1018C00070B50546002400BF08E0A900054A891844
:1018D000491C085DFFF7E4FF601CC4B2032CF4DB75
:1018E00070BD0000A000002000BFFEE710B5082179
:1018F0000920C006FFF783FF00F08AFC10210920B1
:10190000C006FFF77CFF022000F068FF08210920D5
:10191000C006FFF776FF022000F060FF08210920D3
:10192000C006FFF76CFF10BD1CB50121480400F094
:10193000FDFA1020009001216846017103214171D8
:1019400001218171C17169460920C006FFF7E3FEDC
:101950000820009001216846017169460920C006EF
:10196000FFF7D9FE1CBD10B508210920C006FFF7FE
:1019700046FF00F04DFC10210920C006FFF741FF93
:10198000022000F02BFF08210920C006FFF739FFD5
:10199000022000F023FF08210920C006FFF72FFFD7
:1019A00010BD70B50546002400F024FC00261CE0A4
:1019B00008210920C006FFF722FF022000F00EFFD9
:1019C00008210920C006FFF71CFF6006040E102145
:1019D0000920C006FFF709FF002801D0601CC4B22F
:1019E000022000F0FBFE701CC6B2082EE0DB002DCA
:1019F00002D0FFF77BFF01E0FFF7B5FF204670BD87
:101A000070B5044600F004FC08210920C006FFF769
:101A1000F6FE002526E080202040C611002E05D1CC
:101A200010210920C006FFF7EAFE04E0102109207A
:101A3000C006FFF7E6FE6006040E022000F0CEFEB0
:101A400008210920C006FFF7DCFE022000F0C6FED8
:101A500008210920C006FFF7D2FE022000F0BEFEDA
:101A6000681CC5B2082DD6DB70BD10B500F0D0FBE8
:101A700010210920C006FFF7C4FE08210920C00676
:101A8000FFF7BFFE042000F0A9FE10210920C006C8
:101A9000FFF7B5FE042000F0A1FE08210920C006D2
:101AA000FFF7ADFE10BD10B500F0B2FB0821092014
:101AB000C006FFF7A4FE10210920C006FFF79FFE15
:101AC000042000F08BFE08210920C006FFF799FED4
:101AD00010210920C006FFF794FE042000F07EFECE
:101AE00010BD10B5002400F085FB10210920C006B0
:101AF000FFF787FE012000F071FE08210920C006D3
:101B0000FFF77FFE012000F069FE0AE0601CC4B20E
:101B1000322C03DDFFF7C7FF012010BD012000F0CC
:101B20005DFE10210920C006FFF75FFE0028EDD101
:101B300008210920C006FFF762FE0020EDE7FFB58F
:101B400081B0074615461E460024FFF78EFF384633
:101B5000FFF756FFFFF7C5FF0298FFF751FFFFF7AA
:101B6000C0FFFFF782FF791CC8B2FFF749FFFFF7FC
:101B7000B8FF00BF0DE0681EA04204D00120FFF7AF
:101B800010FF305503E00020FFF70BFF3055601CBD
:101B9000C4B2AC42EFDBFFF786FF204605B0F0BDD4
:101BA00037B504460D4602AB01222946204600F017
:101BB00001F83EBDFFB581B00D4616461F46002414
:101BC000FFF753FF0198FFF71BFFFFF78AFF284637
:101BD000FFF716FFFFF785FF00BF06E0385DFFF750
:101BE0000FFFFFF77EFF601CC4B2B442F6DBFFF7C5
:101BF0005AFF012005B0F0BDF0B58DB004460F4688
:101C0000002C02D0012C4DD120E000212748006893
:101C100001F0FCFE19D0254801683846FFF70EF99F
:101C20002349086008460068FFF7DEF8099108902C
:101C300000F0B0FE054600221E4BFEF7B1FF0B91EF
:101C40000A90FEF773FB1C4908602CE01B480068F3
:101C5000FFF7CAF809910890194801683846FFF75C
:101C6000EDF80190FFF7C0F80546164A164B01F053
:101C7000FFF80022154B03910290FEF729FD002288
:101C8000134B05910490FEF78BFF07910690099B7B
:101C9000089AFEF712FD0B910A90FEF747FB0649E2
:101CA000086000E000BF00BF0DB0F0BD6000002084
:101CB00068000020006EBEC0640000206C000020A0
:101CC00070000020EBE2361AC05BC83F0000F03F16
:101CD0001AE95041F0B58BB00646002E06D02E21F1
:101CE000F420FFF703FD0A2000F058FD5E4A0221B0
:101CF000F620FFF7E9FC5C48007807025A4949786A
:101D00000F435A480088381A594909884843C41370
:101D100058480022825E0A9257480022825E099249
:101D2000099AA1180A9AD002FEF75AFA05466019D4
:101D300052490860084600680830001150490860A0
:101D40005048007880013430C1B2F420FFF7CEFC57
:101D50000F2000F023FD444A0321F620FFF7B4FCD6
:101D600041480078000440494978090208433E4947
:101D700089780843434909780822511A0841089094
:101D80003E4800687D214901401A0590059840436E
:101D900000133D4900228A5E5043C4123B49002093
:101DA000085E05994843C51260190790384800211C
:101DB000415E0191019880000799401831490978E6
:101DC000884001900198801C8010069031490020C5
:101DD000085E0599484344130598404300132E4973
:101DE00000228A5E504305146019801C8010079001
:101DF0002A4800880122D203079989184843C00B5A
:101E0000039006990898401A1E490A7824491141FE
:101E1000484302900121C9070298884206D20299DC
:101E200048000399FEF7D2F9049005E0039902985F
:101E3000FEF7D6F9400004900498001204990912A4
:101E4000484304461748604304141749049848431C
:101E500005146019154940180011049940181449D7
:101E600008600BB0F0BD00005000002048000020CA
:101E70004600002040000020420000204C000020CE
:101E800058000020540000203C00002036000020B4
:101E900034000020380000203A00002044000020D8
:101EA00050C30000DE0B000043E3FFFFCF0E000035
:101EB0005C0000207047000000218278002A27D0B3
:101EC000184A03231B02D21803789B109B00D15899
:101ED00002789207D30EFF229A400B46934319468D
:101EE00042789207120E03789B07DB0E9A4011434B
:101EF0000C4A03231B02D21803789B109B00D1507D
:101F00000278D306DB0E01229A40064B1A6007E0E6
:101F10000278D306DB0E01229A40024B80331A600E
:101F20007047000000E100E070470000002905D084
:101F3000054A52690243044B5A6104E0024A52695D
:101F40008243014B5A61704700100240002905D0BE
:101F5000054A12690243044B1A6104E0024A1269FD
:101F60008243014B1A61704700100240002905D0DE
:101F7000054A92690243044B9A6104E0024A92695D
:101F80008243014B9A61704700100240002905D03E
:101F9000054AD2680243044BDA6004E0024AD26880
:101FA0008243014BDA60704700100240FEB50446E0
:101FB000002500260020029001900090002786480E
:101FC00040680C2108400546002D06D0042D07D09E
:101FD000082D08D00C2D2CD128E0804820602BE063
:101FE0007E48206028E07C4840680F218904084032
:101FF0000646794840680321C90308400290B00CA6
:10200000861C0298002803D17548374647430BE0E9
:102010007148C06A0007000F401C01906F48019989
:10202000FEF7D4F870430746276005E06D4820604E
:1020300002E06A48206000BF00BF67484068F021A6
:10204000084005462D096848405D009020680099C9
:10205000C8406060604840680721090208400546A2
:102060002D0A6148405D009061680098C140A16000
:102070005948006BFF2101310840884202D05B487B
:10208000E0600DE05448406801218903084088421F
:1020900003D0A0684008E06002E0A0688008E0602B
:1020A0004D48006B40210840402802D05048206134
:1020B00002E00120C00320614748006B1021084066
:1020C000102802D04548606101E020686061424804
:1020D000006B8007800F002802D1A068A06119E082
:1020E0003D48006B8007800F012802D12068A06165
:1020F00010E03948006B8007800F022802D180036E
:10210000A06107E03448006B8007800F032801D1ED
:102110003248A0613048006B0321090408400028C0
:1021200002D1A068E06120E02B48006B0321090484
:10213000084001210904884202D12068E06114E0CE
:102140002548006B03210904084001214904884205
:1021500002D18010E06108E01F48006B03210904F0
:102160000840884201D11D48E0611B48006B0321F3
:1021700089040840002802D1A068206220E01648A7
:10218000006B03218904084001218904884202D19F
:102190002068206214E01048006B03218904084085
:1021A0000121C904884202D10011206208E00A48D6
:1021B000006B032189040840884201D1074820624E
:1021C0000548006B80210840802802D005486062E5
:1021D00000E06762FEBD00000010024000127A00BD
:1021E00000093D00006CDC0212000020809FD50039
:1021F000128000001CB5102000900021684601717B
:102200000121C17169460920C006FFF784FA1CBD8F
:102210001CB510200090012168460171C17169460A
:102220000920C006FFF777FA1CBD70470CB50020E7
:102230000190009011201D4908601D4840681C490C
:102240004860084640684860084640687F21C903E6
:10225000884317494860084640680521C904084377
:1022600013494860084600680121090608431049DF
:10227000086000BF0E480068012149060840002898
:10228000F8D00B484068800880000949486008463B
:102290004068022108430649486000BF044840687E
:1022A0000C2108400828F9D10CBD00000020024094
:1022B000001002407047000010B51B480068012163
:1022C00008431949086008464068184908401649FB
:1022D00048600846006816490840134908600846E7
:1022E00000680121890488430F4908600846406856
:1022F0003F21090488430C4948600846C06A000928
:102300000001C8620846006BFF215431884306492A
:1023100008630846406B400840004863002088601E
:10232000FFF784FF10BD0000001002400CB8FF084A
:10233000FFFFF6FE10B50649064800F09DF800289C
:1023400004D0044800F068F90349087010BD00008B
:10235000050105000038014010000020002904D0CC
:10236000026801231A43026003E002685208520027
:102370000260704710B504463248844209D10121F9
:102380008803FFF703FE002101208003FFF7FEFD15
:1023900056E02D48844209D101214804FFF7D6FDBB
:1023A000002101204004FFF7D1FD49E02748844285
:1023B00009D101218804FFF7C9FD00210120800413
:1023C000FFF7C4FD3CE02248844209D10121C80442
:1023D000FFF7BCFD00210120C004FFF7B7FD2FE08F
:1023E0001C48844209D101210805FFF7AFFD0021F7
:1023F00001200005FFF7AAFD22E01748844208D11A
:1024000001212020FFF7C2FD00212020FFF7BEFDA3
:1024100016E01248844208D101214020FFF7B6FDA2
:1024200000214020FFF7B2FD0AE00D48844207D1A9
:1024300001218020FFF7AAFD00218020FFF7A6FDE3
:1024400010BD00000038014000440040004800403A
:10245000004C0040005000400014014000180140B2
:10246000001C014002460020D3690B40002B01D024
:10247000012000E00020704770B502460B460024A2
:102480000021002500201E04350ED9B201268E4001
:102490003146012D02D11668314006E0022D02D1ED
:1024A0005668314001E0966831401C0C0126A64078
:1024B0003446D6693440002903D0002C01D00120D5
:1024C00000E0002070BD002904D0826808231A4370
:1024D000826003E0826808239A4382607047F8B5FF
:1024E00003460024002600960025002018460E040E
:1024F000340ECEB200960127009EB7403D46022C16
:1025000001D1001D02E0032C00D10830002A03D0C5
:1025100006682E43066002E00668AE430660F8BD1A
:10252000F0B58BB004460D46002700200A90002627
:102530002068400840002060666803210903304697
:1025400088430646A8680643666026682D4806400C
:10255000E968686808432969084306432660A66855
:102560000321090230468843064668690643A6608F
:102570006846FFF71BFD2448844202D106980A9062
:102580000DE02248844202D107980A9007E02048D3
:10259000844202D108980A9001E002980A902068CB
:1025A0000121C903084000280CD029680A9A50006C
:1025B000FDF70CFE074629680A9A5000FDF706FE53
:1025C0000E4609E029680A98FDF700FE07462968CB
:1025D0000A98FDF7FBFD0E4628684008B04200D877
:1025E0007F1C20680121C9030840002806D0380755
:1025F000460F38460749084030430746A7810BB0CD
:10260000F0BD0000F3E9FFFF003801400044004046
:1026100000480040F0FF00000146888CC005C00D56
:102620007047CA05D20D0285704700004900CA02F2
:102630000243100000D004204A0D01D001221043B3
:10264000044A490D914201D102210843012800D1D9
:1026500005207047FF070000F8B504464F1EC8006C
:102660000838211815461E46086849683A46062368
:102670009A4310D02A463346FEF792FA3A46D200E1
:10268000083AA3181A687F1E5B68FEF709F806224D
:102690003B469343EED1022F23D0042F11D0062FB7
:1026A0002FD12A463346FEF77BFAE36AA26AFDF78A
:1026B000F7FF2A463346FEF773FA636A226AFDF78C
:1026C000EFFF2A463346FEF76BFAE369A269FDF78E
:1026D000E7FF2A463346FEF763FA63692269FDF78E
:1026E000DFFF2A463346FEF75BFAE368A268FDF790
:1026F000D7FF2A463346FEF753FA63682268FDF790
:10270000CFFFF8BD002210B5134610460149FDF772
:10271000F7FF10BD0000F03F10B50122FEF7E6FC08
:1027200010BD10B5FDF7BCFF10BD002210B513465B
:1027300010461146FDF7E4FF10BD000010B507215B
:10274000024A00200907FEF7D1FC10BD010300007A
:10275000034A10B500201107FEF7C8FC10BD0000A9
:1027600001FDFFFF0A49096904229143084A1161EA
:10277000C217520F12185205120E064B1A70194644
:1027800009787D22D2005143034A1180704700002E
:1027900000E000E0220000202400002001460D4A55
:1027A00012884A430C4B5A6100229A6101221A6135
:1027B00000BF094A1069C207D20F002A04D00122C3
:1027C00012040240002AF4D00022034B1A619A61DD
:1027D000704700002400002000E000E001460D4AA0
:1027E00012784A430C4B5A6100229A6101221A6105
:1027F00000BF094A1069C207D20F002A04D0012283
:1028000012040240002AF4D00022034B1A619A619C
:10281000704700002200002000E000E0F8B500242E
:1028200000205049086050490860504840684F49AE
:10283000086000BF1EE00120FFF74CFA4C4800681A
:102840004C49401AA1004C4A5050A000114608586B
:1028500044490968401843490860A00011460858D7
:10286000A100515848434049096840183E49086052
:10287000601CC4B2052CDEDB3A480068FEF7D8FBCA
:1028800006463E49FEF7DAFA0546FEF787FB35496C
:10289000086008460068FEF7CBFB344948603149C0
:1028A0000968304A126851430846FEF7C1FB0090A0
:1028B0002D480068FEF7BCFB07463049FEF7BEFA1C
:1028C0000646009901F030F90546FEF767FB2C49F2
:1028D000086008460068FEF7ABFB009029480168D5
:1028E000009801F04DF80646274901F049F80546E1
:1028F00025492448006801F043F807462946FEF7B9
:102900009DFA2249086020491E48006801F038F805
:1029100005461E4801687F20C00501F005F90646FE
:10292000294601F09DF817490860104A116850685F
:1029300001F0FAF8064615480168304601F090F8B3
:1029400005460A480168284601F01AF807498860D8
:1029500088680F4901F014F80449886008468068C7
:10296000F8BD00008C00002094000020240200200C
:102970005C000020A0860100FC0100200000A040B7
:10298000900000209C0000200000EE4298000020F3
:102990000050C347F0B5C54A00248FB091420ADA0F
:1029A0004B005B08934206D801254A006D05EA42B8
:1029B00005D1002803D0FFF7AFFE0FB0F0BD012511
:1029C0002D05A94219DA034308D0002910DA0120A5
:1029D000FEF73EFBFFF7A9FE0FB0F0BD0220FEF7A9
:1029E00037FBFFF78FFE0122D20751400FB0F0BD39
:1029F0003524E4433622FEF779FB0A15AC4B121955
:102A0000D4180A03120BAB49AB4B56182E40314673
:102A1000594011430192321512190B920022FDF711
:102A20004CFE019A0446921C1003A44E000B0D4666
:102A30007E44032860D220467368326800F03AFF73
:102A40001CD10B98002815D0FEF79FF804460E46BF
:102A50009B4A9C4BFEF7A4F80D4607469A4A9B4BAF
:102A600020463146FEF79CF83A462B46FDF718FE05
:102A70000FB0F0BD716830680FB0F0BD944A954B4F
:102A800020462946FEF78CF80022934BFDF720FEE6
:102A900006460F4622462B4610461946FEF780F89A
:102AA00032463B46FEF77CF806460B980F46002858
:102AB0001DD0FEF76AF8824A824B05910490FEF71A
:102AC0006FF832463B46FDF703FE22462B46FDF7E4
:102AD000F4FD04460D467C4A7C4B05990498FEF7AC
:102AE0005FF822462B46FDF7E8FD0FB0F0BD0B4620
:102AF000324620462946C4E0012300229B07204697
:102B0000FDF7CEFD02460B4620462946FDF7F8FDAF
:102B100006460F460B98FEF738F832463B460591BD
:102B2000049010461946FEF73BF809910C906B494A
:102B30000198099B421800920C9A19461046FEF71C
:102B40002FF8024607910A90654901980B1A6548CB
:102B5000019303217844079BFFF77EFD079B0A9AA8
:102B6000FEF71EF80E905F480D9104217844079BF4
:102B70000A9AFFF771FD099B0C9AFEF711F8019B69
:102B8000009A1A4300920D9B0E9AFDF789FD009A58
:102B900001910C90002A4DDD0022D24320462946A7
:102BA000FEF7A4FA22462B46FDF7FAFF00910A90A1
:102BB0000B9800282BD0424A424B05990498FDF708
:102BC000EFFF07910E90019B0C9A00990A98FDF770
:102BD00067FD32463B46FDF7E3FF079B0E9AFDF784
:102BE0005FFD009B0A9AFDF773FD22462B46FDF719
:102BF00064FD04460D46344A344B05990498FDF7AC
:102C0000CFFF22462B46FDF758FD0FB0F0BD019BCC
:102C10000C9A0A98FDF744FD32463B46FDF7C0FF8B
:102C2000009B0A9AFDF754FD22462B46FDF750FD06
:102C30000FB0F0BD0B98002827D0214A214B0599F1
:102C40000498FDF7ADFF0791009020462946019BAF
:102C50000C9AFDF732FD32463B46FDF7A1FF079B7C
:102C6000009AFDF72AFD22462B46FDF726FD044675
:102C70000D46154A154B05990498FDF791FF22461C
:102C80002B46FDF71AFD0FB0F0BD0B462046294636
:102C90000C9AFDF712FD32463B46FDF781FF2246B6
:102CA0002B46FDF715FD0FB0F0BD00000000F07FD2
:102CB00001FCFFFF645F09000000F03F44130000C7
:102CC000763C7935EF39EA3D0000E0FE422EE63FE2
:102CD000555555555555D53F0000E03F86EBF9FF5A
:102CE00051B8060060110000552400BF3020FFF7E6
:102CF00039FDFEF719FEFEF755FCFF20F530FFF712
:102D00004DFDFEF781FD79E03D480078032811D1A3
:102D1000552C0FD1FF20F530FFF760FD0123394816
:102D20000022825E0821032000F07CF80320FEF7D9
:102D3000C7FD012432480078042812D1012C10D19B
:102D4000FF20F530FFF74AFD00232F48C25E08211F
:102D5000042000F067F80420FEF7B2FDA000401C3C
:102D6000C4B227480078052812D1052C10D1FF20C5
:102D7000F530FFF733FD00232448C25E062105200D
:102D800000F050F80520FEF79BFDA000401CC4B2E7
:102D90001B480078062831D1152C2FD100211C4862
:102DA000FFF7DCFAFFF73AFD1A49086008460168A8
:102DB0000120FEF721FF184918480068FEF73EF889
:102DC0000546FEF7EBF800B20F4908800020085EC8
:102DD0000C4900228A5E904204DD0B490020085E07
:102DE000084908800E48006800B208490880A00021
:102DF000401CC4B201210648FFF7B0FA84E7000086
:102E0000100000200C000020080000200A00002014
:102E100000380140000000200000C842640000208B
:102E200058000020FFB50C4601460E07310E0E1962
:102E3000F1B2560032B2039E012E01D1561C32B2BD
:102E4000D3B21604350E8600074FF619717086004E
:102E5000F619B3708600F619F5708600B85501268C
:102E6000024F3E70FFBD0000A000002026000020A1
:102E7000F0B51FB496B084460C460246199D1898CA
:102E80000390490068006300490840080193002A44
:102E900001D0012600E000269E19FE4BF6185B10BB
:102EA0009E422BD36E00039F0296002F00D0012775
:102EB000F719F84EF84BBE199E421FD3039E0346E6
:102EC000F64F334309D03B469C4201D1002A04D03F
:102ED000019B002A05D0012604E0002039461BB0E2
:102EE000F0BD00269E19EE4B9E4207D8039F029E1E
:102EF000002F00D00127F6199E4207D92B466046C5
:102F00002146189AFFF70DFC1BB0F0BD0023002CE2
:102F100029DAE44EB04226DAE34EB04201DB022366
:102F200021E0DE4EB0421EDBE04E070DBE19142E2E
:102F300009DD3427BF1B039EFE400196BE40039F60
:102F4000BE420BD00FE0039F002F0CD11427BF1BF4
:102F50000646FE400196BE40864204D1019BDE0734
:102F6000F60F02239B1B0E46164318D1002D16DACE
:102F7000002C03D0022B01D0012B06D00220FEF73B
:102F800067F8FFF7BFFB1BB0F0BD0220FEF760F84B
:102F9000FFF7B8FB0122D20751401BB0F0BD039EE2
:102FA000002E61D1BF4EB04220D1C148844201D130
:102FB000002A08D0B948814209DB002D10DB18989F
:102FC00029461BB0F0BD0020B4491BB0F0BD002D58
:102FD00006DA01222946D207189851401BB0F0BDED
:102FE000B4497944086849681BB0F0BDAB4FB8429A
:102FF00025D1002D1FDA002904D0B14212D1002AB8
:1030000009D018E0002A72D1A649E20F0020D207A9
:1030100011431BB0F0BD0020E20F0146D20711435F
:103020001BB0F0BDB14206DA234600203946FDF759
:1030300067FB1BB0F0BD104621461BB0F0BDB1428E
:1030400012DA0126B607B54203D1234610461946C7
:10305000FEE3994EB54207D1261E05DB10463146E8
:1030600000F004FC1BB0F0BD67007F081646002A84
:1030700040D100290AD08B4A914229D1002C0EDD83
:10308000002D1CDB002011461BB0F0BD022B16D01A
:10309000002C14D0012B12D1002C14DB0FE0002CDB
:1030A00028DA002D09DB012B03D000207D491BB05D
:1030B000F0BD002081491BB0F0BD012B03D00020E2
:1030C00001461BB0F0BD00200121C9071BB0F0BDB7
:1030D000724A91420ED1002C01DA002B17D0022B3C
:1030E00006D00020C043FDF750FD1BB0F0BD90E2BC
:1030F0000120F8E7E217521C94461A4307D0002239
:103100000892664C62465B1E1A4307D009E0012014
:10311000FDF79EFFFFF709FB1BB0F0BD0022644CDA
:103120000892674A90427DDD664B674A98421FDDF0
:10313000914202DC002D05DB4DE05848814217DB4F
:10314000002D48DD0220FDF783FFFFF7F7FA054663
:103150000E460022534B21460898FDF721FD0846F4
:1031600071004908C00FC007014328461BB0F0BDDD
:10317000914215DA002D2EDA0220FDF769FFFFF7E4
:10318000DDFA05460E460022464B21460898FDF71B
:1031900007FD72005208C80FC0070243114617E02E
:1031A0003E4B994223DD002D15DD0220FDF750FF37
:1031B000FFF7C4FA05460E4600223A4B214608980E
:1031C000FDF7EEFC084671004908C00FC007014337
:1031D00028461BB0F0BD0220FDF73AFFFFF7B8FA12
:1031E00049004908E20FD20711431BB0F0BD00228D
:1031F00030463946FDF761FA012205460E46D243B4
:10320000FDF774FF314A324BFDF762FA2A46334626
:10321000FDF7C6FC0022284BFDF75AFA07462A465E
:10322000334600E064E0039110461946FDF7B8FC10
:103230003A46039BFDF7B4FC074603220991520767
:10324000244B28463146FDF7ABFC07910C90224AEF
:10325000204B38460999FDF7A3FC074601911F4A08
:103260001F4B28463146FDF79BFC3A46019BFDF774
:1032700024FA07460B460246099107990C98FDF778
:103280000FFA00250E462846079B0C9AFDF715FA03
:103290003A4627E0FFFF1F00FFFF0F000000F03F4E
:1032A0000000E0FF0000F07F0000404301FCFFFF52
:1032B0000000F0BF920D00000000E03F0000F0FFB2
:1032C0000000E0410000F043FFFFEF3F555555552A
:1032D0005555D53F4715F73FFE822B6544DF5DF816
:1032E0000BAE543E099BFDF7F3F902460B4652E143
:1032F000012500202D05A94207DA3522304639463E
:10330000FDF7F4FE06463420C0430A151218FE48A5
:10331000101803900803FD49000B01430F46FC49B8
:10332000884201DC002003E0FA49884202DA0120E9
:10333000119005E0002011900398401C7F1B039022
:1033400011980597C200F4480F927844801843689A
:103350000268394630460D930292FDF7AEF90791A7
:103360000C9030460D9B029A0599FDF799F902469B
:103370000B460020E549FDF7C3F909910490079B2E
:103380000C9AFDF70DFC129000201090E3480D46BA
:10339000784400680E90012178104907084311997C
:1033A0000D9B890440180121C90447183946029A27
:1033B0000E98FDF782F93246059BFDF789F9024622
:1033C0000B4629461098FDF7EBFB064602913B465B
:1033D00029460E9A1098FDF7E3FB079B0C9AFDF720
:1033E00077F93246029BFDF768F9099B049AFDF7CD
:1033F000D7FB0591129A0A902B4610461946FDF705
:10340000CFFB06460246C6480F460B4606217844C7
:10341000FFF722F932463B460091049010461946C8
:10342000FDF7BEFB009B049AFDF7BAFB06460F466C
:103430002B461946129A1098FDF732F9059B0A9A05
:10344000FDF7AEFB32463B46FDF72AF9109A07918D
:1034500004902B4610461946FDF7A2FBB14E002200
:10346000334609910290FDF71BF9079B049AFDF77B
:1034700017F900200746024633460091FDF71DF973
:10348000099B029AFDF719F9079B049AFDF720F9A9
:1034900006460D913A462946009B1098FDF780FBA1
:1034A00007910C902B463046129A0D99FDF778FB48
:1034B00005460E463A46009B05990A98FDF770FBB3
:1034C00033462A46FDF7ECF802460B4607460991BB
:1034D00007990C98FDF7E4F800250E462846079B4F
:1034E0000C9AFDF7EAF83A46099BFDF7F1F8074612
:1034F0000722099152078C4B31462846FDF750FBB5
:1035000007910090894A884B38460999FDF748FB96
:1035100007460191864A874B31462846FDF740FB16
:103520003A46019BFDF7BCF8834B7B440F9A9B18EE
:103530001A685B68FDF7B4F8029009910398FDF7EB
:1035400024FB05910490099B029A07990098FDF7C6
:10355000A7F87A4B7B440F9A9B181A685B6817464A
:103560000393FDF79DF8059B049AFDF799F80E4625
:103570002846059B049AFDF7A0F83A46039BFDF701
:103580009CF8079B009AFDF798F8099B029AFDF7B3
:103590009FF802460B46199900200C900F46189888
:1035A000FDF7FEFA029104903B460C9A199918987F
:1035B000FDF783F82A463346FDF7F2FA029B049A98
:1035C000FDF76EF809910E902A46334639460C985D
:1035D000FDF7E6FA06460F46099B0E9AFDF760F8DE
:1035E000574A0D46914220DB5242AA18024310D19D
:1035F00032463B46FDF761F804900391514A524B25
:1036000009990E98FDF74CF8039B049A00F084F991
:103610001ED20220FDF71CFDFFF790F84900490873
:10362000E20FD20711431BB0F0BD6A00474B5208AE
:103630009A420DD3464AAA18024300D0CBE532463F
:103640003B46FDF73AF8099B0E9A00F065F9F5D96B
:103650006800002340082C490393020D3D4B52188B
:10366000984223DD01200005521CD0404219500031
:10367000400D401838497944096813468C4637494B
:10368000C1408B4312030121120B0905511814226A
:10369000101AC1400391002D01DA4842039062469E
:1036A00030463946FDF709F806460F4632463B4696
:1036B00009990E98FCF7F4FF00252A46284B284666
:1036C0000591FDF76DFA07910C90264A264B284686
:1036D0000599FDF765FA0091029032463B4628466F
:1036E0000599FCF7EAFF099B0E9AFCF7F1FF1F4AC8
:1036F0001F4BFDF755FA009B029AFCF7D1FF0746D6
:103700000B460246099135E001FCFFFF0000F03F47
:103710008E9803007AB60B00A2090000E4090000AD
:103720000E0900000000084009C7EE3FFD033ADC27
:10373000F5015B14E02F3EBEE2070000A807000081
:1037400000009040FE822B654715973C00CC9040CE
:1037500000346F3F0000E03FFE060000FFFF0F0057
:10376000432EE63F396CA80C615C20BEEF39FAFEAF
:10377000422EE63F07990C98FCF792FF05460E464D
:10378000079B0C9AFCF799FF3A46099BFCF7A0FFB0
:1037900009912A4633460E9010461946FDF700FA65
:1037A000074602462F480B46059105217844FEF74F
:1037B00053FF3A46059BFDF7F3F92A463346FCF7DB
:1037C00087FF0746019128463146099B0E9AFDF76F
:1037D000E7F9099B0E9AFCF763FF012304910C9013
:1037E00000229B0738460199FCF767FF05910E9070
:1037F0003A4628463146019BFDF7D2F9059B0E9AC1
:10380000FCF77EFF049B0C9AFCF757FF2A463346D1
:10381000FCF753FF0022144BFCF75AFF06460398AF
:103820000D46000541190915002912DC30462946CC
:10383000039AFDF75BFCFEF7F9FE042801D1FEF7C1
:1038400087FF30462946039AFDF750FC064601E003
:1038500004E029180B46324621460898FDF7A0F9E6
:103860001BB0F0BDA00500000000F03FF8B5064613
:103870000C46FDF76BFC051E0F4600D001200143EE
:1038800049000B484908411AC90F0DD0002E01D03C
:10389000012100E000210C4361004908401AC00FDB
:1038A00002D10120FDF7D4FB28463946F8BD0000BF
:1038B0000000F07F70B501250C002D051C4310D4CD
:1038C000EC4206D4AC420AD4994200D070BD90427A
:1038D00070BDE94217D4EB4215D4994270BD8942BC
:1038E00070BDEC4206D5AC42F9D58B4200D070BD1C
:1038F000824270BD6D004C00EC4204D25C00EC4290
:1039000001D28B4270BD034C30B4FDF7A7FB30BC35
:1039100070BD00BF1900120470B501251C002D05F3
:103920000C4310D4EC4206D4AC420AD48B4200D0F3
:1039300070BD824270BDEB4217D4E94215D48B4270
:1039400070BD9B4270BDEC4206D5AC42F9D59942A0
:1039500000D070BD904270BD6D005C00EC4204D29E
:103960004C00EC4201D2994270BD0FB4034C0CBC28
:1039700003BC30B4FDF772FB30BC70BD19001604F7
:1039800070B501250400ED074C4020D4441A01D243
:10399000001B0919C60D4B00F2B2FF2A29D01B0EDD
:1039A0002CD000020C02D31A2C43DC40284305190A
:1039B00010D2280A02D3401C6D0611D0761EF605DF
:1039C0008019FF2A00DA70BDC00DC00570BD6940C6
:1039D00000F0B0F801200543C541521C761CE8E711
:1039E00064089C40C90161408900E7D10124A043DB
:1039F000E4E71B0E440200D0034870BD002AFCD14E
:103A0000C00FC00770BD00BF0000C07F01230200CF
:103A1000DB050A430DD4DA4203D49A4207D4884224
:103A20007047D84214D4D94212D488427047804299
:103A30007047DA4203D59A42F9D5814270475B005C
:103A40004200DA4204D24A00DA4201D2814270478F
:103A500010B5024AFDF7FAFB10BD00BF09001204C1
:103A600070B5420064414B005C41120E39D01B0E10
:103A700038D0FF2A3CD0FF2B3AD040024902400AFE
:103A8000490A060045184E43000A090AD21848435D
:103A9000ED017F3A0104731A4019190C4318990F6C
:103AA00004D001215B0849075B1A521CD80904D3D2
:103AB000401CF50301D19D0607D0FF2A08D2D50589
:103AC00006D0E4072043401970BD0125A843F4E760
:103AD000002A01DCE00770BD2402FF202043C0055E
:103AE00070BD1B0EFF2A03D0FF2B01D0E00770BD75
:103AF000FF2645003606B54206D84D00B54203D82C
:103B0000D218FF2A00D0E7E7004870BD0000C07F50
:103B100070B50125ED07684004004C4002D56940AE
:103B200000F008F8FFF732FF70B501250400ED073B
:103B30004C4022D4441A02D26C40001B0919C60D15
:103B40004B00F2B2FF2A4BD01B0E50D000020C02E9
:103B5000D31A2C43DC40A843051B05D5AD0019D36F
:103B60006D08761E521E37D0F605280A01D280193C
:103B700070BD70416D0603D070BD6940FFF706FF50
:103B80009C4009026140490001D0401E70BD0124E3
:103B9000A04370BD6D081DD001202B0C01D12D0458
:103BA00010302B0E01D12D0208302B0F01D12D0129
:103BB000001DAB0F01D1AD00801CEB0F01D16D00DA
:103BC000401C6D00361A121A680AF5054019012AC0
:103BD00002DB70BD002070BDC036300AC00770BD6A
:103BE0001B0E440201D1FF2B00D1024870BD002AF8
:103BF000F0D070BD0000C07F80807F7E7D7C7B7AAE
:103C00007978777676757473727171706F6E6E6D88
:103C10006C6C6B6A6A69686867666665646463632E
:103C200062616160605F5F5E5E5D5D5C5C5B5B5AB4
:103C30005A59595858575756565555555454535321
:103C400052525251515050504F4F4F4E4E4D4D4D7C
:103C50004C4C4C4B4B4B4A4A4A49494948484847C7
:103C60004747474646464545454444444443434305
:103C70004342424242414141818283848586878812
:103C8000898B8C8D8E8F919293959697999A9C9D06
:103C90009FA0A2A3A5A7A8AAACAEB0B2B3B5B7B96E
:103CA000BCBEC0C2C5C7C9CCCED1D4D7D9DCDFE237
:103CB000E6E9ECF0F3F7FAFE04FA97999999D93FFF
:103CC000AF788E1DC571CC3F9FC678D0099AC33F8F
:103CD000935555555555E53F599322942449D23F64
:103CE000DE03CB966446C73F44523EDF12F1C23F2B
:103CF000000000000000F03F000000000000F83F5E
:103D000000000000000000000000004003B8E23F97
:103D1000000000000000000006D0CF43EBFD4C3E49
:103D2000033333333333E33FFFAB6FDBB66DDB3F3E
:103D30004D268F515555D53F01411DA96074D13F86
:103D400065DBC9934A86CD3FEF4E454A287ECA3F80
:103D50003E5555555555C53F93BDBE166CC166BF02
:103D60002CDE25AF6A56113FF16BD2C541BDBBBEFB
:103D7000D0A4BE726937663E00000000000000005B
:103D8000A03D000800000020A0000000F80000088E
:103D9000403E0008A0000020F007000014010008C9
:103DA0000000000000000000000000000000000013
:103DB00000000000000001020304010203040607E2
:103DC00008090000000000000000000000000000E2
:103DD00000000000000000000000000000000000E3
:103DE00000000000000000000000000000000000D3
:103DF00000000000000000000000000000000000C3
:103E000080E6C54700000000000000000000000040
:103E100000000000000000000000000000000000A2
:103E20000000000000000000000000000000000092
:103E30000000000000000000000000000000C84278
:04000005080000B53A
:00000001FF
